{
  "contractName": "GrantorRole",
  "abi": [
    {
      "inputs": [],
      "stateMutability": "nonpayable",
      "type": "constructor"
    },
    {
      "anonymous": false,
      "inputs": [
        {
          "indexed": true,
          "internalType": "address",
          "name": "account",
          "type": "address"
        }
      ],
      "name": "GrantorAdded",
      "type": "event"
    },
    {
      "anonymous": false,
      "inputs": [
        {
          "indexed": true,
          "internalType": "address",
          "name": "account",
          "type": "address"
        }
      ],
      "name": "GrantorRemoved",
      "type": "event"
    },
    {
      "anonymous": false,
      "inputs": [
        {
          "indexed": true,
          "internalType": "address",
          "name": "previousOwner",
          "type": "address"
        },
        {
          "indexed": true,
          "internalType": "address",
          "name": "newOwner",
          "type": "address"
        }
      ],
      "name": "OwnershipTransferred",
      "type": "event"
    },
    {
      "anonymous": false,
      "inputs": [
        {
          "indexed": true,
          "internalType": "bytes32",
          "name": "role",
          "type": "bytes32"
        },
        {
          "indexed": true,
          "internalType": "bytes32",
          "name": "previousAdminRole",
          "type": "bytes32"
        },
        {
          "indexed": true,
          "internalType": "bytes32",
          "name": "newAdminRole",
          "type": "bytes32"
        }
      ],
      "name": "RoleAdminChanged",
      "type": "event"
    },
    {
      "anonymous": false,
      "inputs": [
        {
          "indexed": true,
          "internalType": "bytes32",
          "name": "role",
          "type": "bytes32"
        },
        {
          "indexed": true,
          "internalType": "address",
          "name": "account",
          "type": "address"
        },
        {
          "indexed": true,
          "internalType": "address",
          "name": "sender",
          "type": "address"
        }
      ],
      "name": "RoleGranted",
      "type": "event"
    },
    {
      "anonymous": false,
      "inputs": [
        {
          "indexed": true,
          "internalType": "bytes32",
          "name": "role",
          "type": "bytes32"
        },
        {
          "indexed": true,
          "internalType": "address",
          "name": "account",
          "type": "address"
        },
        {
          "indexed": true,
          "internalType": "address",
          "name": "sender",
          "type": "address"
        }
      ],
      "name": "RoleRevoked",
      "type": "event"
    },
    {
      "inputs": [],
      "name": "DEFAULT_ADMIN_ROLE",
      "outputs": [
        {
          "internalType": "bytes32",
          "name": "",
          "type": "bytes32"
        }
      ],
      "stateMutability": "view",
      "type": "function"
    },
    {
      "inputs": [],
      "name": "GRANTOR_ROLE",
      "outputs": [
        {
          "internalType": "bytes32",
          "name": "",
          "type": "bytes32"
        }
      ],
      "stateMutability": "view",
      "type": "function"
    },
    {
      "inputs": [
        {
          "internalType": "bytes32",
          "name": "role",
          "type": "bytes32"
        }
      ],
      "name": "getRoleAdmin",
      "outputs": [
        {
          "internalType": "bytes32",
          "name": "",
          "type": "bytes32"
        }
      ],
      "stateMutability": "view",
      "type": "function"
    },
    {
      "inputs": [
        {
          "internalType": "bytes32",
          "name": "role",
          "type": "bytes32"
        },
        {
          "internalType": "address",
          "name": "account",
          "type": "address"
        }
      ],
      "name": "grantRole",
      "outputs": [],
      "stateMutability": "nonpayable",
      "type": "function"
    },
    {
      "inputs": [
        {
          "internalType": "bytes32",
          "name": "role",
          "type": "bytes32"
        },
        {
          "internalType": "address",
          "name": "account",
          "type": "address"
        }
      ],
      "name": "hasRole",
      "outputs": [
        {
          "internalType": "bool",
          "name": "",
          "type": "bool"
        }
      ],
      "stateMutability": "view",
      "type": "function"
    },
    {
      "inputs": [],
      "name": "owner",
      "outputs": [
        {
          "internalType": "address",
          "name": "",
          "type": "address"
        }
      ],
      "stateMutability": "view",
      "type": "function"
    },
    {
      "inputs": [
        {
          "internalType": "bytes32",
          "name": "role",
          "type": "bytes32"
        },
        {
          "internalType": "address",
          "name": "account",
          "type": "address"
        }
      ],
      "name": "renounceRole",
      "outputs": [],
      "stateMutability": "nonpayable",
      "type": "function"
    },
    {
      "inputs": [
        {
          "internalType": "bytes32",
          "name": "role",
          "type": "bytes32"
        },
        {
          "internalType": "address",
          "name": "account",
          "type": "address"
        }
      ],
      "name": "revokeRole",
      "outputs": [],
      "stateMutability": "nonpayable",
      "type": "function"
    },
    {
      "inputs": [
        {
          "internalType": "bytes4",
          "name": "interfaceId",
          "type": "bytes4"
        }
      ],
      "name": "supportsInterface",
      "outputs": [
        {
          "internalType": "bool",
          "name": "",
          "type": "bool"
        }
      ],
      "stateMutability": "view",
      "type": "function"
    },
    {
      "inputs": [
        {
          "internalType": "address",
          "name": "account",
          "type": "address"
        }
      ],
      "name": "isGrantor",
      "outputs": [
        {
          "internalType": "bool",
          "name": "",
          "type": "bool"
        }
      ],
      "stateMutability": "view",
      "type": "function"
    },
    {
      "inputs": [
        {
          "internalType": "address",
          "name": "account",
          "type": "address"
        },
        {
          "internalType": "bool",
          "name": "isThisUniformGrantor",
          "type": "bool"
        }
      ],
      "name": "addGrantor",
      "outputs": [],
      "stateMutability": "nonpayable",
      "type": "function"
    },
    {
      "inputs": [
        {
          "internalType": "address",
          "name": "account",
          "type": "address"
        }
      ],
      "name": "removeGrantor",
      "outputs": [],
      "stateMutability": "nonpayable",
      "type": "function"
    },
    {
      "inputs": [
        {
          "internalType": "address",
          "name": "account",
          "type": "address"
        }
      ],
      "name": "isUniformGrantor",
      "outputs": [
        {
          "internalType": "bool",
          "name": "",
          "type": "bool"
        }
      ],
      "stateMutability": "view",
      "type": "function"
    },
    {
      "inputs": [],
      "name": "renounceOwnership",
      "outputs": [],
      "stateMutability": "view",
      "type": "function"
    },
    {
      "inputs": [
        {
          "internalType": "address",
          "name": "newOwner",
          "type": "address"
        }
      ],
      "name": "transferOwnership",
      "outputs": [],
      "stateMutability": "nonpayable",
      "type": "function"
    }
  ],
  "bytecode": "0x60806040523480156200001157600080fd5b5062000032620000266200006a60201b60201c565b6200007260201b60201c565b620000647fd10feaa7fea55567e367a112bc53907318a50949442dfc0570945570c5af57cf336200013660201b60201c565b620002a8565b600033905090565b60008060009054906101000a900473ffffffffffffffffffffffffffffffffffffffff169050816000806101000a81548173ffffffffffffffffffffffffffffffffffffffff021916908373ffffffffffffffffffffffffffffffffffffffff1602179055508173ffffffffffffffffffffffffffffffffffffffff168173ffffffffffffffffffffffffffffffffffffffff167f8be0079c531659141344cd1fd0a4f28419497f9722a3daafe3b4186f6b6457e060405160405180910390a35050565b6200014882826200014c60201b60201c565b5050565b6200015e82826200023d60201b60201c565b6200023957600180600084815260200190815260200160002060000160008373ffffffffffffffffffffffffffffffffffffffff1673ffffffffffffffffffffffffffffffffffffffff16815260200190815260200160002060006101000a81548160ff021916908315150217905550620001de6200006a60201b60201c565b73ffffffffffffffffffffffffffffffffffffffff168173ffffffffffffffffffffffffffffffffffffffff16837f2f8788117e7eff1d82e926ec794901d17c78024a50270940304540a733656f0d60405160405180910390a45b5050565b60006001600084815260200190815260200160002060000160008373ffffffffffffffffffffffffffffffffffffffff1673ffffffffffffffffffffffffffffffffffffffff16815260200190815260200160002060009054906101000a900460ff16905092915050565b611ad180620002b86000396000f3fe608060405234801561001057600080fd5b50600436106100f55760003560e01c80636d71a9c611610097578063a217fddf11610066578063a217fddf14610282578063d547741f146102a0578063e15fb83f146102bc578063f2fde38b146102da576100f5565b80636d71a9c6146101fa578063715018a61461022a5780638da5cb5b1461023457806391d1485414610252576100f5565b80632f2ff15d116100d35780632f2ff15d1461018a578063332cc9c6146101a657806336568abe146101c257806344e393cb146101de576100f5565b806301ffc9a7146100fa578063190de9f71461012a578063248a9ca31461015a575b600080fd5b610114600480360381019061010f91906111d0565b6102f6565b6040516101219190611218565b60405180910390f35b610144600480360381019061013f9190611291565b610370565b6040516101519190611218565b60405180910390f35b610174600480360381019061016f91906112f4565b6103a3565b6040516101819190611330565b60405180910390f35b6101a4600480360381019061019f919061134b565b6103c3565b005b6101c060048036038101906101bb9190611291565b6103ec565b005b6101dc60048036038101906101d7919061134b565b610474565b005b6101f860048036038101906101f391906113b7565b6104f7565b005b610214600480360381019061020f9190611291565b610581565b6040516102219190611218565b60405180910390f35b6102326105e8565b005b61023c6106a7565b6040516102499190611406565b60405180910390f35b61026c6004803603810190610267919061134b565b6106d0565b6040516102799190611218565b60405180910390f35b61028a61073b565b6040516102979190611330565b60405180910390f35b6102ba60048036038101906102b5919061134b565b610742565b005b6102c461076b565b6040516102d19190611330565b60405180910390f35b6102f460048036038101906102ef9190611291565b61078f565b005b60007f7965db0b000000000000000000000000000000000000000000000000000000007bffffffffffffffffffffffffffffffffffffffffffffffffffffffff1916827bffffffffffffffffffffffffffffffffffffffffffffffffffffffff1916148061036957506103688261082b565b5b9050919050565b600061039c7fd10feaa7fea55567e367a112bc53907318a50949442dfc0570945570c5af57cf836106d0565b9050919050565b600060016000838152602001908152602001600020600101549050919050565b6103cc826103a3565b6103dd816103d8610895565b61089d565b6103e7838361093a565b505050565b6103f4610895565b73ffffffffffffffffffffffffffffffffffffffff166104126106a7565b73ffffffffffffffffffffffffffffffffffffffff1614610468576040517f08c379a000000000000000000000000000000000000000000000000000000000815260040161045f9061147e565b60405180910390fd5b61047181610a1a565b50565b61047c610895565b73ffffffffffffffffffffffffffffffffffffffff168173ffffffffffffffffffffffffffffffffffffffff16146104e9576040517f08c379a00000000000000000000000000000000000000000000000000000000081526004016104e090611510565b60405180910390fd5b6104f38282610b2d565b5050565b6104ff610895565b73ffffffffffffffffffffffffffffffffffffffff1661051d6106a7565b73ffffffffffffffffffffffffffffffffffffffff1614610573576040517f08c379a000000000000000000000000000000000000000000000000000000000815260040161056a9061147e565b60405180910390fd5b61057d8282610c0f565b5050565b600061058c82610370565b80156105e15750600360008373ffffffffffffffffffffffffffffffffffffffff1673ffffffffffffffffffffffffffffffffffffffff16815260200190815260200160002060009054906101000a900460ff165b9050919050565b6105f0610895565b73ffffffffffffffffffffffffffffffffffffffff1661060e6106a7565b73ffffffffffffffffffffffffffffffffffffffff1614610664576040517f08c379a000000000000000000000000000000000000000000000000000000000815260040161065b9061147e565b60405180910390fd5b60006106a5576040517f08c379a000000000000000000000000000000000000000000000000000000000815260040161069c9061157c565b60405180910390fd5b565b60008060009054906101000a900473ffffffffffffffffffffffffffffffffffffffff16905090565b60006001600084815260200190815260200160002060000160008373ffffffffffffffffffffffffffffffffffffffff1673ffffffffffffffffffffffffffffffffffffffff16815260200190815260200160002060009054906101000a900460ff16905092915050565b6000801b81565b61074b826103a3565b61075c81610757610895565b61089d565b6107668383610b2d565b505050565b7fd10feaa7fea55567e367a112bc53907318a50949442dfc0570945570c5af57cf81565b610797610895565b73ffffffffffffffffffffffffffffffffffffffff166107b56106a7565b73ffffffffffffffffffffffffffffffffffffffff161461080b576040517f08c379a00000000000000000000000000000000000000000000000000000000081526004016108029061147e565b60405180910390fd5b61081433610a1a565b61081d81610d7b565b610828816000610c0f565b50565b60007f01ffc9a7000000000000000000000000000000000000000000000000000000007bffffffffffffffffffffffffffffffffffffffffffffffffffffffff1916827bffffffffffffffffffffffffffffffffffffffffffffffffffffffff1916149050919050565b600033905090565b6108a782826106d0565b610936576108cc8173ffffffffffffffffffffffffffffffffffffffff166014610e73565b6108da8360001c6020610e73565b6040516020016108eb9291906116ae565b6040516020818303038152906040526040517f08c379a000000000000000000000000000000000000000000000000000000000815260040161092d9190611732565b60405180910390fd5b5050565b61094482826106d0565b610a1657600180600084815260200190815260200160002060000160008373ffffffffffffffffffffffffffffffffffffffff1673ffffffffffffffffffffffffffffffffffffffff16815260200190815260200160002060006101000a81548160ff0219169083151502179055506109bb610895565b73ffffffffffffffffffffffffffffffffffffffff168173ffffffffffffffffffffffffffffffffffffffff16837f2f8788117e7eff1d82e926ec794901d17c78024a50270940304540a733656f0d60405160405180910390a45b5050565b600073ffffffffffffffffffffffffffffffffffffffff168173ffffffffffffffffffffffffffffffffffffffff161415610a5457600080fd5b610a7e7fd10feaa7fea55567e367a112bc53907318a50949442dfc0570945570c5af57cf826106d0565b610abd576040517f08c379a0000000000000000000000000000000000000000000000000000000008152600401610ab4906117a0565b60405180910390fd5b610ae77fd10feaa7fea55567e367a112bc53907318a50949442dfc0570945570c5af57cf82610742565b8073ffffffffffffffffffffffffffffffffffffffff167f33a8bb468e8361c5c40d643192eb6970b91cb87aa0200f8709f5b805087b905360405160405180910390a250565b610b3782826106d0565b15610c0b5760006001600084815260200190815260200160002060000160008373ffffffffffffffffffffffffffffffffffffffff1673ffffffffffffffffffffffffffffffffffffffff16815260200190815260200160002060006101000a81548160ff021916908315150217905550610bb0610895565b73ffffffffffffffffffffffffffffffffffffffff168173ffffffffffffffffffffffffffffffffffffffff16837ff6391f5c32d9c69d2a47ea670b442974b53935d1edc7fd64eb21e047a839171b60405160405180910390a45b5050565b600073ffffffffffffffffffffffffffffffffffffffff168273ffffffffffffffffffffffffffffffffffffffff161415610c4957600080fd5b610c737fd10feaa7fea55567e367a112bc53907318a50949442dfc0570945570c5af57cf836106d0565b15610cb3576040517f08c379a0000000000000000000000000000000000000000000000000000000008152600401610caa9061180c565b60405180910390fd5b610cdd7fd10feaa7fea55567e367a112bc53907318a50949442dfc0570945570c5af57cf836103c3565b80600360008473ffffffffffffffffffffffffffffffffffffffff1673ffffffffffffffffffffffffffffffffffffffff16815260200190815260200160002060006101000a81548160ff0219169083151502179055508173ffffffffffffffffffffffffffffffffffffffff167f614c7c37719098320f845a142223983b9adcc4c3f2663971d5b0eb4c661a24e760405160405180910390a25050565b610d83610895565b73ffffffffffffffffffffffffffffffffffffffff16610da16106a7565b73ffffffffffffffffffffffffffffffffffffffff1614610df7576040517f08c379a0000000000000000000000000000000000000000000000000000000008152600401610dee9061147e565b60405180910390fd5b600073ffffffffffffffffffffffffffffffffffffffff168173ffffffffffffffffffffffffffffffffffffffff161415610e67576040517f08c379a0000000000000000000000000000000000000000000000000000000008152600401610e5e9061189e565b60405180910390fd5b610e70816110af565b50565b606060006002836002610e8691906118f7565b610e909190611951565b67ffffffffffffffff811115610ea957610ea86119a7565b5b6040519080825280601f01601f191660200182016040528015610edb5781602001600182028036833780820191505090505b5090507f300000000000000000000000000000000000000000000000000000000000000081600081518110610f1357610f126119d6565b5b60200101907effffffffffffffffffffffffffffffffffffffffffffffffffffffffffffff1916908160001a9053507f780000000000000000000000000000000000000000000000000000000000000081600181518110610f7757610f766119d6565b5b60200101907effffffffffffffffffffffffffffffffffffffffffffffffffffffffffffff1916908160001a90535060006001846002610fb791906118f7565b610fc19190611951565b90505b6001811115611061577f3031323334353637383961626364656600000000000000000000000000000000600f861660108110611003576110026119d6565b5b1a60f81b82828151811061101a576110196119d6565b5b60200101907effffffffffffffffffffffffffffffffffffffffffffffffffffffffffffff1916908160001a905350600485901c94508061105a90611a05565b9050610fc4565b50600084146110a5576040517f08c379a000000000000000000000000000000000000000000000000000000000815260040161109c90611a7b565b60405180910390fd5b8091505092915050565b60008060009054906101000a900473ffffffffffffffffffffffffffffffffffffffff169050816000806101000a81548173ffffffffffffffffffffffffffffffffffffffff021916908373ffffffffffffffffffffffffffffffffffffffff1602179055508173ffffffffffffffffffffffffffffffffffffffff168173ffffffffffffffffffffffffffffffffffffffff167f8be0079c531659141344cd1fd0a4f28419497f9722a3daafe3b4186f6b6457e060405160405180910390a35050565b600080fd5b60007fffffffff0000000000000000000000000000000000000000000000000000000082169050919050565b6111ad81611178565b81146111b857600080fd5b50565b6000813590506111ca816111a4565b92915050565b6000602082840312156111e6576111e5611173565b5b60006111f4848285016111bb565b91505092915050565b60008115159050919050565b611212816111fd565b82525050565b600060208201905061122d6000830184611209565b92915050565b600073ffffffffffffffffffffffffffffffffffffffff82169050919050565b600061125e82611233565b9050919050565b61126e81611253565b811461127957600080fd5b50565b60008135905061128b81611265565b92915050565b6000602082840312156112a7576112a6611173565b5b60006112b58482850161127c565b91505092915050565b6000819050919050565b6112d1816112be565b81146112dc57600080fd5b50565b6000813590506112ee816112c8565b92915050565b60006020828403121561130a57611309611173565b5b6000611318848285016112df565b91505092915050565b61132a816112be565b82525050565b60006020820190506113456000830184611321565b92915050565b6000806040838503121561136257611361611173565b5b6000611370858286016112df565b92505060206113818582860161127c565b9150509250929050565b611394816111fd565b811461139f57600080fd5b50565b6000813590506113b18161138b565b92915050565b600080604083850312156113ce576113cd611173565b5b60006113dc8582860161127c565b92505060206113ed858286016113a2565b9150509250929050565b61140081611253565b82525050565b600060208201905061141b60008301846113f7565b92915050565b600082825260208201905092915050565b7f4f776e61626c653a2063616c6c6572206973206e6f7420746865206f776e6572600082015250565b6000611468602083611421565b915061147382611432565b602082019050919050565b600060208201905081810360008301526114978161145b565b9050919050565b7f416363657373436f6e74726f6c3a2063616e206f6e6c792072656e6f756e636560008201527f20726f6c657320666f722073656c660000000000000000000000000000000000602082015250565b60006114fa602f83611421565b91506115058261149e565b604082019050919050565b60006020820190508181036000830152611529816114ed565b9050919050565b7f666f7262696464656e0000000000000000000000000000000000000000000000600082015250565b6000611566600983611421565b915061157182611530565b602082019050919050565b6000602082019050818103600083015261159581611559565b9050919050565b600081905092915050565b7f416363657373436f6e74726f6c3a206163636f756e7420000000000000000000600082015250565b60006115dd60178361159c565b91506115e8826115a7565b601782019050919050565b600081519050919050565b60005b8381101561161c578082015181840152602081019050611601565b8381111561162b576000848401525b50505050565b600061163c826115f3565b611646818561159c565b93506116568185602086016115fe565b80840191505092915050565b7f206973206d697373696e6720726f6c6520000000000000000000000000000000600082015250565b600061169860118361159c565b91506116a382611662565b601182019050919050565b60006116b9826115d0565b91506116c58285611631565b91506116d08261168b565b91506116dc8284611631565b91508190509392505050565b6000601f19601f8301169050919050565b6000611704826115f3565b61170e8185611421565b935061171e8185602086016115fe565b611727816116e8565b840191505092915050565b6000602082019050818103600083015261174c81846116f9565b905092915050565b7f4163636f756e74206973206e6f742061204772616e746f720000000000000000600082015250565b600061178a601883611421565b915061179582611754565b602082019050919050565b600060208201905081810360008301526117b98161177d565b9050919050565b7f4163636f756e742069732061204772616e746f72000000000000000000000000600082015250565b60006117f6601483611421565b9150611801826117c0565b602082019050919050565b60006020820190508181036000830152611825816117e9565b9050919050565b7f4f776e61626c653a206e6577206f776e657220697320746865207a65726f206160008201527f6464726573730000000000000000000000000000000000000000000000000000602082015250565b6000611888602683611421565b91506118938261182c565b604082019050919050565b600060208201905081810360008301526118b78161187b565b9050919050565b6000819050919050565b7f4e487b7100000000000000000000000000000000000000000000000000000000600052601160045260246000fd5b6000611902826118be565b915061190d836118be565b9250817fffffffffffffffffffffffffffffffffffffffffffffffffffffffffffffffff0483118215151615611946576119456118c8565b5b828202905092915050565b600061195c826118be565b9150611967836118be565b9250827fffffffffffffffffffffffffffffffffffffffffffffffffffffffffffffffff0382111561199c5761199b6118c8565b5b828201905092915050565b7f4e487b7100000000000000000000000000000000000000000000000000000000600052604160045260246000fd5b7f4e487b7100000000000000000000000000000000000000000000000000000000600052603260045260246000fd5b6000611a10826118be565b91506000821415611a2457611a236118c8565b5b600182039050919050565b7f537472696e67733a20686578206c656e67746820696e73756666696369656e74600082015250565b6000611a65602083611421565b9150611a7082611a2f565b602082019050919050565b60006020820190508181036000830152611a9481611a58565b905091905056fea2646970667358221220bf86e98762ee875909478e3a95a7aecd6928627700b1a106e8efbb0c937d94e964736f6c634300080b0033",
  "immutableReferences": {},
  "source": "// SPDX-License-Identifier: MIT\npragma solidity ^0.8.0;\n\nimport \"@openzeppelin/contracts/access/Ownable.sol\";\nimport \"@openzeppelin/contracts/access/AccessControl.sol\";\n\n/**\n * @dev GrantorRole trait\n *\n * This adds support for a role that allows creation of vesting token grants, allocated from the\n * role holder's wallet.\n *\n * NOTE: We have implemented a role model only the contract owner can assign/un-assign roles.\n * This is necessary to support enterprise software, which requires a permissions model in which\n * roles can be owner-administered, in contrast to a blockchain community approach in which\n * permissions can be self-administered. Therefore, this implementation replaces the self-service\n * \"renounce\" approach with one where only the owner is allowed to makes role changes.\n *\n * Owner is not allowed to renounce ownership, lest the contract go without administration. But\n * it is ok for owner to shed initially granted roles by removing role from self.\n */\ncontract GrantorRole is Ownable, AccessControl {\n    bool private constant OWNER_UNIFORM_GRANTOR_FLAG = false;\n\n    bytes32 public constant GRANTOR_ROLE = keccak256(\"GRANTOR_ROLE\");\n\n    event GrantorAdded(address indexed account);\n    event GrantorRemoved(address indexed account);\n\n    // Roles.Role private _grantors;\n    mapping(address => bool) private _grantors;\n    mapping(address => bool) private _isUniformGrantor;\n\n    constructor () {\n        _setupRole(GRANTOR_ROLE, msg.sender);\n        //_addGrantor(msg.sender, OWNER_UNIFORM_GRANTOR_FLAG);\n    }\n\n    modifier onlyGrantor() {\n        require(hasRole(GRANTOR_ROLE, msg.sender), \"Caller is not a Grantor\");\n        //require(isGrantor(msg.sender), \"onlyGrantor\");\n        _;\n    }\n\n    modifier onlyGrantorOrSelf(address account) {\n        require(hasRole(GRANTOR_ROLE, msg.sender) || msg.sender == account, \"Caller is not a Grantor or Self\");\n        //require(isGrantor(msg.sender) || msg.sender == account, \"onlyGrantorOrSelf\");\n        _;\n    }\n\n    function isGrantor(address account) public view returns (bool) {\n        return hasRole(GRANTOR_ROLE, account);\n    }\n\n    function addGrantor(address account, bool isThisUniformGrantor) public onlyOwner {\n        _addGrantor(account, isThisUniformGrantor);\n    }\n\n    function removeGrantor(address account) public onlyOwner {\n        _removeGrantor(account);\n    }\n\n    function _addGrantor(address account, bool isThisUniformGrantor) private {\n        require(account != address(0));\n        require(!hasRole(GRANTOR_ROLE, account), \"Account is a Grantor\");\n        //_grantors.add(account);\n        grantRole(GRANTOR_ROLE, account);\n        _isUniformGrantor[account] = isThisUniformGrantor;\n        emit GrantorAdded(account);\n    }\n\n    function _removeGrantor(address account) private {\n        require(account != address(0));\n        require(hasRole(GRANTOR_ROLE, account), \"Account is not a Grantor\");\n        //_grantors.remove(account);\n        revokeRole(GRANTOR_ROLE, account);\n        emit GrantorRemoved(account);\n    }\n\n    function isUniformGrantor(address account) public view returns (bool) {\n        return isGrantor(account) && _isUniformGrantor[account];\n    }\n\n    modifier onlyUniformGrantor() {\n        require(isUniformGrantor(msg.sender), \"onlyUniformGrantor\");\n        // Only grantor role can do this.\n        _;\n    }\n\n\n    // =========================================================================\n    // === Overridden ERC20 functionality\n    // =========================================================================\n\n    /**\n     * Ensure there is no way for the contract to end up with no owner. That would inadvertently result in\n     * token grant administration becoming impossible. We override this to always disallow it.\n     */\n    function renounceOwnership() public override view onlyOwner {\n        require(false, \"forbidden\");\n    }\n\n    /**\n     * @dev Allows the current owner to transfer control of the contract to a newOwner.\n     * @param newOwner The address to transfer ownership to.\n     */\n    function transferOwnership(address newOwner) public override onlyOwner {\n        _removeGrantor(msg.sender);\n        super.transferOwnership(newOwner);\n        _addGrantor(newOwner, OWNER_UNIFORM_GRANTOR_FLAG);\n    }\n}",
  "sourcePath": "/home/matifalcone/Blockchain/BSC/vesting2/contracts/GrantorRole.sol",
  "compiler": {
    "name": "solc",
    "version": "0.8.11+commit.d7f03943.Emscripten.clang"
  },
  "schemaVersion": "3.4.4",
  "updatedAt": "2022-02-09T05:07:19.755Z",
  "devdoc": {
    "details": "GrantorRole trait This adds support for a role that allows creation of vesting token grants, allocated from the role holder's wallet. NOTE: We have implemented a role model only the contract owner can assign/un-assign roles. This is necessary to support enterprise software, which requires a permissions model in which roles can be owner-administered, in contrast to a blockchain community approach in which permissions can be self-administered. Therefore, this implementation replaces the self-service \"renounce\" approach with one where only the owner is allowed to makes role changes. Owner is not allowed to renounce ownership, lest the contract go without administration. But it is ok for owner to shed initially granted roles by removing role from self.",
    "kind": "dev",
    "methods": {
      "getRoleAdmin(bytes32)": {
        "details": "Returns the admin role that controls `role`. See {grantRole} and {revokeRole}. To change a role's admin, use {_setRoleAdmin}."
      },
      "grantRole(bytes32,address)": {
        "details": "Grants `role` to `account`. If `account` had not been already granted `role`, emits a {RoleGranted} event. Requirements: - the caller must have ``role``'s admin role."
      },
      "hasRole(bytes32,address)": {
        "details": "Returns `true` if `account` has been granted `role`."
      },
      "owner()": {
        "details": "Returns the address of the current owner."
      },
      "renounceRole(bytes32,address)": {
        "details": "Revokes `role` from the calling account. Roles are often managed via {grantRole} and {revokeRole}: this function's purpose is to provide a mechanism for accounts to lose their privileges if they are compromised (such as when a trusted device is misplaced). If the calling account had been revoked `role`, emits a {RoleRevoked} event. Requirements: - the caller must be `account`."
      },
      "revokeRole(bytes32,address)": {
        "details": "Revokes `role` from `account`. If `account` had been granted `role`, emits a {RoleRevoked} event. Requirements: - the caller must have ``role``'s admin role."
      },
      "supportsInterface(bytes4)": {
        "details": "See {IERC165-supportsInterface}."
      },
      "transferOwnership(address)": {
        "details": "Allows the current owner to transfer control of the contract to a newOwner.",
        "params": {
          "newOwner": "The address to transfer ownership to."
        }
      }
    },
    "version": 1
  },
  "userdoc": {
    "kind": "user",
    "methods": {
      "renounceOwnership()": {
        "notice": "Ensure there is no way for the contract to end up with no owner. That would inadvertently result in token grant administration becoming impossible. We override this to always disallow it."
      }
    },
    "version": 1
  }
}