{
  "contractName": "Vesting",
  "abi": [
    {
      "inputs": [
        {
          "internalType": "contract IERC20",
          "name": "_token",
          "type": "address"
        },
        {
          "internalType": "uint32",
          "name": "_fee",
          "type": "uint32"
        },
        {
          "internalType": "address payable",
          "name": "_feeAccount",
          "type": "address"
        }
      ],
      "stateMutability": "nonpayable",
      "type": "constructor"
    },
    {
      "anonymous": false,
      "inputs": [
        {
          "indexed": true,
          "internalType": "address",
          "name": "grantHolder",
          "type": "address"
        },
        {
          "indexed": false,
          "internalType": "uint32",
          "name": "onDay",
          "type": "uint32"
        }
      ],
      "name": "GrantRevoked",
      "type": "event"
    },
    {
      "anonymous": false,
      "inputs": [
        {
          "indexed": false,
          "internalType": "address",
          "name": "from",
          "type": "address"
        },
        {
          "indexed": false,
          "internalType": "uint256",
          "name": "value",
          "type": "uint256"
        }
      ],
      "name": "ValueReceived",
      "type": "event"
    },
    {
      "anonymous": false,
      "inputs": [
        {
          "indexed": false,
          "internalType": "address",
          "name": "feeAccount",
          "type": "address"
        },
        {
          "indexed": false,
          "internalType": "uint256",
          "name": "amount",
          "type": "uint256"
        },
        {
          "indexed": false,
          "internalType": "uint256",
          "name": "fee",
          "type": "uint256"
        }
      ],
      "name": "VestingFeeCollected",
      "type": "event"
    },
    {
      "anonymous": false,
      "inputs": [
        {
          "indexed": true,
          "internalType": "address",
          "name": "beneficiary",
          "type": "address"
        },
        {
          "indexed": false,
          "internalType": "uint32",
          "name": "startDay",
          "type": "uint32"
        },
        {
          "indexed": false,
          "internalType": "uint32",
          "name": "cliffDuration",
          "type": "uint32"
        },
        {
          "indexed": false,
          "internalType": "uint32",
          "name": "duration",
          "type": "uint32"
        },
        {
          "indexed": false,
          "internalType": "uint32",
          "name": "interval",
          "type": "uint32"
        },
        {
          "indexed": false,
          "internalType": "uint256",
          "name": "amount",
          "type": "uint256"
        },
        {
          "indexed": false,
          "internalType": "bool",
          "name": "isActive",
          "type": "bool"
        }
      ],
      "name": "VestingScheduleCreated",
      "type": "event"
    },
    {
      "anonymous": false,
      "inputs": [
        {
          "indexed": true,
          "internalType": "address",
          "name": "beneficiary",
          "type": "address"
        },
        {
          "indexed": false,
          "internalType": "uint256",
          "name": "withdrawAmount",
          "type": "uint256"
        },
        {
          "indexed": false,
          "internalType": "uint256",
          "name": "pendingAmount",
          "type": "uint256"
        }
      ],
      "name": "VestingTokensGranted",
      "type": "event"
    },
    {
      "inputs": [
        {
          "internalType": "address",
          "name": "",
          "type": "address"
        }
      ],
      "name": "_vestingSchedules",
      "outputs": [
        {
          "internalType": "uint32",
          "name": "startDay",
          "type": "uint32"
        },
        {
          "internalType": "uint32",
          "name": "cliffDuration",
          "type": "uint32"
        },
        {
          "internalType": "uint32",
          "name": "duration",
          "type": "uint32"
        },
        {
          "internalType": "uint32",
          "name": "interval",
          "type": "uint32"
        },
        {
          "internalType": "uint256",
          "name": "amount",
          "type": "uint256"
        },
        {
          "internalType": "bool",
          "name": "isActive",
          "type": "bool"
        }
      ],
      "stateMutability": "view",
      "type": "function"
    },
    {
      "inputs": [],
      "name": "admin",
      "outputs": [
        {
          "internalType": "address",
          "name": "",
          "type": "address"
        }
      ],
      "stateMutability": "view",
      "type": "function"
    },
    {
      "inputs": [],
      "name": "fee",
      "outputs": [
        {
          "internalType": "uint32",
          "name": "",
          "type": "uint32"
        }
      ],
      "stateMutability": "view",
      "type": "function"
    },
    {
      "inputs": [],
      "name": "token",
      "outputs": [
        {
          "internalType": "contract IERC20",
          "name": "",
          "type": "address"
        }
      ],
      "stateMutability": "view",
      "type": "function"
    },
    {
      "stateMutability": "payable",
      "type": "receive"
    },
    {
      "inputs": [],
      "name": "vestingFee",
      "outputs": [
        {
          "internalType": "uint32",
          "name": "",
          "type": "uint32"
        }
      ],
      "stateMutability": "view",
      "type": "function"
    },
    {
      "inputs": [],
      "name": "vestingFeeAccount",
      "outputs": [
        {
          "internalType": "address",
          "name": "",
          "type": "address"
        }
      ],
      "stateMutability": "view",
      "type": "function"
    },
    {
      "inputs": [],
      "name": "vestingToken",
      "outputs": [
        {
          "internalType": "contract IERC20",
          "name": "",
          "type": "address"
        }
      ],
      "stateMutability": "view",
      "type": "function"
    },
    {
      "inputs": [
        {
          "internalType": "address",
          "name": "_beneficiary",
          "type": "address"
        },
        {
          "internalType": "uint32",
          "name": "_startDay",
          "type": "uint32"
        },
        {
          "internalType": "uint32",
          "name": "_cliffDuration",
          "type": "uint32"
        },
        {
          "internalType": "uint32",
          "name": "_duration",
          "type": "uint32"
        },
        {
          "internalType": "uint32",
          "name": "_interval",
          "type": "uint32"
        },
        {
          "internalType": "uint256",
          "name": "_amount",
          "type": "uint256"
        }
      ],
      "name": "addVestingSchedule",
      "outputs": [],
      "stateMutability": "payable",
      "type": "function"
    },
    {
      "inputs": [
        {
          "internalType": "address",
          "name": "_beneficiary",
          "type": "address"
        }
      ],
      "name": "getVestingSchedule",
      "outputs": [
        {
          "internalType": "uint32",
          "name": "startDay",
          "type": "uint32"
        },
        {
          "internalType": "uint32",
          "name": "cliffDuration",
          "type": "uint32"
        },
        {
          "internalType": "uint32",
          "name": "duration",
          "type": "uint32"
        },
        {
          "internalType": "uint32",
          "name": "interval",
          "type": "uint32"
        },
        {
          "internalType": "uint256",
          "name": "amount",
          "type": "uint256"
        },
        {
          "internalType": "bool",
          "name": "isActive",
          "type": "bool"
        }
      ],
      "stateMutability": "view",
      "type": "function"
    },
    {
      "inputs": [
        {
          "internalType": "address",
          "name": "_from",
          "type": "address"
        },
        {
          "internalType": "address",
          "name": "_to",
          "type": "address"
        }
      ],
      "name": "transferVestingSchedule",
      "outputs": [
        {
          "internalType": "bool",
          "name": "ok",
          "type": "bool"
        }
      ],
      "stateMutability": "payable",
      "type": "function"
    },
    {
      "inputs": [],
      "name": "withdraw",
      "outputs": [
        {
          "internalType": "bool",
          "name": "ok",
          "type": "bool"
        }
      ],
      "stateMutability": "payable",
      "type": "function"
    },
    {
      "inputs": [],
      "name": "today",
      "outputs": [
        {
          "internalType": "uint32",
          "name": "dayNumber",
          "type": "uint32"
        }
      ],
      "stateMutability": "view",
      "type": "function"
    },
    {
      "inputs": [
        {
          "internalType": "address",
          "name": "account",
          "type": "address"
        },
        {
          "internalType": "uint32",
          "name": "onDayOrToday",
          "type": "uint32"
        }
      ],
      "name": "vestingForAccountAsOf",
      "outputs": [
        {
          "internalType": "uint256",
          "name": "amountVested",
          "type": "uint256"
        },
        {
          "internalType": "uint256",
          "name": "amountNotVested",
          "type": "uint256"
        },
        {
          "internalType": "uint256",
          "name": "vestAmount",
          "type": "uint256"
        },
        {
          "internalType": "uint32",
          "name": "vestStartDay",
          "type": "uint32"
        },
        {
          "internalType": "uint32",
          "name": "vestDuration",
          "type": "uint32"
        },
        {
          "internalType": "uint32",
          "name": "cliffDuration",
          "type": "uint32"
        },
        {
          "internalType": "uint32",
          "name": "vestIntervalDays",
          "type": "uint32"
        },
        {
          "internalType": "bool",
          "name": "isActive",
          "type": "bool"
        }
      ],
      "stateMutability": "view",
      "type": "function"
    },
    {
      "inputs": [
        {
          "internalType": "uint32",
          "name": "onDayOrToday",
          "type": "uint32"
        }
      ],
      "name": "vestingAsOf",
      "outputs": [
        {
          "internalType": "uint256",
          "name": "amountVested",
          "type": "uint256"
        },
        {
          "internalType": "uint256",
          "name": "amountNotVested",
          "type": "uint256"
        },
        {
          "internalType": "uint256",
          "name": "vestAmount",
          "type": "uint256"
        },
        {
          "internalType": "uint32",
          "name": "vestStartDay",
          "type": "uint32"
        },
        {
          "internalType": "uint32",
          "name": "vestDuration",
          "type": "uint32"
        },
        {
          "internalType": "uint32",
          "name": "cliffDuration",
          "type": "uint32"
        },
        {
          "internalType": "uint32",
          "name": "vestIntervalDays",
          "type": "uint32"
        },
        {
          "internalType": "bool",
          "name": "isActive",
          "type": "bool"
        }
      ],
      "stateMutability": "view",
      "type": "function"
    },
    {
      "inputs": [
        {
          "internalType": "address",
          "name": "account",
          "type": "address"
        },
        {
          "internalType": "uint32",
          "name": "onDay",
          "type": "uint32"
        }
      ],
      "name": "revokeVesting",
      "outputs": [
        {
          "internalType": "bool",
          "name": "ok",
          "type": "bool"
        }
      ],
      "stateMutability": "nonpayable",
      "type": "function"
    }
  ],
  "bytecode": "0x60806040523480156200001157600080fd5b5060405162002eed38038062002eed833981810160405281019062000037919062000263565b600073ffffffffffffffffffffffffffffffffffffffff168373ffffffffffffffffffffffffffffffffffffffff1614156200007257600080fd5b33600160006101000a81548173ffffffffffffffffffffffffffffffffffffffff021916908373ffffffffffffffffffffffffffffffffffffffff16021790555081600260146101000a81548163ffffffff021916908363ffffffff16021790555080600260006101000a81548173ffffffffffffffffffffffffffffffffffffffff021916908373ffffffffffffffffffffffffffffffffffffffff16021790555082600360006101000a81548173ffffffffffffffffffffffffffffffffffffffff021916908373ffffffffffffffffffffffffffffffffffffffff160217905550505050620002bf565b600080fd5b600073ffffffffffffffffffffffffffffffffffffffff82169050919050565b6000620001918262000164565b9050919050565b6000620001a58262000184565b9050919050565b620001b78162000198565b8114620001c357600080fd5b50565b600081519050620001d781620001ac565b92915050565b600063ffffffff82169050919050565b620001f881620001dd565b81146200020457600080fd5b50565b6000815190506200021881620001ed565b92915050565b60006200022b8262000164565b9050919050565b6200023d816200021e565b81146200024957600080fd5b50565b6000815190506200025d8162000232565b92915050565b6000806000606084860312156200027f576200027e6200015f565b5b60006200028f86828701620001c6565b9350506020620002a28682870162000207565b9250506040620002b5868287016200024c565b9150509250925092565b612c1e80620002cf6000396000f3fe6080604052600436106100ec5760003560e01c80638334c1bf1161008a578063ddca3f4311610059578063ddca3f431461049b578063e6a3bd9e146104c6578063f851a44014610508578063fc0c546a1461053357610279565b80638334c1bf146103bf5780639f829063146103ea578063b74e452b1461042c578063d56ad0ba1461045757610279565b80631c8658b3116100c65780631c8658b3146103165780632455a035146103415780633ccfd60b1461038557806367fabe24146103a357610279565b806301768db81461027e5780631348ea70146102bb57806319d152fa146102eb57610279565b3661027957600034116100fe57600080fd5b7f7e71433ddf847725166244795048ecf3e3f9f35628254ecbf736056664233493333460405161012f929190611c6f565b60405180910390a160006101423461055e565b9050600360009054906101000a900473ffffffffffffffffffffffffffffffffffffffff1673ffffffffffffffffffffffffffffffffffffffff1663a9059cbb600260009054906101000a900473ffffffffffffffffffffffffffffffffffffffff16836040518363ffffffff1660e01b81526004016101c3929190611cf7565b6020604051808303816000875af11580156101e2573d6000803e3d6000fd5b505050506040513d601f19601f820116820180604052508101906102069190611d5d565b507f2e9bf097f305cb852feea513f46aaaa6fc5bb76743724251706c60b6c6815180600260009054906101000a900473ffffffffffffffffffffffffffffffffffffffff1634600260149054906101000a900463ffffffff1660405161026e93929190611dcb565b60405180910390a150005b600080fd5b34801561028a57600080fd5b506102a560048036038101906102a09190611e5a565b610598565b6040516102b29190611ea9565b60405180910390f35b6102d560048036038101906102d09190611ec4565b61087e565b6040516102e29190611ea9565b60405180910390f35b3480156102f757600080fd5b50610300610aea565b60405161030d9190611f25565b60405180910390f35b34801561032257600080fd5b5061032b610b14565b6040516103389190611f40565b60405180910390f35b34801561034d57600080fd5b5061036860048036038101906103639190611f5b565b610b3e565b60405161037c989796959493929190611f97565b60405180910390f35b61038d610b6f565b60405161039a9190611ea9565b60405180910390f35b6103bd60048036038101906103b89190612041565b610e11565b005b3480156103cb57600080fd5b506103d4611015565b6040516103e191906120ce565b60405180910390f35b3480156103f657600080fd5b50610411600480360381019061040c91906120e9565b61102f565b60405161042396959493929190612116565b60405180910390f35b34801561043857600080fd5b506104416112ee565b60405161044e91906120ce565b60405180910390f35b34801561046357600080fd5b5061047e60048036038101906104799190611e5a565b611304565b604051610492989796959493929190611f97565b60405180910390f35b3480156104a757600080fd5b506104b06114c5565b6040516104bd91906120ce565b60405180910390f35b3480156104d257600080fd5b506104ed60048036038101906104e891906120e9565b6114db565b6040516104ff96959493929190612116565b60405180910390f35b34801561051457600080fd5b5061051d611564565b60405161052a9190611f40565b60405180910390f35b34801561053f57600080fd5b5061054861158a565b6040516105559190611f25565b60405180910390f35b60006103e8600260149054906101000a900463ffffffff1663ffffffff168361058791906121a6565b610591919061222f565b9050919050565b6000600160009054906101000a900473ffffffffffffffffffffffffffffffffffffffff1673ffffffffffffffffffffffffffffffffffffffff163373ffffffffffffffffffffffffffffffffffffffff16148061062157503073ffffffffffffffffffffffffffffffffffffffff163373ffffffffffffffffffffffffffffffffffffffff16145b610660576040517f08c379a0000000000000000000000000000000000000000000000000000000008152600401610657906122e3565b60405180910390fd5b60008060008573ffffffffffffffffffffffffffffffffffffffff1673ffffffffffffffffffffffffffffffffffffffff16815260200190815260200160002090508060020160009054906101000a900460ff166106f3576040517f08c379a00000000000000000000000000000000000000000000000000000000081526004016106ea9061234f565b60405180910390fd5b8060000160089054906101000a900463ffffffff168160000160009054906101000a900463ffffffff16610727919061236f565b63ffffffff168363ffffffff161115610775576040517f08c379a000000000000000000000000000000000000000000000000000000000815260040161076c906123f5565b60405180910390fd5b61077d6112ee565b63ffffffff168363ffffffff1610156107cb576040517f08c379a00000000000000000000000000000000000000000000000000000000081526004016107c290612461565b60405180910390fd5b60008060008673ffffffffffffffffffffffffffffffffffffffff1673ffffffffffffffffffffffffffffffffffffffff16815260200190815260200160002060020160006101000a81548160ff0219169083151502179055508373ffffffffffffffffffffffffffffffffffffffff167f906c0c4c98565a396c542d9102cae7a794e84af6763123e068a1b277333bf4a48460405161086b91906120ce565b60405180910390a2600191505092915050565b600082600160009054906101000a900473ffffffffffffffffffffffffffffffffffffffff1673ffffffffffffffffffffffffffffffffffffffff163373ffffffffffffffffffffffffffffffffffffffff16148061090857508073ffffffffffffffffffffffffffffffffffffffff163373ffffffffffffffffffffffffffffffffffffffff16145b610947576040517f08c379a000000000000000000000000000000000000000000000000000000000815260040161093e906124cd565b60405180910390fd5b610950336115b0565b61098f576040517f08c379a000000000000000000000000000000000000000000000000000000000815260040161098690612539565b60405180910390fd5b610998836115b0565b6109d7576040517f08c379a00000000000000000000000000000000000000000000000000000000081526004016109ce906125cb565b60405180910390fd5b60008060003373ffffffffffffffffffffffffffffffffffffffff1673ffffffffffffffffffffffffffffffffffffffff16815260200190815260200160002090508060020160009054906101000a900460ff16610a6a576040517f08c379a0000000000000000000000000000000000000000000000000000000008152600401610a619061265d565b60405180910390fd5b610acc848260000160009054906101000a900463ffffffff168360000160049054906101000a900463ffffffff168460000160089054906101000a900463ffffffff1685600001600c9054906101000a900463ffffffff168660010154610e11565b610add85610ad86112ee565b610598565b5060019250505092915050565b6000600360009054906101000a900473ffffffffffffffffffffffffffffffffffffffff16905090565b6000600260009054906101000a900473ffffffffffffffffffffffffffffffffffffffff16905090565b600080600080600080600080610b54338a611304565b97509750975097509750975097509750919395975091939597565b6000610b7a336115b0565b610bb9576040517f08c379a0000000000000000000000000000000000000000000000000000000008152600401610bb090612539565b60405180910390fd5b60008060003373ffffffffffffffffffffffffffffffffffffffff1673ffffffffffffffffffffffffffffffffffffffff16815260200190815260200160002090508060000160049054906101000a900463ffffffff168160000160009054906101000a900463ffffffff16610c2f919061236f565b63ffffffff16610c3d6112ee565b63ffffffff161015610c84576040517f08c379a0000000000000000000000000000000000000000000000000000000008152600401610c7b906126ef565b60405180910390fd5b6000816001015411610c9557600080fd5b8060020160009054906101000a900460ff16610cb057600080fd5b6000610cc333610cbe6112ee565b611608565b905060008111610d08576040517f08c379a0000000000000000000000000000000000000000000000000000000008152600401610cff9061275b565b60405180910390fd5b600360009054906101000a900473ffffffffffffffffffffffffffffffffffffffff1673ffffffffffffffffffffffffffffffffffffffff1663a9059cbb33836040518363ffffffff1660e01b8152600401610d65929190611c6f565b6020604051808303816000875af1158015610d84573d6000803e3d6000fd5b505050506040513d601f19601f82011682018060405250810190610da89190611d5d565b503373ffffffffffffffffffffffffffffffffffffffff167fd4d6d82bf6e034534952089abb98bc3e058454f1219d797ae62275271a8eedc482838560010154610df2919061277b565b604051610e009291906127af565b60405180910390a260019250505090565b600160009054906101000a900473ffffffffffffffffffffffffffffffffffffffff1673ffffffffffffffffffffffffffffffffffffffff163373ffffffffffffffffffffffffffffffffffffffff161480610e9857503073ffffffffffffffffffffffffffffffffffffffff163373ffffffffffffffffffffffffffffffffffffffff16145b610ed7576040517f08c379a0000000000000000000000000000000000000000000000000000000008152600401610ece906122e3565b60405180910390fd5b610ee0866115b0565b15610f20576040517f08c379a0000000000000000000000000000000000000000000000000000000008152600401610f179061284a565b60405180910390fd5b80600360009054906101000a900473ffffffffffffffffffffffffffffffffffffffff1673ffffffffffffffffffffffffffffffffffffffff166370a08231306040518263ffffffff1660e01b8152600401610f7c9190611f40565b602060405180830381865afa158015610f99573d6000803e3d6000fd5b505050506040513d601f19601f82011682018060405250810190610fbd919061287f565b1015610ffe576040517f08c379a0000000000000000000000000000000000000000000000000000000008152600401610ff59061291e565b60405180910390fd5b61100c868686868686611673565b50505050505050565b6000600260149054906101000a900463ffffffff16905090565b60008060008060008086600160009054906101000a900473ffffffffffffffffffffffffffffffffffffffff1673ffffffffffffffffffffffffffffffffffffffff163373ffffffffffffffffffffffffffffffffffffffff1614806110c057508073ffffffffffffffffffffffffffffffffffffffff163373ffffffffffffffffffffffffffffffffffffffff16145b6110ff576040517f08c379a00000000000000000000000000000000000000000000000000000000081526004016110f6906124cd565b60405180910390fd5b6000808973ffffffffffffffffffffffffffffffffffffffff1673ffffffffffffffffffffffffffffffffffffffff16815260200190815260200160002060000160009054906101000a900463ffffffff166000808a73ffffffffffffffffffffffffffffffffffffffff1673ffffffffffffffffffffffffffffffffffffffff16815260200190815260200160002060000160049054906101000a900463ffffffff166000808b73ffffffffffffffffffffffffffffffffffffffff1673ffffffffffffffffffffffffffffffffffffffff16815260200190815260200160002060000160089054906101000a900463ffffffff166000808c73ffffffffffffffffffffffffffffffffffffffff1673ffffffffffffffffffffffffffffffffffffffff168152602001908152602001600020600001600c9054906101000a900463ffffffff166000808d73ffffffffffffffffffffffffffffffffffffffff1673ffffffffffffffffffffffffffffffffffffffff168152602001908152602001600020600101546000808e73ffffffffffffffffffffffffffffffffffffffff1673ffffffffffffffffffffffffffffffffffffffff16815260200190815260200160002060020160009054906101000a900460ff169650965096509650965096505091939550919395565b600062015180426112ff919061222f565b905090565b60008060008060008060008089600160009054906101000a900473ffffffffffffffffffffffffffffffffffffffff1673ffffffffffffffffffffffffffffffffffffffff163373ffffffffffffffffffffffffffffffffffffffff16148061139857508073ffffffffffffffffffffffffffffffffffffffff163373ffffffffffffffffffffffffffffffffffffffff16145b6113d7576040517f08c379a00000000000000000000000000000000000000000000000000000000081526004016113ce906124cd565b60405180910390fd5b60008060008d73ffffffffffffffffffffffffffffffffffffffff1673ffffffffffffffffffffffffffffffffffffffff168152602001908152602001600020905060006114258d8d611a1c565b9050600082600101549050818161143c919061277b565b82828560000160009054906101000a900463ffffffff168660000160089054906101000a900463ffffffff168760000160049054906101000a900463ffffffff1688600001600c9054906101000a900463ffffffff168960020160009054906101000a900460ff169b509b509b509b509b509b509b509b50505050509295985092959890939650565b600260149054906101000a900463ffffffff1681565b60006020528060005260406000206000915090508060000160009054906101000a900463ffffffff16908060000160049054906101000a900463ffffffff16908060000160089054906101000a900463ffffffff169080600001600c9054906101000a900463ffffffff16908060010154908060020160009054906101000a900460ff16905086565b600160009054906101000a900473ffffffffffffffffffffffffffffffffffffffff1681565b600360009054906101000a900473ffffffffffffffffffffffffffffffffffffffff1681565b60008060008373ffffffffffffffffffffffffffffffffffffffff1673ffffffffffffffffffffffffffffffffffffffff16815260200190815260200160002060020160009054906101000a900460ff169050919050565b6000806000803373ffffffffffffffffffffffffffffffffffffffff1673ffffffffffffffffffffffffffffffffffffffff168152602001908152602001600020600101549050600061165b8585611a1c565b82611666919061277b565b9050809250505092915050565b6000808463ffffffff161180156116925750610e448463ffffffff1611155b80156116a957508363ffffffff168563ffffffff16105b80156116bc575060018363ffffffff1610155b6116fb576040517f08c379a00000000000000000000000000000000000000000000000000000000081526004016116f29061298a565b60405180910390fd5b6000838561170991906129aa565b63ffffffff1614801561172d57506000838661172591906129aa565b63ffffffff16145b61176c576040517f08c379a000000000000000000000000000000000000000000000000000000000815260040161176390612a4d565b60405180910390fd5b6000808873ffffffffffffffffffffffffffffffffffffffff1673ffffffffffffffffffffffffffffffffffffffff16815260200190815260200160002060020160009054906101000a900460ff16156117fb576040517f08c379a00000000000000000000000000000000000000000000000000000000081526004016117f290612ab9565b60405180910390fd5b6000821180156118135750612acd8663ffffffff1610155b801561182757506205bd888663ffffffff16105b611866576040517f08c379a000000000000000000000000000000000000000000000000000000000815260040161185d90612b25565b60405180910390fd5b6040518060c001604052808763ffffffff1681526020018663ffffffff1681526020018563ffffffff1681526020018463ffffffff168152602001838152602001600115158152506000808973ffffffffffffffffffffffffffffffffffffffff1673ffffffffffffffffffffffffffffffffffffffff16815260200190815260200160002060008201518160000160006101000a81548163ffffffff021916908363ffffffff16021790555060208201518160000160046101000a81548163ffffffff021916908363ffffffff16021790555060408201518160000160086101000a81548163ffffffff021916908363ffffffff160217905550606082015181600001600c6101000a81548163ffffffff021916908363ffffffff1602179055506080820151816001015560a08201518160020160006101000a81548160ff0219169083151502179055509050508673ffffffffffffffffffffffffffffffffffffffff167f124f4bf1fedb09ae96e0f25b747f6497207cca1234e695f0f7089f25389c28bb87878787876001604051611a0696959493929190612116565b60405180910390a2600190509695505050505050565b6000806000808573ffffffffffffffffffffffffffffffffffffffff1673ffffffffffffffffffffffffffffffffffffffff16815260200190815260200160002090506000611a6a84611bf0565b90508160020160009054906101000a900460ff161580611ac857508160000160049054906101000a900463ffffffff168260000160009054906101000a900463ffffffff16611ab9919061236f565b63ffffffff168163ffffffff16105b15611adb57816001015492505050611bea565b8160000160089054906101000a900463ffffffff168260000160009054906101000a900463ffffffff16611b0f919061236f565b63ffffffff168163ffffffff1610611b2c57600092505050611bea565b60008260000160009054906101000a900463ffffffff1682611b4e9190612b45565b9050600083600001600c9054906101000a900463ffffffff1684600001600c9054906101000a900463ffffffff1683611b879190612b79565b611b919190612baa565b905060008460000160089054906101000a900463ffffffff1663ffffffff168263ffffffff168660010154611bc691906121a6565b611bd0919061222f565b9050808560010154611be2919061277b565b955050505050505b92915050565b6000808263ffffffff1614611c055781611c0e565b611c0d6112ee565b5b9050919050565b600073ffffffffffffffffffffffffffffffffffffffff82169050919050565b6000611c4082611c15565b9050919050565b611c5081611c35565b82525050565b6000819050919050565b611c6981611c56565b82525050565b6000604082019050611c846000830185611c47565b611c916020830184611c60565b9392505050565b6000819050919050565b6000611cbd611cb8611cb384611c15565b611c98565b611c15565b9050919050565b6000611ccf82611ca2565b9050919050565b6000611ce182611cc4565b9050919050565b611cf181611cd6565b82525050565b6000604082019050611d0c6000830185611ce8565b611d196020830184611c60565b9392505050565b600080fd5b60008115159050919050565b611d3a81611d25565b8114611d4557600080fd5b50565b600081519050611d5781611d31565b92915050565b600060208284031215611d7357611d72611d20565b5b6000611d8184828501611d48565b91505092915050565b600063ffffffff82169050919050565b6000611db5611db0611dab84611d8a565b611c98565b611c56565b9050919050565b611dc581611d9a565b82525050565b6000606082019050611de06000830186611ce8565b611ded6020830185611c60565b611dfa6040830184611dbc565b949350505050565b611e0b81611c35565b8114611e1657600080fd5b50565b600081359050611e2881611e02565b92915050565b611e3781611d8a565b8114611e4257600080fd5b50565b600081359050611e5481611e2e565b92915050565b60008060408385031215611e7157611e70611d20565b5b6000611e7f85828601611e19565b9250506020611e9085828601611e45565b9150509250929050565b611ea381611d25565b82525050565b6000602082019050611ebe6000830184611e9a565b92915050565b60008060408385031215611edb57611eda611d20565b5b6000611ee985828601611e19565b9250506020611efa85828601611e19565b9150509250929050565b6000611f0f82611cc4565b9050919050565b611f1f81611f04565b82525050565b6000602082019050611f3a6000830184611f16565b92915050565b6000602082019050611f556000830184611c47565b92915050565b600060208284031215611f7157611f70611d20565b5b6000611f7f84828501611e45565b91505092915050565b611f9181611d8a565b82525050565b600061010082019050611fad600083018b611c60565b611fba602083018a611c60565b611fc76040830189611c60565b611fd46060830188611f88565b611fe16080830187611f88565b611fee60a0830186611f88565b611ffb60c0830185611f88565b61200860e0830184611e9a565b9998505050505050505050565b61201e81611c56565b811461202957600080fd5b50565b60008135905061203b81612015565b92915050565b60008060008060008060c0878903121561205e5761205d611d20565b5b600061206c89828a01611e19565b965050602061207d89828a01611e45565b955050604061208e89828a01611e45565b945050606061209f89828a01611e45565b93505060806120b089828a01611e45565b92505060a06120c189828a0161202c565b9150509295509295509295565b60006020820190506120e36000830184611f88565b92915050565b6000602082840312156120ff576120fe611d20565b5b600061210d84828501611e19565b91505092915050565b600060c08201905061212b6000830189611f88565b6121386020830188611f88565b6121456040830187611f88565b6121526060830186611f88565b61215f6080830185611c60565b61216c60a0830184611e9a565b979650505050505050565b7f4e487b7100000000000000000000000000000000000000000000000000000000600052601160045260246000fd5b60006121b182611c56565b91506121bc83611c56565b9250817fffffffffffffffffffffffffffffffffffffffffffffffffffffffffffffffff04831182151516156121f5576121f4612177565b5b828202905092915050565b7f4e487b7100000000000000000000000000000000000000000000000000000000600052601260045260246000fd5b600061223a82611c56565b915061224583611c56565b92508261225557612254612200565b5b828204905092915050565b600082825260208201905092915050565b7f6f6e6c792061646d696e206f7220636f6e74726163742063616e2063616c6c2060008201527f746869732066756e6374696f6e00000000000000000000000000000000000000602082015250565b60006122cd602d83612260565b91506122d882612271565b604082019050919050565b600060208201905081810360008301526122fc816122c0565b9050919050565b7f6e6f206163746976652076657374696e67000000000000000000000000000000600082015250565b6000612339601183612260565b915061234482612303565b602082019050919050565b600060208201905081810360008301526123688161232c565b9050919050565b600061237a82611d8a565b915061238583611d8a565b92508263ffffffff0382111561239e5761239d612177565b5b828201905092915050565b7f6e6f206566666563740000000000000000000000000000000000000000000000600082015250565b60006123df600983612260565b91506123ea826123a9565b602082019050919050565b6000602082019050818103600083015261240e816123d2565b9050919050565b7f63616e6e6f74207265766f6b652076657374656420686f6c64696e6773000000600082015250565b600061244b601d83612260565b915061245682612415565b602082019050919050565b6000602082019050818103600083015261247a8161243e565b9050919050565b7f63616c6c6572206973206e6f74207468652041646d696e206f722053656c6600600082015250565b60006124b7601f83612260565b91506124c282612481565b602082019050919050565b600060208201905081810360008301526124e6816124aa565b9050919050565b7f6e6f2076657374696e67207363686564756c6520666f722063616c6c65720000600082015250565b6000612523601e83612260565b915061252e826124ed565b602082019050919050565b6000602082019050818103600083015261255281612516565b9050919050565b7f746865206e65772062656e656669636961727920616c7265616479206861732060008201527f612076657374696e67207363686564756c650000000000000000000000000000602082015250565b60006125b5603283612260565b91506125c082612559565b604082019050919050565b600060208201905081810360008301526125e4816125a8565b9050919050565b7f7468652076657374696e67207363686564756c6520796f752077616e7420746f60008201527f207472616e73666572206973206e6f7420616374697665000000000000000000602082015250565b6000612647603783612260565b9150612652826125eb565b604082019050919050565b600060208201905081810360008301526126768161263a565b9050919050565b7f746f6f206561726c7920746f207769746864726177206f7220636c696666206e60008201527f6f742066696e6973686564000000000000000000000000000000000000000000602082015250565b60006126d9602b83612260565b91506126e48261267d565b604082019050919050565b60006020820190508181036000830152612708816126cc565b9050919050565b7f6e6f20746f6b656e7320617661696c61626c6520746f20776974686472617700600082015250565b6000612745601f83612260565b91506127508261270f565b602082019050919050565b6000602082019050818103600083015261277481612738565b9050919050565b600061278682611c56565b915061279183611c56565b9250828210156127a4576127a3612177565b5b828203905092915050565b60006040820190506127c46000830185611c60565b6127d16020830184611c60565b9392505050565b7f76657374696e67207363686564756c6520616c7265616479206578697374732060008201527f666f7220676976656e2062656e65666963696172790000000000000000000000602082015250565b6000612834603583612260565b915061283f826127d8565b604082019050919050565b6000602082019050818103600083015261286381612827565b9050919050565b60008151905061287981612015565b92915050565b60006020828403121561289557612894611d20565b5b60006128a38482850161286a565b91505092915050565b7f706c6561736520616c6c6f636174652074686520746f6b656e7320746f20746860008201527f6520636f6e747261637400000000000000000000000000000000000000000000602082015250565b6000612908602a83612260565b9150612913826128ac565b604082019050919050565b60006020820190508181036000830152612937816128fb565b9050919050565b7f696e76616c69642076657374696e67207363686564756c650000000000000000600082015250565b6000612974601883612260565b915061297f8261293e565b602082019050919050565b600060208201905081810360008301526129a381612967565b9050919050565b60006129b582611d8a565b91506129c083611d8a565b9250826129d0576129cf612200565b5b828206905092915050565b7f696e76616c696420636c6966662f6475726174696f6e20666f7220696e74657260008201527f76616c0000000000000000000000000000000000000000000000000000000000602082015250565b6000612a37602383612260565b9150612a42826129db565b604082019050919050565b60006020820190508181036000830152612a6681612a2a565b9050919050565b7f6772616e7420616c726561647920657869737473000000000000000000000000600082015250565b6000612aa3601483612260565b9150612aae82612a6d565b602082019050919050565b60006020820190508181036000830152612ad281612a96565b9050919050565b7f696e76616c69642076657374696e6720706172616d7300000000000000000000600082015250565b6000612b0f601683612260565b9150612b1a82612ad9565b602082019050919050565b60006020820190508181036000830152612b3e81612b02565b9050919050565b6000612b5082611d8a565b9150612b5b83611d8a565b925082821015612b6e57612b6d612177565b5b828203905092915050565b6000612b8482611d8a565b9150612b8f83611d8a565b925082612b9f57612b9e612200565b5b828204905092915050565b6000612bb582611d8a565b9150612bc083611d8a565b92508163ffffffff0483118215151615612bdd57612bdc612177565b5b82820290509291505056fea26469706673582212200424da94102707e54395b83e15e41871039db099ee413cdc100ecedf81c869c664736f6c634300080b0033",
  "immutableReferences": {},
  "source": "// SPDX-License-Identifier: MIT\npragma solidity ^0.8.0;\n\nimport \"@openzeppelin/contracts/token/ERC20/IERC20.sol\";\n\ncontract Vesting {\n\n    // Structs\n    struct VestingSchedule {\n        uint32 startDay; /* Start day of the grant, in days since the UNIX epoch (start of day). */\n        uint32 cliffDuration; /* Duration of the cliff, with respect to the grant start day, in days. */\n        uint32 duration; /* Duration of the vesting schedule, with respect to the grant start day, in days. */\n        uint32 interval; /* Duration in days of the vesting interval. */\n        uint256 amount; /* Total number of tokens that vest. */\n        bool isActive;\n    }\n\n    // Mappings\n    mapping(address => VestingSchedule) public _vestingSchedules;\n\n    // // Date-related constants for sanity-checking dates to reject obvious erroneous inputs\n    // // and conversions from seconds to days and years that are more or less leap year-aware.\n    // uint32 private constant THOUSAND_YEARS_DAYS = 365243; /* See https://www.timeanddate.com/date/durationresult.html?m1=1&d1=1&y1=2000&m2=1&d2=1&y2=3000 */\n    // uint32 private constant TEN_YEARS_DAYS = THOUSAND_YEARS_DAYS / 100; /* Includes leap years (though it doesn't really matter) */\n    // uint32 private constant JAN_1_2000_DAYS = 946684800 / (24 * 60 * 60);\n    // uint32 private constant JAN_1_3000_DAYS = JAN_1_2000_DAYS + 365243;\n\n    // Events\n    event VestingScheduleCreated(\n        address indexed beneficiary,\n        uint32 startDay,\n        uint32 cliffDuration,\n        uint32 duration,\n        uint32 interval,\n        uint256 amount,\n        bool isActive\n    );\n\n    event GrantRevoked(\n        address indexed grantHolder, \n        uint32 onDay\n    );\n\n    event VestingTokensGranted(\n        address indexed beneficiary,\n        uint256 withdrawAmount,\n        uint256 pendingAmount\n    );\n\n    event ValueReceived(\n        address from,\n        uint256 value\n    );\n\n    event VestingFeeCollected(\n        address feeAccount,\n        uint256 amount,\n        uint256 fee\n    );\n\n    // Global variables\n    address public admin;\n    address payable feeAccount;\n    uint32 public fee;\n    IERC20 public token;\n    \n    constructor(IERC20 _token, uint32 _fee, address payable _feeAccount) {\n        require(address(_token) != address(0));\n        admin = msg.sender;\n        fee = _fee;\n        feeAccount = _feeAccount;\n        token = _token;\n    }\n\n    receive() external payable {\n        require(msg.value > 0);\n        emit ValueReceived(msg.sender, msg.value);\n        uint256 contractFee = calculateFee(msg.value);\n        token.transfer(feeAccount, contractFee);\n        emit VestingFeeCollected(feeAccount, msg.value, fee);\n    }\n\n    // ============================================================================\n    // === Methods for administratively creating a vesting schedule for an account.\n    // ============================================================================\n    \n    function calculateFee(uint256 amount) internal view returns (uint256 __fee) {\n        __fee = amount * fee / 1000;\n        return __fee;\n    }\n\n    function vestingFee() public view virtual returns (uint32) {\n        return fee;\n    }\n\n    function vestingFeeAccount() public view virtual returns (address) {\n        return feeAccount;\n    }\n\n    function vestingToken() public view virtual returns (IERC20) {\n        return token;\n    }\n\n    function addVestingSchedule(\n        address _beneficiary,\n        uint32 _startDay,\n        uint32 _cliffDuration,\n        uint32 _duration,\n        uint32 _interval,\n        uint256 _amount\n    ) public payable onlyAdminOrContract {\n        require(\n            !hasVestingSchedule(_beneficiary),\n            \"vesting schedule already exists for given beneficiary\"\n        );\n        // Check that the contract has the balance allocated before setting the vesting\n        // PENDING\n\n        require(token.balanceOf(address(this)) >= _amount, \"please allocate the tokens to the contract\");\n\n        setVestingSchedule(\n            _beneficiary,\n            _startDay,\n            _cliffDuration,\n            _duration,\n            _interval,\n            _amount\n        );\n\n    }\n\n    modifier onlyAdmin() {\n        // Distinguish insufficient overall balance from insufficient vested funds balance in failure msg.\n        require(msg.sender == admin, \"only admin can call this function\");\n        _;\n    }\n\n    modifier onlyAdminOrContract() {\n        // Distinguish insufficient overall balance from insufficient vested funds balance in failure msg.\n        require(msg.sender == admin || msg.sender == address(this), \"only admin or contract can call this function\");\n        _;\n    }\n\n    function hasVestingSchedule(address account)\n        internal\n        view\n        returns (bool ok)\n    {\n        return _vestingSchedules[account].isActive;\n    }\n\n    function setVestingSchedule(\n        address _beneficiary,\n        uint32 _startDay, /* Start day of the grant, in days since the UNIX epoch (start of day). */\n        uint32 _cliffDuration, /* Duration of the cliff, with respect to the grant start day, in days. */\n        uint32 _duration, /* Duration of the vesting schedule, with respect to the grant start day, in days. */\n        uint32 _interval, /* Duration in days of the vesting interval. */\n        uint256 _amount /* Total number of tokens that vest. */\n    ) internal returns (bool ok) {\n        // Check for a valid vesting schedule given (disallow absurd values to reject likely bad input).\n        require(\n            _duration > 0 &&\n                //_duration <= TEN_YEARS_DAYS &&\n                _duration <= 3652 &&\n                _cliffDuration < _duration &&\n                _interval >= 1,\n            \"invalid vesting schedule\"\n        );\n\n        // Make sure the duration values are in harmony with interval (both should be an exact multiple of interval).\n        require(\n            _duration % _interval == 0 && _cliffDuration % _interval == 0,\n            \"invalid cliff/duration for interval\"\n        );\n\n        // Make sure no prior vesting is in effect for this beneficiary\n        require(!_vestingSchedules[_beneficiary].isActive, \"grant already exists\");\n\n        // Check for valid vestingAmount\n        require(\n                _amount > 0 &&\n                //_startDay >= JAN_1_2000_DAYS &&\n                //_startDay < JAN_1_3000_DAYS,\n                _startDay >= 10957 &&\n                _startDay < 376200,\n            \"invalid vesting params\"\n        );\n\n        // Create and populate a vesting schedule.\n        _vestingSchedules[_beneficiary] = VestingSchedule(\n            _startDay,\n            _cliffDuration,\n            _duration,\n            _interval,\n            _amount,\n            true /*isActive*/\n        );\n\n        // Emit the event and return success.\n        emit VestingScheduleCreated(\n            _beneficiary,\n            _startDay,\n            _cliffDuration,\n            _duration,\n            _interval,\n            _amount,\n            true /*isActive*/\n        );\n\n        return true;\n    }\n\n    function getVestingSchedule(address _beneficiary)\n        public\n        view\n        onlyAdminOrSelf(_beneficiary)\n        returns (\n            uint32 startDay,\n            uint32 cliffDuration,\n            uint32 duration,\n            uint32 interval,\n            uint256 amount,\n            bool isActive\n        )\n    {\n        return (\n            _vestingSchedules[_beneficiary].startDay,\n            _vestingSchedules[_beneficiary].cliffDuration,\n            _vestingSchedules[_beneficiary].duration,\n            _vestingSchedules[_beneficiary].interval,\n            _vestingSchedules[_beneficiary].amount,\n            _vestingSchedules[_beneficiary].isActive\n        );\n    }\n\n    modifier onlyAdminOrSelf(address _account) {\n        require(\n            msg.sender == admin || msg.sender == _account,\n            \"caller is not the Admin or Self\"\n        );\n        _;\n    }\n\n    function transferVestingSchedule(address _from, address _to) onlyAdminOrSelf(_from) external payable returns (bool ok) {\n        require(hasVestingSchedule(msg.sender), \"no vesting schedule for caller\");\n        require(hasVestingSchedule(_to), \"the new beneficiary already has a vesting schedule\");\n        VestingSchedule storage vesting = _vestingSchedules[msg.sender];\n        require(vesting.isActive, \"the vesting schedule you want to transfer is not active\");\n        // Create a new vesting schedule for the new beneficiary with the same information as the original vesting schedule\n        addVestingSchedule(_to, vesting.startDay, vesting.cliffDuration, vesting.duration, vesting.interval, vesting.amount);\n        // Mark the original vesting schedule as inactive\n        revokeVesting(_from, today());\n        return true;\n    }\n\n    function withdraw() external payable returns (bool ok) {\n        require(hasVestingSchedule(msg.sender), \"no vesting schedule for caller\");\n        VestingSchedule storage vesting = _vestingSchedules[msg.sender];\n        require(\n            today() >= vesting.startDay + vesting.cliffDuration,\n            \"too early to withdraw or cliff not finished\"\n        );\n        require(vesting.amount > 0);\n        require(vesting.isActive);\n        uint256 vestedAmount = getVestedAmount(msg.sender, today());\n        require(vestedAmount > 0, \"no tokens available to withdraw\");\n        token.transfer(msg.sender, vestedAmount);\n        /* Emits the VestingTokensGranted event. */\n        emit VestingTokensGranted(msg.sender, vestedAmount, vesting.amount - vestedAmount);\n        return true;\n    }\n\n    function getVestedAmount(address account, uint32 onDay)\n        internal\n        view\n        returns (uint256 amountAvailable)\n    {\n        uint256 totalTokens = _vestingSchedules[msg.sender].amount;\n        uint256 vested = totalTokens - getNotVestedAmount(account, onDay);\n        return vested;\n    }\n\n    /**\n     * @dev Determines the amount of tokens that have not vested in the given account.\n     *\n     * The math is: not vested amount = vesting amount * (end date - on date)/(end date - start date)\n     *\n     * @param account = The account to check.\n     * @param onDayOrToday = The day to check for, in days since the UNIX epoch. Can pass\n     *   the special value 0 to indicate today.\n     */\n    function getNotVestedAmount(address account, uint32 onDayOrToday)\n        internal\n        view\n        returns (uint256 amountNotVested)\n    {\n        VestingSchedule storage vesting = _vestingSchedules[account];\n        uint32 onDay = _effectiveDay(onDayOrToday);\n\n        // If there's no schedule, or before the vesting cliff, then the full amount is not vested.\n        if (\n            !vesting.isActive || onDay < vesting.startDay + vesting.cliffDuration\n        ) {\n            // None are vested (all are not vested)\n            return vesting.amount;\n        }\n        // If after end of vesting, then the not vested amount is zero (all are vested).\n        else if (onDay >= vesting.startDay + vesting.duration) {\n            // All are vested (none are not vested)\n            return uint256(0);\n        }\n        // Otherwise a fractional amount is vested.\n        else {\n            // Compute the exact number of days vested.\n            uint32 daysVested = onDay - vesting.startDay;\n            // Adjust result rounding down to take into consideration the interval.\n            uint32 effectiveDaysVested = (daysVested / vesting.interval) *\n                vesting.interval;\n\n            // Compute the fraction vested from schedule using 224.32 fixed point math for date range ratio.\n            // Note: This is safe in 256-bit math because max value of X billion tokens = X*10^27 wei, and\n            // typical token amounts can fit into 90 bits. Scaling using a 32 bits value results in only 125\n            // bits before reducing back to 90 bits by dividing. There is plenty of room left, even for token\n            // amounts many orders of magnitude greater than mere billions.\n            //uint256 vested = grant.amount.mul(effectiveDaysVested).div(vesting.duration);\n            uint256 vested = (vesting.amount * effectiveDaysVested) /\n                vesting.duration;\n            //return grant.amount.sub(vested);\n            return vesting.amount - vested;\n        }\n    }\n\n    // =========================================================================\n    // === Check vesting.\n    // =========================================================================\n\n    /**\n     * @dev returns the day number of the current day, in days since the UNIX epoch.\n     */\n    function today() public view returns (uint32 dayNumber) {\n        return uint32(block.timestamp / (24 * 60 * 60)); // Seconds per day\n    }\n\n    function _effectiveDay(uint32 onDayOrToday)\n        internal\n        view\n        returns (uint32 dayNumber)\n    {\n        return onDayOrToday == 0 ? today() : onDayOrToday;\n    }\n\n    /***\n     * @dev returns all information about the grant's vesting as of the given day\n     * for the given account. Only callable by the account holder or a grantor, so\n     * this is mainly intended for administrative use.\n     *\n     * @param grantHolder = The address to do this for.\n     * @param onDayOrToday = The day to check for, in days since the UNIX epoch. Can pass\n     *   the special value 0 to indicate today.\n     * @return = A tuple with the following values:\n     *   amountVested = the amount out of vestingAmount that is vested\n     *   amountNotVested = the amount that is vested (equal to vestingAmount - vestedAmount)\n     *   amountOfGrant = the amount of tokens subject to vesting.\n     *   vestStartDay = starting day of the grant (in days since the UNIX epoch).\n     *   vestDuration = grant duration in days.\n     *   cliffDuration = duration of the cliff.\n     *   vestIntervalDays = number of days between vesting periods.\n     *   isActive = true if the vesting schedule is currently active.\n     */\n    function vestingForAccountAsOf(address account, uint32 onDayOrToday)\n        public\n        view\n        onlyAdminOrSelf(account)\n        returns (\n            uint256 amountVested,\n            uint256 amountNotVested,\n            uint256 vestAmount,\n            uint32 vestStartDay,\n            uint32 vestDuration,\n            uint32 cliffDuration,\n            uint32 vestIntervalDays,\n            bool isActive\n        )\n    {\n        VestingSchedule storage vesting = _vestingSchedules[account];\n        uint256 notVestedAmount = getNotVestedAmount(account, onDayOrToday);\n        uint256 vestingAmount = vesting.amount;\n\n        return (\n            vestingAmount - notVestedAmount,\n            notVestedAmount,\n            vestingAmount,\n            vesting.startDay,\n            vesting.duration,\n            vesting.cliffDuration,\n            vesting.interval,\n            vesting.isActive\n        );\n    }\n\n    /***\n     * @dev returns all information about the grant's vesting as of the given day\n     * for the current account, to be called by the account holder.\n     *\n     * @param onDayOrToday = The day to check for, in days since the UNIX epoch. Can pass\n     *   the special value 0 to indicate today.\n     * @return = A tuple with the following values:\n     *   amountVested = the amount out of vestingAmount that is vested\n     *   amountNotVested = the amount that is vested (equal to vestingAmount - vestedAmount)\n     *   amountOfGrant = the amount of tokens subject to vesting.\n     *   vestStartDay = starting day of the grant (in days since the UNIX epoch).\n     *   cliffDuration = duration of the cliff.\n     *   vestDuration = grant duration in days.\n     *   vestIntervalDays = number of days between vesting periods.\n     *   isActive = true if the vesting schedule is currently active.\n     *   wasRevoked = true if the vesting schedule was revoked.\n     */\n    function vestingAsOf(uint32 onDayOrToday)\n        public\n        view\n        returns (\n            uint256 amountVested,\n            uint256 amountNotVested,\n            uint256 vestAmount,\n            uint32 vestStartDay,\n            uint32 vestDuration,\n            uint32 cliffDuration,\n            uint32 vestIntervalDays,\n            bool isActive\n        )\n    {\n        return vestingForAccountAsOf(msg.sender, onDayOrToday);\n    }\n\n    /**\n     * @dev returns true if the account has sufficient funds available to cover the given amount,\n     *   including consideration for vesting tokens.\n     *\n     * @param account = The account to check.\n     * @param amount = The required amount of vested funds.\n     * @param onDay = The day to check for, in days since the UNIX epoch.\n     */\n    function _fundsAreAvailableOn(\n        address account,\n        uint256 amount,\n        uint32 onDay\n    ) internal view returns (bool ok) {\n        return (amount <= getVestedAmount(account, onDay));\n    }\n\n    // =========================================================================\n    // === Grant revocation\n    // =========================================================================\n\n    /***\n     * @dev If the account has a revocable grant, this forces the grant to end based on computing\n     * the amount vested up to the given date. All tokens that would no longer vest are returned\n     * to the account of the original grantor.\n     *\n     * @param grantHolder = Address to which tokens will be granted.\n     * @param onDay = The date upon which the vesting schedule will be effectively terminated,\n     *   in days since the UNIX epoch (start of day).\n     */\n    function revokeVesting(address account, uint32 onDay) public onlyAdminOrContract\n        returns (bool ok)\n    {\n        VestingSchedule storage vesting = _vestingSchedules[account];\n        //uint256 notVestedAmount;\n\n        // Make sure a vesting schedule has previously been set.\n        require(vesting.isActive, \"no active vesting\");\n        // Fail on likely erroneous input.\n        require(onDay <= vesting.startDay + vesting.duration, \"no effect\");\n        // Don\"t let grantor revoke anf portion of vested amount.\n        require(onDay >= today(), \"cannot revoke vested holdings\");\n\n        //notVestedAmount = getNotVestedAmount(account, onDay);\n\n        // Kill the grant by updating isActive.\n        _vestingSchedules[account].isActive = false;\n\n        /* Emits the GrantRevoked event. */\n        emit GrantRevoked(account, onDay);\n        \n        return true;\n\n    }\n\n}\n",
  "sourcePath": "/home/matifalcone/Blockchain/BSC/vesting/contracts/Vesting.sol",
  "compiler": {
    "name": "solc",
    "version": "0.8.11+commit.d7f03943.Emscripten.clang"
  },
  "schemaVersion": "3.4.4",
  "updatedAt": "2022-02-11T04:34:11.216Z",
  "devdoc": {
    "kind": "dev",
    "methods": {
      "today()": {
        "details": "returns the day number of the current day, in days since the UNIX epoch."
      }
    },
    "version": 1
  },
  "userdoc": {
    "kind": "user",
    "methods": {},
    "version": 1
  }
}