{
  "contractName": "Vesting",
  "abi": [
    {
      "inputs": [
        {
          "internalType": "uint32",
          "name": "_fee",
          "type": "uint32"
        },
        {
          "internalType": "address payable",
          "name": "_feeAccount",
          "type": "address"
        }
      ],
      "stateMutability": "nonpayable",
      "type": "constructor"
    },
    {
      "anonymous": false,
      "inputs": [
        {
          "indexed": true,
          "internalType": "address",
          "name": "token",
          "type": "address"
        },
        {
          "indexed": false,
          "internalType": "uint256",
          "name": "amount",
          "type": "uint256"
        },
        {
          "indexed": false,
          "internalType": "uint256",
          "name": "originalValue",
          "type": "uint256"
        },
        {
          "indexed": false,
          "internalType": "uint256",
          "name": "fee",
          "type": "uint256"
        },
        {
          "indexed": false,
          "internalType": "address",
          "name": "feeAccount",
          "type": "address"
        }
      ],
      "name": "VestingFeeCollected",
      "type": "event"
    },
    {
      "anonymous": false,
      "inputs": [
        {
          "indexed": true,
          "internalType": "address",
          "name": "allocator",
          "type": "address"
        },
        {
          "indexed": true,
          "internalType": "address",
          "name": "token",
          "type": "address"
        },
        {
          "indexed": true,
          "internalType": "address",
          "name": "beneficiary",
          "type": "address"
        },
        {
          "indexed": false,
          "internalType": "uint32",
          "name": "startDay",
          "type": "uint32"
        },
        {
          "indexed": false,
          "internalType": "uint32",
          "name": "cliffDuration",
          "type": "uint32"
        },
        {
          "indexed": false,
          "internalType": "uint32",
          "name": "duration",
          "type": "uint32"
        },
        {
          "indexed": false,
          "internalType": "uint32",
          "name": "interval",
          "type": "uint32"
        },
        {
          "indexed": false,
          "internalType": "uint256",
          "name": "amount",
          "type": "uint256"
        }
      ],
      "name": "VestingScheduleCreated",
      "type": "event"
    },
    {
      "anonymous": false,
      "inputs": [
        {
          "indexed": true,
          "internalType": "address",
          "name": "token",
          "type": "address"
        },
        {
          "indexed": true,
          "internalType": "address",
          "name": "beneficiary",
          "type": "address"
        },
        {
          "indexed": false,
          "internalType": "uint256",
          "name": "withdrawAmount",
          "type": "uint256"
        },
        {
          "indexed": false,
          "internalType": "uint256",
          "name": "pendingAmount",
          "type": "uint256"
        }
      ],
      "name": "VestingTokensGranted",
      "type": "event"
    },
    {
      "inputs": [
        {
          "internalType": "address",
          "name": "",
          "type": "address"
        },
        {
          "internalType": "address",
          "name": "",
          "type": "address"
        }
      ],
      "name": "_allocations",
      "outputs": [
        {
          "internalType": "uint256",
          "name": "",
          "type": "uint256"
        }
      ],
      "stateMutability": "view",
      "type": "function"
    },
    {
      "inputs": [
        {
          "internalType": "address",
          "name": "",
          "type": "address"
        }
      ],
      "name": "_fees",
      "outputs": [
        {
          "internalType": "uint256",
          "name": "",
          "type": "uint256"
        }
      ],
      "stateMutability": "view",
      "type": "function"
    },
    {
      "inputs": [
        {
          "internalType": "address",
          "name": "",
          "type": "address"
        },
        {
          "internalType": "address",
          "name": "",
          "type": "address"
        }
      ],
      "name": "_vestingSchedules",
      "outputs": [
        {
          "internalType": "uint32",
          "name": "startDay",
          "type": "uint32"
        },
        {
          "internalType": "uint32",
          "name": "cliffDuration",
          "type": "uint32"
        },
        {
          "internalType": "uint32",
          "name": "duration",
          "type": "uint32"
        },
        {
          "internalType": "uint32",
          "name": "interval",
          "type": "uint32"
        },
        {
          "internalType": "uint256",
          "name": "amount",
          "type": "uint256"
        },
        {
          "internalType": "address",
          "name": "allocator",
          "type": "address"
        }
      ],
      "stateMutability": "view",
      "type": "function"
    },
    {
      "inputs": [],
      "name": "admin",
      "outputs": [
        {
          "internalType": "address",
          "name": "",
          "type": "address"
        }
      ],
      "stateMutability": "view",
      "type": "function"
    },
    {
      "inputs": [],
      "name": "fee",
      "outputs": [
        {
          "internalType": "uint32",
          "name": "",
          "type": "uint32"
        }
      ],
      "stateMutability": "view",
      "type": "function"
    },
    {
      "inputs": [
        {
          "internalType": "contract IERC20",
          "name": "token",
          "type": "address"
        },
        {
          "internalType": "uint256",
          "name": "amount",
          "type": "uint256"
        }
      ],
      "name": "deposit",
      "outputs": [
        {
          "internalType": "bool",
          "name": "ok",
          "type": "bool"
        }
      ],
      "stateMutability": "nonpayable",
      "type": "function"
    },
    {
      "inputs": [],
      "name": "vestingFee",
      "outputs": [
        {
          "internalType": "uint32",
          "name": "",
          "type": "uint32"
        }
      ],
      "stateMutability": "view",
      "type": "function"
    },
    {
      "inputs": [
        {
          "internalType": "address",
          "name": "token",
          "type": "address"
        }
      ],
      "name": "getFeesForToken",
      "outputs": [
        {
          "internalType": "uint256",
          "name": "",
          "type": "uint256"
        }
      ],
      "stateMutability": "view",
      "type": "function"
    },
    {
      "inputs": [],
      "name": "vestingFeeAccount",
      "outputs": [
        {
          "internalType": "address",
          "name": "",
          "type": "address"
        }
      ],
      "stateMutability": "view",
      "type": "function"
    },
    {
      "inputs": [
        {
          "internalType": "contract IERC20",
          "name": "_token",
          "type": "address"
        },
        {
          "internalType": "address",
          "name": "_beneficiary",
          "type": "address"
        },
        {
          "internalType": "uint32",
          "name": "_startDay",
          "type": "uint32"
        },
        {
          "internalType": "uint32",
          "name": "_cliffDuration",
          "type": "uint32"
        },
        {
          "internalType": "uint32",
          "name": "_duration",
          "type": "uint32"
        },
        {
          "internalType": "uint32",
          "name": "_interval",
          "type": "uint32"
        },
        {
          "internalType": "uint256",
          "name": "_amount",
          "type": "uint256"
        }
      ],
      "name": "addVestingSchedule",
      "outputs": [],
      "stateMutability": "nonpayable",
      "type": "function"
    },
    {
      "inputs": [
        {
          "internalType": "address",
          "name": "_token",
          "type": "address"
        },
        {
          "internalType": "address",
          "name": "_beneficiary",
          "type": "address"
        }
      ],
      "name": "getVestingSchedule",
      "outputs": [
        {
          "internalType": "uint32",
          "name": "startDay",
          "type": "uint32"
        },
        {
          "internalType": "uint32",
          "name": "cliffDuration",
          "type": "uint32"
        },
        {
          "internalType": "uint32",
          "name": "duration",
          "type": "uint32"
        },
        {
          "internalType": "uint32",
          "name": "interval",
          "type": "uint32"
        },
        {
          "internalType": "uint256",
          "name": "amount",
          "type": "uint256"
        }
      ],
      "stateMutability": "view",
      "type": "function"
    },
    {
      "inputs": [
        {
          "internalType": "address",
          "name": "_token",
          "type": "address"
        },
        {
          "internalType": "address",
          "name": "_from",
          "type": "address"
        },
        {
          "internalType": "address",
          "name": "_to",
          "type": "address"
        }
      ],
      "name": "transferVestingSchedule",
      "outputs": [
        {
          "internalType": "bool",
          "name": "ok",
          "type": "bool"
        }
      ],
      "stateMutability": "nonpayable",
      "type": "function"
    },
    {
      "inputs": [
        {
          "internalType": "contract IERC20",
          "name": "_token",
          "type": "address"
        }
      ],
      "name": "withdraw",
      "outputs": [
        {
          "internalType": "bool",
          "name": "ok",
          "type": "bool"
        }
      ],
      "stateMutability": "nonpayable",
      "type": "function"
    },
    {
      "inputs": [],
      "name": "today",
      "outputs": [
        {
          "internalType": "uint32",
          "name": "dayNumber",
          "type": "uint32"
        }
      ],
      "stateMutability": "view",
      "type": "function"
    },
    {
      "inputs": [
        {
          "internalType": "address",
          "name": "account",
          "type": "address"
        },
        {
          "internalType": "address",
          "name": "token",
          "type": "address"
        },
        {
          "internalType": "uint32",
          "name": "onDayOrToday",
          "type": "uint32"
        }
      ],
      "name": "vestingForAccountAsOf",
      "outputs": [
        {
          "internalType": "uint256",
          "name": "amountVested",
          "type": "uint256"
        },
        {
          "internalType": "uint256",
          "name": "amountNotVested",
          "type": "uint256"
        },
        {
          "internalType": "uint256",
          "name": "vestAmount",
          "type": "uint256"
        },
        {
          "internalType": "uint32",
          "name": "vestStartDay",
          "type": "uint32"
        },
        {
          "internalType": "uint32",
          "name": "vestDuration",
          "type": "uint32"
        },
        {
          "internalType": "uint32",
          "name": "cliffDuration",
          "type": "uint32"
        },
        {
          "internalType": "uint32",
          "name": "vestIntervalDays",
          "type": "uint32"
        }
      ],
      "stateMutability": "view",
      "type": "function"
    },
    {
      "inputs": [
        {
          "internalType": "address",
          "name": "token",
          "type": "address"
        },
        {
          "internalType": "uint32",
          "name": "onDayOrToday",
          "type": "uint32"
        }
      ],
      "name": "vestingAsOf",
      "outputs": [
        {
          "internalType": "uint256",
          "name": "amountVested",
          "type": "uint256"
        },
        {
          "internalType": "uint256",
          "name": "amountNotVested",
          "type": "uint256"
        },
        {
          "internalType": "uint256",
          "name": "vestAmount",
          "type": "uint256"
        },
        {
          "internalType": "uint32",
          "name": "vestStartDay",
          "type": "uint32"
        },
        {
          "internalType": "uint32",
          "name": "vestDuration",
          "type": "uint32"
        },
        {
          "internalType": "uint32",
          "name": "cliffDuration",
          "type": "uint32"
        },
        {
          "internalType": "uint32",
          "name": "vestIntervalDays",
          "type": "uint32"
        }
      ],
      "stateMutability": "view",
      "type": "function"
    }
  ],
  "bytecode": "0x60806040523480156200001157600080fd5b506040516200406638038062004066833981810160405281019062000037919062000200565b600073ffffffffffffffffffffffffffffffffffffffff168173ffffffffffffffffffffffffffffffffffffffff161415620000aa576040517f08c379a0000000000000000000000000000000000000000000000000000000008152600401620000a190620002ce565b60405180910390fd5b33600360006101000a81548173ffffffffffffffffffffffffffffffffffffffff021916908373ffffffffffffffffffffffffffffffffffffffff16021790555081600460146101000a81548163ffffffff021916908363ffffffff16021790555080600460006101000a81548173ffffffffffffffffffffffffffffffffffffffff021916908373ffffffffffffffffffffffffffffffffffffffff1602179055505050620002f0565b600080fd5b600063ffffffff82169050919050565b62000175816200015a565b81146200018157600080fd5b50565b60008151905062000195816200016a565b92915050565b600073ffffffffffffffffffffffffffffffffffffffff82169050919050565b6000620001c8826200019b565b9050919050565b620001da81620001bb565b8114620001e657600080fd5b50565b600081519050620001fa81620001cf565b92915050565b600080604083850312156200021a576200021962000155565b5b60006200022a8582860162000184565b92505060206200023d85828601620001e9565b9150509250929050565b600082825260208201905092915050565b7f56657374696e673a20466565204163636f756e74206973205a45524f5f41444460008201527f5245535300000000000000000000000000000000000000000000000000000000602082015250565b6000620002b660248362000247565b9150620002c38262000258565b604082019050919050565b60006020820190508181036000830152620002e981620002a7565b9050919050565b613d6680620003006000396000f3fe608060405234801561001057600080fd5b50600436106101005760003560e01c8063a28d258011610097578063bde0967f11610066578063bde0967f14610320578063ddca3f431461033c578063e16dd9361461035a578063f851a4401461038e57610100565b8063a28d25801461026c578063a8ac93f5146102a2578063b74e452b146102d2578063bd19b821146102f057610100565b80634ef52657116100d35780634ef52657146101b857806351cff8d9146101e857806378cbc848146102185780638334c1bf1461024e57610100565b80631c8658b3146101055780632d207dfb1461012357806334b34dc41461015857806347e7ef2414610188575b600080fd5b61010d6103ac565b60405161011a9190612873565b60405180910390f35b61013d600480360381019061013891906128bf565b6103d6565b60405161014f96959493929190612937565b60405180910390f35b610172600480360381019061016d9190612998565b61047f565b60405161017f9190612a06565b60405180910390f35b6101a2600480360381019061019d9190612a8b565b610718565b6040516101af9190612a06565b60405180910390f35b6101d260048036038101906101cd9190612acb565b610917565b6040516101df9190612af8565b60405180910390f35b61020260048036038101906101fd9190612b13565b610960565b60405161020f9190612a06565b60405180910390f35b610232600480360381019061022d9190612b6c565b610c7b565b6040516102459796959493929190612bbf565b60405180910390f35b610256610ee3565b6040516102639190612c2e565b60405180910390f35b61028660048036038101906102819190612c49565b610efd565b6040516102999796959493929190612bbf565b60405180910390f35b6102bc60048036038101906102b79190612acb565b610f2d565b6040516102c99190612af8565b60405180910390f35b6102da610f45565b6040516102e79190612c2e565b60405180910390f35b61030a600480360381019061030591906128bf565b610f5b565b6040516103179190612af8565b60405180910390f35b61033a60048036038101906103359190612c89565b610f80565b005b61034461115f565b6040516103519190612c2e565b60405180910390f35b610374600480360381019061036f91906128bf565b611175565b604051610385959493929190612d2b565b60405180910390f35b610396611592565b6040516103a39190612873565b60405180910390f35b6000600460009054906101000a900473ffffffffffffffffffffffffffffffffffffffff16905090565b6000602052816000526040600020602052806000526040600020600091509150508060000160009054906101000a900463ffffffff16908060000160049054906101000a900463ffffffff16908060000160089054906101000a900463ffffffff169080600001600c9054906101000a900463ffffffff16908060010154908060020160009054906101000a900473ffffffffffffffffffffffffffffffffffffffff16905086565b6000828073ffffffffffffffffffffffffffffffffffffffff163373ffffffffffffffffffffffffffffffffffffffff16146104f0576040517f08c379a00000000000000000000000000000000000000000000000000000000081526004016104e790612ddb565b60405180910390fd5b6104fa84866115b8565b610539576040517f08c379a000000000000000000000000000000000000000000000000000000000815260040161053090612e47565b60405180910390fd5b61054383866115b8565b610582576040517f08c379a000000000000000000000000000000000000000000000000000000000815260040161057990612eff565b60405180910390fd5b60008060008773ffffffffffffffffffffffffffffffffffffffff1673ffffffffffffffffffffffffffffffffffffffff16815260200190815260200160002060008673ffffffffffffffffffffffffffffffffffffffff1673ffffffffffffffffffffffffffffffffffffffff1681526020019081526020016000209050600073ffffffffffffffffffffffffffffffffffffffff168160020160009054906101000a900473ffffffffffffffffffffffffffffffffffffffff1673ffffffffffffffffffffffffffffffffffffffff161415610695576040517f08c379a000000000000000000000000000000000000000000000000000000000815260040161068c90612f91565b60405180910390fd5b6106f886858360000160009054906101000a900463ffffffff168460000160049054906101000a900463ffffffff168560000160089054906101000a900463ffffffff1686600001600c9054906101000a900463ffffffff168760010154610f80565b61070a8587610705610f45565b611690565b506001925050509392505050565b600080821161072657600080fd5b6000610731836118e8565b90508373ffffffffffffffffffffffffffffffffffffffff166323b872dd3330848761075d9190612fe0565b6040518463ffffffff1660e01b815260040161077b93929190613014565b6020604051808303816000875af115801561079a573d6000803e3d6000fd5b505050506040513d601f19601f820116820180604052508101906107be9190613077565b508373ffffffffffffffffffffffffffffffffffffffff166323b872dd33600460009054906101000a900473ffffffffffffffffffffffffffffffffffffffff16846040518463ffffffff1660e01b815260040161081e93929190613103565b6020604051808303816000875af115801561083d573d6000803e3d6000fd5b505050506040513d601f19601f820116820180604052508101906108619190613077565b50610878338583866108739190612fe0565b611922565b508373ffffffffffffffffffffffffffffffffffffffff167fa704f27ccf855f07e7c15a683976a585398e34b615624dbb5df6f29663ebdb298483600460149054906101000a900463ffffffff16600460009054906101000a900473ffffffffffffffffffffffffffffffffffffffff166040516108f9949392919061316b565b60405180910390a261090b8484611acd565b50600191505092915050565b6000600260008373ffffffffffffffffffffffffffffffffffffffff1673ffffffffffffffffffffffffffffffffffffffff168152602001908152602001600020549050919050565b600061096c33836115b8565b6109ab576040517f08c379a00000000000000000000000000000000000000000000000000000000081526004016109a290613222565b60405180910390fd5b60008060008473ffffffffffffffffffffffffffffffffffffffff1673ffffffffffffffffffffffffffffffffffffffff16815260200190815260200160002060003373ffffffffffffffffffffffffffffffffffffffff1673ffffffffffffffffffffffffffffffffffffffff16815260200190815260200160002090508060000160049054906101000a900463ffffffff168160000160009054906101000a900463ffffffff16610a5e9190613242565b63ffffffff16610a6c610f45565b63ffffffff161015610ab3576040517f08c379a0000000000000000000000000000000000000000000000000000000008152600401610aaa906132ee565b60405180910390fd5b6000816001015411610ac457600080fd5b600073ffffffffffffffffffffffffffffffffffffffff168160020160009054906101000a900473ffffffffffffffffffffffffffffffffffffffff1673ffffffffffffffffffffffffffffffffffffffff161415610b2257600080fd5b6000610b363385610b31610f45565b611b2f565b905060008111610b7b576040517f08c379a0000000000000000000000000000000000000000000000000000000008152600401610b729061335a565b60405180910390fd5b8373ffffffffffffffffffffffffffffffffffffffff1663a9059cbb33836040518363ffffffff1660e01b8152600401610bb692919061337a565b6020604051808303816000875af1158015610bd5573d6000803e3d6000fd5b505050506040513d601f19601f82011682018060405250810190610bf99190613077565b503373ffffffffffffffffffffffffffffffffffffffff168473ffffffffffffffffffffffffffffffffffffffff167f3792b435e62ddd1da091a76f0b4a3b25976ea152e7d42876228968484809499583848660010154610c5a9190612fe0565b604051610c689291906133a3565b60405180910390a3600192505050919050565b600080600080600080600089893373ffffffffffffffffffffffffffffffffffffffff166000808373ffffffffffffffffffffffffffffffffffffffff1673ffffffffffffffffffffffffffffffffffffffff16815260200190815260200160002060008473ffffffffffffffffffffffffffffffffffffffff1673ffffffffffffffffffffffffffffffffffffffff16815260200190815260200160002060020160009054906101000a900473ffffffffffffffffffffffffffffffffffffffff1673ffffffffffffffffffffffffffffffffffffffff161480610d8b57508173ffffffffffffffffffffffffffffffffffffffff163373ffffffffffffffffffffffffffffffffffffffff16145b610dca576040517f08c379a0000000000000000000000000000000000000000000000000000000008152600401610dc19061343e565b60405180910390fd5b60008060008d73ffffffffffffffffffffffffffffffffffffffff1673ffffffffffffffffffffffffffffffffffffffff16815260200190815260200160002060008e73ffffffffffffffffffffffffffffffffffffffff1673ffffffffffffffffffffffffffffffffffffffff16815260200190815260200160002090506000610e568e8e8e611bd9565b90506000826001015490508181610e6d9190612fe0565b82828560000160009054906101000a900463ffffffff168660000160089054906101000a900463ffffffff168760000160049054906101000a900463ffffffff1688600001600c9054906101000a900463ffffffff169b509b509b509b509b509b509b5050505050509397509397509397909450565b6000600460149054906101000a900463ffffffff16905090565b6000806000806000806000610f13338a8a610c7b565b965096509650965096509650965092959891949750929550565b60026020528060005260406000206000915090505481565b60006201518042610f56919061348d565b905090565b6001602052816000526040600020602052806000526040600020600091509150505481565b80600160008973ffffffffffffffffffffffffffffffffffffffff1673ffffffffffffffffffffffffffffffffffffffff16815260200190815260200160002060003373ffffffffffffffffffffffffffffffffffffffff1673ffffffffffffffffffffffffffffffffffffffff16815260200190815260200160002054101561103f576040517f08c379a000000000000000000000000000000000000000000000000000000000815260040161103690613530565b60405180910390fd5b808773ffffffffffffffffffffffffffffffffffffffff166370a08231306040518263ffffffff1660e01b81526004016110799190612873565b602060405180830381865afa158015611096573d6000803e3d6000fd5b505050506040513d601f19601f820116820180604052508101906110ba9190613565565b10156110fb576040517f08c379a00000000000000000000000000000000000000000000000000000000081526004016110f290613604565b60405180910390fd5b61110586886115b8565b15611145576040517f08c379a000000000000000000000000000000000000000000000000000000000815260040161113c906136bc565b60405180910390fd5b6111553388888888888888611e2e565b5050505050505050565b600460149054906101000a900463ffffffff1681565b600080600080600085873373ffffffffffffffffffffffffffffffffffffffff166000808373ffffffffffffffffffffffffffffffffffffffff1673ffffffffffffffffffffffffffffffffffffffff16815260200190815260200160002060008473ffffffffffffffffffffffffffffffffffffffff1673ffffffffffffffffffffffffffffffffffffffff16815260200190815260200160002060020160009054906101000a900473ffffffffffffffffffffffffffffffffffffffff1673ffffffffffffffffffffffffffffffffffffffff16148061128257508173ffffffffffffffffffffffffffffffffffffffff163373ffffffffffffffffffffffffffffffffffffffff16145b6112c1576040517f08c379a00000000000000000000000000000000000000000000000000000000081526004016112b89061343e565b60405180910390fd5b6000808a73ffffffffffffffffffffffffffffffffffffffff1673ffffffffffffffffffffffffffffffffffffffff16815260200190815260200160002060008973ffffffffffffffffffffffffffffffffffffffff1673ffffffffffffffffffffffffffffffffffffffff16815260200190815260200160002060000160009054906101000a900463ffffffff166000808b73ffffffffffffffffffffffffffffffffffffffff1673ffffffffffffffffffffffffffffffffffffffff16815260200190815260200160002060008a73ffffffffffffffffffffffffffffffffffffffff1673ffffffffffffffffffffffffffffffffffffffff16815260200190815260200160002060000160049054906101000a900463ffffffff166000808c73ffffffffffffffffffffffffffffffffffffffff1673ffffffffffffffffffffffffffffffffffffffff16815260200190815260200160002060008b73ffffffffffffffffffffffffffffffffffffffff1673ffffffffffffffffffffffffffffffffffffffff16815260200190815260200160002060000160089054906101000a900463ffffffff166000808d73ffffffffffffffffffffffffffffffffffffffff1673ffffffffffffffffffffffffffffffffffffffff16815260200190815260200160002060008c73ffffffffffffffffffffffffffffffffffffffff1673ffffffffffffffffffffffffffffffffffffffff168152602001908152602001600020600001600c9054906101000a900463ffffffff166000808e73ffffffffffffffffffffffffffffffffffffffff1673ffffffffffffffffffffffffffffffffffffffff16815260200190815260200160002060008d73ffffffffffffffffffffffffffffffffffffffff1673ffffffffffffffffffffffffffffffffffffffff168152602001908152602001600020600101549650965096509650965050509295509295909350565b600360009054906101000a900473ffffffffffffffffffffffffffffffffffffffff1681565b60008073ffffffffffffffffffffffffffffffffffffffff166000808473ffffffffffffffffffffffffffffffffffffffff1673ffffffffffffffffffffffffffffffffffffffff16815260200190815260200160002060008573ffffffffffffffffffffffffffffffffffffffff1673ffffffffffffffffffffffffffffffffffffffff16815260200190815260200160002060020160009054906101000a900473ffffffffffffffffffffffffffffffffffffffff1673ffffffffffffffffffffffffffffffffffffffff161415905092915050565b6000806000808573ffffffffffffffffffffffffffffffffffffffff1673ffffffffffffffffffffffffffffffffffffffff16815260200190815260200160002060008673ffffffffffffffffffffffffffffffffffffffff1673ffffffffffffffffffffffffffffffffffffffff1681526020019081526020016000209050600073ffffffffffffffffffffffffffffffffffffffff168160020160009054906101000a900473ffffffffffffffffffffffffffffffffffffffff1673ffffffffffffffffffffffffffffffffffffffff1614156117a4576040517f08c379a000000000000000000000000000000000000000000000000000000000815260040161179b90613728565b60405180910390fd5b8060000160089054906101000a900463ffffffff168160000160009054906101000a900463ffffffff166117d89190613242565b63ffffffff168363ffffffff161115611826576040517f08c379a000000000000000000000000000000000000000000000000000000000815260040161181d90613794565b60405180910390fd5b61182e610f45565b63ffffffff168363ffffffff16101561187c576040517f08c379a000000000000000000000000000000000000000000000000000000000815260040161187390613800565b60405180910390fd5b60008160020160006101000a81548173ffffffffffffffffffffffffffffffffffffffff021916908373ffffffffffffffffffffffffffffffffffffffff16021790555060006118cd868686611bd9565b90506118da338683612305565b506001925050509392505050565b60006103e8600460149054906101000a900463ffffffff1663ffffffff16836119119190613820565b61191b919061348d565b9050919050565b600080600160008573ffffffffffffffffffffffffffffffffffffffff1673ffffffffffffffffffffffffffffffffffffffff16815260200190815260200160002060008673ffffffffffffffffffffffffffffffffffffffff1673ffffffffffffffffffffffffffffffffffffffff168152602001908152602001600020541115611a405781600160008573ffffffffffffffffffffffffffffffffffffffff1673ffffffffffffffffffffffffffffffffffffffff16815260200190815260200160002060008673ffffffffffffffffffffffffffffffffffffffff1673ffffffffffffffffffffffffffffffffffffffff1681526020019081526020016000206000828254611a34919061387a565b92505081905550611ac2565b81600160008573ffffffffffffffffffffffffffffffffffffffff1673ffffffffffffffffffffffffffffffffffffffff16815260200190815260200160002060008673ffffffffffffffffffffffffffffffffffffffff1673ffffffffffffffffffffffffffffffffffffffff168152602001908152602001600020819055505b600190509392505050565b600081600260008573ffffffffffffffffffffffffffffffffffffffff1673ffffffffffffffffffffffffffffffffffffffff1681526020019081526020016000206000828254611b1e919061387a565b925050819055506001905092915050565b6000806000808573ffffffffffffffffffffffffffffffffffffffff1673ffffffffffffffffffffffffffffffffffffffff16815260200190815260200160002060003373ffffffffffffffffffffffffffffffffffffffff1673ffffffffffffffffffffffffffffffffffffffff1681526020019081526020016000206001015490506000611bc0868686611bd9565b82611bcb9190612fe0565b905080925050509392505050565b6000806000808573ffffffffffffffffffffffffffffffffffffffff1673ffffffffffffffffffffffffffffffffffffffff16815260200190815260200160002060008673ffffffffffffffffffffffffffffffffffffffff1673ffffffffffffffffffffffffffffffffffffffff16815260200190815260200160002090506000611c6484612524565b9050600073ffffffffffffffffffffffffffffffffffffffff168260020160009054906101000a900473ffffffffffffffffffffffffffffffffffffffff1673ffffffffffffffffffffffffffffffffffffffff1614151580611d0557508160000160049054906101000a900463ffffffff168260000160009054906101000a900463ffffffff16611cf69190613242565b63ffffffff168163ffffffff16105b15611d1857816001015492505050611e27565b8160000160089054906101000a900463ffffffff168260000160009054906101000a900463ffffffff16611d4c9190613242565b63ffffffff168163ffffffff1610611d6957600092505050611e27565b60008260000160009054906101000a900463ffffffff1682611d8b91906138d0565b9050600083600001600c9054906101000a900463ffffffff1684600001600c9054906101000a900463ffffffff1683611dc49190613904565b611dce9190613935565b905060008460000160089054906101000a900463ffffffff1663ffffffff168263ffffffff168660010154611e039190613820565b611e0d919061348d565b9050808560010154611e1f9190612fe0565b955050505050505b9392505050565b6000808463ffffffff16118015611e4d5750610e448463ffffffff1611155b8015611e6457508363ffffffff168563ffffffff16105b8015611e77575060018363ffffffff1610155b611eb6576040517f08c379a0000000000000000000000000000000000000000000000000000000008152600401611ead906139bf565b60405180910390fd5b60008385611ec491906139df565b63ffffffff16148015611ee8575060008386611ee091906139df565b63ffffffff16145b611f27576040517f08c379a0000000000000000000000000000000000000000000000000000000008152600401611f1e90613a82565b60405180910390fd5b600073ffffffffffffffffffffffffffffffffffffffff166000808a73ffffffffffffffffffffffffffffffffffffffff1673ffffffffffffffffffffffffffffffffffffffff16815260200190815260200160002060008973ffffffffffffffffffffffffffffffffffffffff1673ffffffffffffffffffffffffffffffffffffffff16815260200190815260200160002060020160009054906101000a900473ffffffffffffffffffffffffffffffffffffffff1673ffffffffffffffffffffffffffffffffffffffff1614612034576040517f08c379a000000000000000000000000000000000000000000000000000000000815260040161202b90613aee565b60405180910390fd5b60008211801561204c5750612acd8663ffffffff1610155b801561206057506205bd888663ffffffff16105b61209f576040517f08c379a000000000000000000000000000000000000000000000000000000000815260040161209690613b5a565b60405180910390fd5b6040518060c001604052808763ffffffff1681526020018663ffffffff1681526020018563ffffffff1681526020018463ffffffff1681526020018381526020018a73ffffffffffffffffffffffffffffffffffffffff168152506000808a73ffffffffffffffffffffffffffffffffffffffff1673ffffffffffffffffffffffffffffffffffffffff16815260200190815260200160002060008973ffffffffffffffffffffffffffffffffffffffff1673ffffffffffffffffffffffffffffffffffffffff16815260200190815260200160002060008201518160000160006101000a81548163ffffffff021916908363ffffffff16021790555060208201518160000160046101000a81548163ffffffff021916908363ffffffff16021790555060408201518160000160086101000a81548163ffffffff021916908363ffffffff160217905550606082015181600001600c6101000a81548163ffffffff021916908363ffffffff1602179055506080820151816001015560a08201518160020160006101000a81548173ffffffffffffffffffffffffffffffffffffffff021916908373ffffffffffffffffffffffffffffffffffffffff160217905550905050612270898984612549565b508673ffffffffffffffffffffffffffffffffffffffff168873ffffffffffffffffffffffffffffffffffffffff168a73ffffffffffffffffffffffffffffffffffffffff167f0b0a991ab2ff459a69d05bb0f6626f4021deb1166606bbcc350193b44f30da2989898989896040516122ed959493929190612d2b565b60405180910390a46001905098975050505050505050565b600061231284848461271d565b5081600160008573ffffffffffffffffffffffffffffffffffffffff1673ffffffffffffffffffffffffffffffffffffffff16815260200190815260200160002060008673ffffffffffffffffffffffffffffffffffffffff1673ffffffffffffffffffffffffffffffffffffffff1681526020019081526020016000205410156123d2576040517f08c379a00000000000000000000000000000000000000000000000000000000081526004016123c990613bec565b60405180910390fd5b818373ffffffffffffffffffffffffffffffffffffffff166370a08231306040518263ffffffff1660e01b815260040161240c9190612873565b602060405180830381865afa158015612429573d6000803e3d6000fd5b505050506040513d601f19601f8201168201806040525081019061244d9190613565565b101561248e576040517f08c379a000000000000000000000000000000000000000000000000000000000815260040161248590613c7e565b60405180910390fd5b8273ffffffffffffffffffffffffffffffffffffffff1663a9059cbb85846040518363ffffffff1660e01b81526004016124c992919061337a565b6020604051808303816000875af11580156124e8573d6000803e3d6000fd5b505050506040513d601f19601f8201168201806040525081019061250c9190613077565b50612518848484612549565b50600190509392505050565b6000808263ffffffff16146125395781612542565b612541610f45565b5b9050919050565b600081600160008573ffffffffffffffffffffffffffffffffffffffff1673ffffffffffffffffffffffffffffffffffffffff16815260200190815260200160002060008673ffffffffffffffffffffffffffffffffffffffff1673ffffffffffffffffffffffffffffffffffffffff16815260200190815260200160002054101561260a576040517f08c379a000000000000000000000000000000000000000000000000000000000815260040161260190613d10565b60405180910390fd5b81600160008573ffffffffffffffffffffffffffffffffffffffff1673ffffffffffffffffffffffffffffffffffffffff16815260200190815260200160002060008673ffffffffffffffffffffffffffffffffffffffff1673ffffffffffffffffffffffffffffffffffffffff168152602001908152602001600020546126929190612fe0565b600160008573ffffffffffffffffffffffffffffffffffffffff1673ffffffffffffffffffffffffffffffffffffffff16815260200190815260200160002060008673ffffffffffffffffffffffffffffffffffffffff1673ffffffffffffffffffffffffffffffffffffffff16815260200190815260200160002081905550600190509392505050565b600081600160008573ffffffffffffffffffffffffffffffffffffffff1673ffffffffffffffffffffffffffffffffffffffff16815260200190815260200160002060008673ffffffffffffffffffffffffffffffffffffffff1673ffffffffffffffffffffffffffffffffffffffff168152602001908152602001600020546127a7919061387a565b600160008573ffffffffffffffffffffffffffffffffffffffff1673ffffffffffffffffffffffffffffffffffffffff16815260200190815260200160002060008673ffffffffffffffffffffffffffffffffffffffff1673ffffffffffffffffffffffffffffffffffffffff16815260200190815260200160002081905550600190509392505050565b600073ffffffffffffffffffffffffffffffffffffffff82169050919050565b600061285d82612832565b9050919050565b61286d81612852565b82525050565b60006020820190506128886000830184612864565b92915050565b600080fd5b61289c81612852565b81146128a757600080fd5b50565b6000813590506128b981612893565b92915050565b600080604083850312156128d6576128d561288e565b5b60006128e4858286016128aa565b92505060206128f5858286016128aa565b9150509250929050565b600063ffffffff82169050919050565b612918816128ff565b82525050565b6000819050919050565b6129318161291e565b82525050565b600060c08201905061294c600083018961290f565b612959602083018861290f565b612966604083018761290f565b612973606083018661290f565b6129806080830185612928565b61298d60a0830184612864565b979650505050505050565b6000806000606084860312156129b1576129b061288e565b5b60006129bf868287016128aa565b93505060206129d0868287016128aa565b92505060406129e1868287016128aa565b9150509250925092565b60008115159050919050565b612a00816129eb565b82525050565b6000602082019050612a1b60008301846129f7565b92915050565b6000612a2c82612852565b9050919050565b612a3c81612a21565b8114612a4757600080fd5b50565b600081359050612a5981612a33565b92915050565b612a688161291e565b8114612a7357600080fd5b50565b600081359050612a8581612a5f565b92915050565b60008060408385031215612aa257612aa161288e565b5b6000612ab085828601612a4a565b9250506020612ac185828601612a76565b9150509250929050565b600060208284031215612ae157612ae061288e565b5b6000612aef848285016128aa565b91505092915050565b6000602082019050612b0d6000830184612928565b92915050565b600060208284031215612b2957612b2861288e565b5b6000612b3784828501612a4a565b91505092915050565b612b49816128ff565b8114612b5457600080fd5b50565b600081359050612b6681612b40565b92915050565b600080600060608486031215612b8557612b8461288e565b5b6000612b93868287016128aa565b9350506020612ba4868287016128aa565b9250506040612bb586828701612b57565b9150509250925092565b600060e082019050612bd4600083018a612928565b612be16020830189612928565b612bee6040830188612928565b612bfb606083018761290f565b612c08608083018661290f565b612c1560a083018561290f565b612c2260c083018461290f565b98975050505050505050565b6000602082019050612c43600083018461290f565b92915050565b60008060408385031215612c6057612c5f61288e565b5b6000612c6e858286016128aa565b9250506020612c7f85828601612b57565b9150509250929050565b600080600080600080600060e0888a031215612ca857612ca761288e565b5b6000612cb68a828b01612a4a565b9750506020612cc78a828b016128aa565b9650506040612cd88a828b01612b57565b9550506060612ce98a828b01612b57565b9450506080612cfa8a828b01612b57565b93505060a0612d0b8a828b01612b57565b92505060c0612d1c8a828b01612a76565b91505092959891949750929550565b600060a082019050612d40600083018861290f565b612d4d602083018761290f565b612d5a604083018661290f565b612d67606083018561290f565b612d746080830184612928565b9695505050505050565b600082825260208201905092915050565b7f6f6e6c792073656c662063616e2063616c6c20746869732066756e6374696f6e600082015250565b6000612dc5602083612d7e565b9150612dd082612d8f565b602082019050919050565b60006020820190508181036000830152612df481612db8565b9050919050565b7f6e6f2076657374696e67207363686564756c6520666f756e6400000000000000600082015250565b6000612e31601983612d7e565b9150612e3c82612dfb565b602082019050919050565b60006020820190508181036000830152612e6081612e24565b9050919050565b7f746865206e65772062656e656669636961727920616c7265616479206861732060008201527f612076657374696e67207363686564756c6520666f72207468617420746f6b6560208201527f6e00000000000000000000000000000000000000000000000000000000000000604082015250565b6000612ee9604183612d7e565b9150612ef482612e67565b606082019050919050565b60006020820190508181036000830152612f1881612edc565b9050919050565b7f7468652076657374696e67207363686564756c6520796f752077616e7420746f60008201527f207472616e73666572206973206e6f7420616374697665000000000000000000602082015250565b6000612f7b603783612d7e565b9150612f8682612f1f565b604082019050919050565b60006020820190508181036000830152612faa81612f6e565b9050919050565b7f4e487b7100000000000000000000000000000000000000000000000000000000600052601160045260246000fd5b6000612feb8261291e565b9150612ff68361291e565b92508282101561300957613008612fb1565b5b828203905092915050565b60006060820190506130296000830186612864565b6130366020830185612864565b6130436040830184612928565b949350505050565b613054816129eb565b811461305f57600080fd5b50565b6000815190506130718161304b565b92915050565b60006020828403121561308d5761308c61288e565b5b600061309b84828501613062565b91505092915050565b6000819050919050565b60006130c96130c46130bf84612832565b6130a4565b612832565b9050919050565b60006130db826130ae565b9050919050565b60006130ed826130d0565b9050919050565b6130fd816130e2565b82525050565b60006060820190506131186000830186612864565b61312560208301856130f4565b6131326040830184612928565b949350505050565b600061315561315061314b846128ff565b6130a4565b61291e565b9050919050565b6131658161313a565b82525050565b60006080820190506131806000830187612928565b61318d6020830186612928565b61319a604083018561315c565b6131a760608301846130f4565b95945050505050565b7f6e6f2076657374696e67207363686564756c6520666f722063616c6c6572206f60008201527f6e2073706563696669656420746f6b656e000000000000000000000000000000602082015250565b600061320c603183612d7e565b9150613217826131b0565b604082019050919050565b6000602082019050818103600083015261323b816131ff565b9050919050565b600061324d826128ff565b9150613258836128ff565b92508263ffffffff0382111561327157613270612fb1565b5b828201905092915050565b7f746f6f206561726c7920746f207769746864726177206f7220636c696666206e60008201527f6f742066696e6973686564000000000000000000000000000000000000000000602082015250565b60006132d8602b83612d7e565b91506132e38261327c565b604082019050919050565b60006020820190508181036000830152613307816132cb565b9050919050565b7f6e6f20746f6b656e7320617661696c61626c6520746f20776974686472617700600082015250565b6000613344601f83612d7e565b915061334f8261330e565b602082019050919050565b6000602082019050818103600083015261337381613337565b9050919050565b600060408201905061338f6000830185612864565b61339c6020830184612928565b9392505050565b60006040820190506133b86000830185612928565b6133c56020830184612928565b9392505050565b7f63616c6c6572206973206e6f742074686520416c6c6f6361746f72206f72205360008201527f656c660000000000000000000000000000000000000000000000000000000000602082015250565b6000613428602383612d7e565b9150613433826133cc565b604082019050919050565b600060208201905081810360008301526134578161341b565b9050919050565b7f4e487b7100000000000000000000000000000000000000000000000000000000600052601260045260246000fd5b60006134988261291e565b91506134a38361291e565b9250826134b3576134b261345e565b5b828204905092915050565b7f796f7520686176656e277420616c6c6f6361746564207468652072696768742060008201527f616d6f756e74206f6620746f6b656e7320746f2074686520636f6e7472616374602082015250565b600061351a604083612d7e565b9150613525826134be565b604082019050919050565b600060208201905081810360008301526135498161350d565b9050919050565b60008151905061355f81612a5f565b92915050565b60006020828403121561357b5761357a61288e565b5b600061358984828501613550565b91505092915050565b7f706c6561736520616c6c6f636174652074686520746f6b656e7320746f20746860008201527f6520636f6e747261637400000000000000000000000000000000000000000000602082015250565b60006135ee602a83612d7e565b91506135f982613592565b604082019050919050565b6000602082019050818103600083015261361d816135e1565b9050919050565b7f76657374696e67207363686564756c65206f66207468697320746f6b656e206160008201527f6c72656164792065786973747320666f7220676976656e2062656e656669636960208201527f6172790000000000000000000000000000000000000000000000000000000000604082015250565b60006136a6604383612d7e565b91506136b182613624565b606082019050919050565b600060208201905081810360008301526136d581613699565b9050919050565b7f6e6f206163746976652076657374696e67000000000000000000000000000000600082015250565b6000613712601183612d7e565b915061371d826136dc565b602082019050919050565b6000602082019050818103600083015261374181613705565b9050919050565b7f6e6f206566666563740000000000000000000000000000000000000000000000600082015250565b600061377e600983612d7e565b915061378982613748565b602082019050919050565b600060208201905081810360008301526137ad81613771565b9050919050565b7f63616e6e6f74207265766f6b652076657374656420686f6c64696e6773000000600082015250565b60006137ea601d83612d7e565b91506137f5826137b4565b602082019050919050565b60006020820190508181036000830152613819816137dd565b9050919050565b600061382b8261291e565b91506138368361291e565b9250817fffffffffffffffffffffffffffffffffffffffffffffffffffffffffffffffff048311821515161561386f5761386e612fb1565b5b828202905092915050565b60006138858261291e565b91506138908361291e565b9250827fffffffffffffffffffffffffffffffffffffffffffffffffffffffffffffffff038211156138c5576138c4612fb1565b5b828201905092915050565b60006138db826128ff565b91506138e6836128ff565b9250828210156138f9576138f8612fb1565b5b828203905092915050565b600061390f826128ff565b915061391a836128ff565b92508261392a5761392961345e565b5b828204905092915050565b6000613940826128ff565b915061394b836128ff565b92508163ffffffff048311821515161561396857613967612fb1565b5b828202905092915050565b7f696e76616c69642076657374696e67207363686564756c650000000000000000600082015250565b60006139a9601883612d7e565b91506139b482613973565b602082019050919050565b600060208201905081810360008301526139d88161399c565b9050919050565b60006139ea826128ff565b91506139f5836128ff565b925082613a0557613a0461345e565b5b828206905092915050565b7f696e76616c696420636c6966662f6475726174696f6e20666f7220696e74657260008201527f76616c0000000000000000000000000000000000000000000000000000000000602082015250565b6000613a6c602383612d7e565b9150613a7782613a10565b604082019050919050565b60006020820190508181036000830152613a9b81613a5f565b9050919050565b7f6772616e7420616c726561647920657869737473000000000000000000000000600082015250565b6000613ad8601483612d7e565b9150613ae382613aa2565b602082019050919050565b60006020820190508181036000830152613b0781613acb565b9050919050565b7f696e76616c69642076657374696e6720706172616d7300000000000000000000600082015250565b6000613b44601683612d7e565b9150613b4f82613b0e565b602082019050919050565b60006020820190508181036000830152613b7381613b37565b9050919050565b7f6e6f7420656e6f75676820616c6c6f636174696f6e20746f20706572666f726d60008201527f2074686973207461736b00000000000000000000000000000000000000000000602082015250565b6000613bd6602a83612d7e565b9150613be182613b7a565b604082019050919050565b60006020820190508181036000830152613c0581613bc9565b9050919050565b7f7468652062616c616e6365206f662074686520636f6e7472616374206973206e60008201527f6f7420656e6f7567680000000000000000000000000000000000000000000000602082015250565b6000613c68602983612d7e565b9150613c7382613c0c565b604082019050919050565b60006020820190508181036000830152613c9781613c5b565b9050919050565b7f796f7520646f6e2774206861766520616c6c6f636174696f6e20666f7220746860008201527f697320746f6b656e000000000000000000000000000000000000000000000000602082015250565b6000613cfa602883612d7e565b9150613d0582613c9e565b604082019050919050565b60006020820190508181036000830152613d2981613ced565b905091905056fea26469706673582212204c551258b2d8b71a6ab988693e8d472a0eaf454580018269a5ab75c3d3e7ad8164736f6c634300080c0033",
  "immutableReferences": {},
  "source": "// SPDX-License-Identifier: MIT\npragma solidity ^0.8.0;\n\nimport \"@openzeppelin/contracts/token/ERC20/IERC20.sol\";\n\ncontract Vesting {\n    // Structs\n    struct VestingSchedule {\n        uint32 startDay; /* Start day of the grant, in days since the UNIX epoch (start of day). */\n        uint32 cliffDuration; /* Duration of the cliff, with respect to the grant start day, in days. */\n        uint32 duration; /* Duration of the vesting schedule, with respect to the grant start day, in days. */\n        uint32 interval; /* Duration in days of the vesting interval. */\n        uint256 amount; /* Total number of tokens that vest. */\n        address allocator; /* Address of the person granting the Vesting. We will use this field to determine is the vesting schedule is active as well, since we can add more fields to this Struct as Solidity has the stack limited. */\n    }\n\n    // Mappings\n    mapping(address => mapping(address => VestingSchedule))\n        public _vestingSchedules;\n    mapping(address => mapping(address => uint256)) public _allocations;\n    mapping(address => uint256) public _fees;\n\n    // Events\n    event VestingScheduleCreated(\n        address indexed allocator,\n        address indexed token,\n        address indexed beneficiary,\n        uint32 startDay,\n        uint32 cliffDuration,\n        uint32 duration,\n        uint32 interval,\n        uint256 amount\n    );\n\n    event VestingTokensGranted(\n        address indexed token,\n        address indexed beneficiary,\n        uint256 withdrawAmount,\n        uint256 pendingAmount\n    );\n\n    event VestingFeeCollected(\n        address indexed token,\n        uint256 amount,\n        uint256 originalValue,\n        uint256 fee,\n        address feeAccount\n    );\n\n    // Global variables\n    address public admin;\n    address payable feeAccount;\n    uint32 public fee;\n\n    constructor(uint32 _fee, address payable _feeAccount) {\n        require(\n            address(_feeAccount) != address(0),\n            \"Vesting: Fee Account is ZERO_ADDRESS\"\n        );\n        admin = msg.sender;\n        fee = _fee;\n        feeAccount = _feeAccount;\n    }\n\n    // ============================================================================\n    // === Methods for administratively creating a vesting schedule for an account.\n    // ============================================================================\n \n    // When someone deposits coins to the contract, we need to have a mechanism to know\n    // only that person is able to allocate those funds to beneficiaries. If not, anybody\n    // would be able to allocate funds to beneficiaries if they know how much balance\n    // for a specific token is held by the contract.\n    function deposit(IERC20 token, uint256 amount) external returns (bool ok) {\n        require(amount > 0);\n        uint256 contractFee = calculateFee(amount);\n        token.transferFrom(msg.sender, address(this), amount - contractFee);\n        token.transferFrom(msg.sender, feeAccount, contractFee);\n        setInitialAllocation(msg.sender, address(token), amount - contractFee);\n        emit VestingFeeCollected(\n            address(token),\n            amount,\n            contractFee,\n            fee,\n            feeAccount\n        );\n        updateFeeForToken(address(token), amount);\n        return true;\n    }\n\n    function setInitialAllocation(\n        address owner,\n        address token,\n        uint256 amount\n    ) internal returns (bool ok) {\n        if (_allocations[token][owner] > 0) {\n            _allocations[token][owner] += amount;\n        } else {\n            _allocations[token][owner] = amount;\n        }\n        return true;\n    }\n\n    function updateAllocation(\n        address owner,\n        address token,\n        uint256 amount\n    ) internal returns (bool ok) {\n        require(\n            _allocations[token][owner] >= amount,\n            \"you don't have allocation for this token\"\n        );\n        _allocations[token][owner] = _allocations[token][owner] - amount;\n        return true;\n    }\n\n    function releaseAllocation(\n        address owner,\n        address token,\n        uint256 amount\n    ) internal returns (bool ok) {\n        _allocations[token][owner] = _allocations[token][owner] + amount;\n        return true;\n    }\n\n    function calculateFee(uint256 amount)\n        internal\n        view\n        returns (uint256 __fee)\n    {\n        __fee = (amount * fee) / 1000;\n        return __fee;\n    }\n\n    function updateFeeForToken(address token, uint256 amount)\n        internal\n        returns (bool ok)\n    {\n        _fees[token] += amount;\n        return true;\n    }\n\n    function vestingFee() public view virtual returns (uint32) {\n        return fee;\n    }\n\n    function getFeesForToken(address token) public view virtual returns (uint256) {\n        return _fees[token];\n    }\n\n    function vestingFeeAccount() public view virtual returns (address) {\n        return feeAccount;\n    }\n\n    function addVestingSchedule(\n        IERC20 _token,\n        address _beneficiary,\n        uint32 _startDay,\n        uint32 _cliffDuration,\n        uint32 _duration,\n        uint32 _interval,\n        uint256 _amount\n    ) public {\n        // Requires that the person creating the vesting scheduled has the right allocation of tokens\n        require(\n            _allocations[address(_token)][msg.sender] >= _amount,\n            \"you haven't allocated the right amount of tokens to the contract\"\n        );\n\n        // Double check that the contract has funds. This should be always true because of previous check of allocation.\n        require(\n            _token.balanceOf(address(this)) >= _amount,\n            \"please allocate the tokens to the contract\"\n        );\n\n        require(\n            !hasVestingScheduleForToken(_beneficiary, address(_token)),\n            \"vesting schedule of this token already exists for given beneficiary\"\n        );\n\n        setVestingSchedule(\n            msg.sender,\n            _token,\n            _beneficiary,\n            _startDay,\n            _cliffDuration,\n            _duration,\n            _interval,\n            _amount\n        );\n    }\n\n    function hasVestingScheduleForToken(address account, address token)\n        internal\n        view\n        returns (bool ok)\n    {\n        return _vestingSchedules[token][account].allocator != address(0);\n    }\n\n    function setVestingSchedule(\n        address _allocator,\n        IERC20 _token,\n        address _beneficiary,\n        uint32 _startDay, /* Start day of the grant, in days since the UNIX epoch (start of day). */\n        uint32 _cliffDuration, /* Duration of the cliff, with respect to the grant start day, in days. */\n        uint32 _duration, /* Duration of the vesting schedule, with respect to the grant start day, in days. */\n        uint32 _interval, /* Duration in days of the vesting interval. */\n        uint256 _amount /* Total number of tokens that vest. */\n    ) internal returns (bool ok) {\n        // Check for a valid vesting schedule given (disallow absurd values to reject likely bad input).\n        require(\n            _duration > 0 &&\n                //_duration <= TEN_YEARS_DAYS &&\n                _duration <= 3652 &&\n                _cliffDuration < _duration &&\n                _interval >= 1,\n            \"invalid vesting schedule\"\n        );\n\n        // Make sure the duration values are in harmony with interval (both should be an exact multiple of interval).\n        require(\n            _duration % _interval == 0 && _cliffDuration % _interval == 0,\n            \"invalid cliff/duration for interval\"\n        );\n\n        // Make sure no prior vesting for this token is in effect for this beneficiary\n        require(\n            !(_vestingSchedules[address(_token)][_beneficiary].allocator != address(0)),\n            \"grant already exists\"\n        );\n\n        // Check for valid vestingAmount\n        require(\n            _amount > 0 &&\n                //_startDay >= JAN_1_2000_DAYS &&\n                //_startDay < JAN_1_3000_DAYS,\n                _startDay >= 10957 &&\n                _startDay < 376200,\n            \"invalid vesting params\"\n        );\n\n        // Create and populate a vesting schedule.\n        _vestingSchedules[address(_token)][_beneficiary] = VestingSchedule(\n            _startDay,\n            _cliffDuration,\n            _duration,\n            _interval,\n            _amount,\n            _allocator\n        );\n\n        // Update the allocation of the owner after creating the schedule\n        updateAllocation(_allocator, address(_token), _amount);\n\n        // Emit the event and return success.\n        emit VestingScheduleCreated(\n            _allocator,\n            address(_token),\n            _beneficiary,\n            _startDay,\n            _cliffDuration,\n            _duration,\n            _interval,\n            _amount\n        );\n\n        return true;\n    }\n\n    function getVestingSchedule(address _token, address _beneficiary)\n        public\n        view\n        onlyAllocatorOrSelf(_beneficiary, _token)\n        returns (\n            uint32 startDay,\n            uint32 cliffDuration,\n            uint32 duration,\n            uint32 interval,\n            uint256 amount\n        )\n    {\n        return (\n            _vestingSchedules[_token][_beneficiary].startDay,\n            _vestingSchedules[_token][_beneficiary].cliffDuration,\n            _vestingSchedules[_token][_beneficiary].duration,\n            _vestingSchedules[_token][_beneficiary].interval,\n            _vestingSchedules[_token][_beneficiary].amount\n        );\n    }\n\n    function transferVestingSchedule(\n        address _token,\n        address _from,\n        address _to\n    ) external onlySelf(_from) returns (bool ok) {\n        require(\n            hasVestingScheduleForToken(_from, address(_token)),\n            \"no vesting schedule found\"\n        );\n        require(\n            hasVestingScheduleForToken(_to, address(_token)),\n            \"the new beneficiary already has a vesting schedule for that token\"\n        );\n        VestingSchedule storage vesting = _vestingSchedules[address(_token)][\n            _from\n        ];\n        require(\n            vesting.allocator != address(0),\n            \"the vesting schedule you want to transfer is not active\"\n        );\n        // Create a new vesting schedule for the new beneficiary with the same information as the original vesting schedule\n        addVestingSchedule(\n            IERC20(_token),\n            _to,\n            vesting.startDay,\n            vesting.cliffDuration,\n            vesting.duration,\n            vesting.interval,\n            vesting.amount\n        );\n        // Mark the original vesting schedule as inactive\n        inactiveVesting(_from, _token, today());\n        return true;\n    }\n\n    function withdraw(IERC20 _token) external returns (bool ok) {\n        require(\n            hasVestingScheduleForToken(msg.sender, address(_token)),\n            \"no vesting schedule for caller on specified token\"\n        );\n        VestingSchedule storage vesting = _vestingSchedules[address(_token)][\n            msg.sender\n        ];\n        require(\n            today() >= vesting.startDay + vesting.cliffDuration,\n            \"too early to withdraw or cliff not finished\"\n        );\n        require(vesting.amount > 0);\n        require(vesting.allocator != address(0));\n        uint256 vestedAmount = getVestedAmount(\n            msg.sender,\n            address(_token),\n            today()\n        );\n        require(vestedAmount > 0, \"no tokens available to withdraw\");\n        _token.transfer(msg.sender, vestedAmount);\n        /* Emits the VestingTokensGranted event. */\n        emit VestingTokensGranted(\n            address(_token),\n            msg.sender,\n            vestedAmount,\n            vesting.amount - vestedAmount\n        );\n        return true;\n    }\n\n    function getVestedAmount(\n        address account,\n        address token,\n        uint32 onDay\n    ) internal view returns (uint256 amountAvailable) {\n        uint256 totalTokens = _vestingSchedules[token][msg.sender].amount;\n        uint256 vested = totalTokens -\n            getNotVestedAmount(account, token, onDay);\n        return vested;\n    }\n\n    /**\n     * @dev Determines the amount of tokens that have not vested in the given account.\n     *\n     * The math is: not vested amount = vesting amount * (end date - on date)/(end date - start date)\n     *\n     * @param account = The account to check.\n     * @param onDayOrToday = The day to check for, in days since the UNIX epoch. Can pass\n     *   the special value 0 to indicate today.\n     */\n    function getNotVestedAmount(\n        address account,\n        address token,\n        uint32 onDayOrToday\n    ) internal view returns (uint256 amountNotVested) {\n        VestingSchedule storage vesting = _vestingSchedules[token][account];\n        uint32 onDay = _effectiveDay(onDayOrToday);\n\n        // If there's no schedule, or before the vesting cliff, then the full amount is not vested.\n        if (\n            !(vesting.allocator != address(0)) ||\n            onDay < vesting.startDay + vesting.cliffDuration\n        ) {\n            // None are vested (all are not vested)\n            return vesting.amount;\n        }\n        // If after end of vesting, then the not vested amount is zero (all are vested).\n        else if (onDay >= vesting.startDay + vesting.duration) {\n            // All are vested (none are not vested)\n            return uint256(0);\n        }\n        // Otherwise a fractional amount is vested.\n        else {\n            // Compute the exact number of days vested.\n            uint32 daysVested = onDay - vesting.startDay;\n            // Adjust result rounding down to take into consideration the interval.\n            uint32 effectiveDaysVested = (daysVested / vesting.interval) *\n                vesting.interval;\n\n            // Compute the fraction vested from schedule using 224.32 fixed point math for date range ratio.\n            // Note: This is safe in 256-bit math because max value of X billion tokens = X*10^27 wei, and\n            // typical token amounts can fit into 90 bits. Scaling using a 32 bits value results in only 125\n            // bits before reducing back to 90 bits by dividing. There is plenty of room left, even for token\n            // amounts many orders of magnitude greater than mere billions.\n            //uint256 vested = grant.amount.mul(effectiveDaysVested).div(vesting.duration);\n            uint256 vested = (vesting.amount * effectiveDaysVested) /\n                vesting.duration;\n            //return grant.amount.sub(vested);\n            return vesting.amount - vested;\n        }\n    }\n\n    // =========================================================================\n    // === Check vesting.\n    // =========================================================================\n\n    /**\n     * @dev returns the day number of the current day, in days since the UNIX epoch.\n     */\n    function today() public view returns (uint32 dayNumber) {\n        return uint32(block.timestamp / (24 * 60 * 60)); // Seconds per day\n    }\n\n    function _effectiveDay(uint32 onDayOrToday)\n        internal\n        view\n        returns (uint32 dayNumber)\n    {\n        return onDayOrToday == 0 ? today() : onDayOrToday;\n    }\n\n    /***\n     * @dev returns all information about the grant's vesting as of the given day\n     * for the given account. Only callable by the account holder or a grantor, so\n     * this is mainly intended for administrative use.\n     *\n     * @param grantHolder = The address to do this for.\n     * @param onDayOrToday = The day to check for, in days since the UNIX epoch. Can pass\n     *   the special value 0 to indicate today.\n     * @return = A tuple with the following values:\n     *   amountVested = the amount out of vestingAmount that is vested\n     *   amountNotVested = the amount that is vested (equal to vestingAmount - vestedAmount)\n     *   amountOfGrant = the amount of tokens subject to vesting.\n     *   vestStartDay = starting day of the grant (in days since the UNIX epoch).\n     *   vestDuration = grant duration in days.\n     *   cliffDuration = duration of the cliff.\n     *   vestIntervalDays = number of days between vesting periods.\n     *   isActive = true if the vesting schedule is currently active.\n     */\n    function vestingForAccountAsOf(\n        address account,\n        address token,\n        uint32 onDayOrToday\n    )\n        public\n        view\n        onlyAllocatorOrSelf(account, token)\n        returns (\n            uint256 amountVested,\n            uint256 amountNotVested,\n            uint256 vestAmount,\n            uint32 vestStartDay,\n            uint32 vestDuration,\n            uint32 cliffDuration,\n            uint32 vestIntervalDays\n        )\n    {\n        VestingSchedule storage vesting = _vestingSchedules[token][account];\n        uint256 notVestedAmount = getNotVestedAmount(\n            account,\n            token,\n            onDayOrToday\n        );\n        uint256 vestingAmount = vesting.amount;\n\n        return (\n            vestingAmount - notVestedAmount,\n            notVestedAmount,\n            vestingAmount,\n            vesting.startDay,\n            vesting.duration,\n            vesting.cliffDuration,\n            vesting.interval\n        );\n    }\n\n    /***\n     * @dev returns all information about the grant's vesting as of the given day\n     * for the current account, to be called by the account holder.\n     *\n     * @param onDayOrToday = The day to check for, in days since the UNIX epoch. Can pass\n     *   the special value 0 to indicate today.\n     * @return = A tuple with the following values:\n     *   amountVested = the amount out of vestingAmount that is vested\n     *   amountNotVested = the amount that is vested (equal to vestingAmount - vestedAmount)\n     *   amountOfGrant = the amount of tokens subject to vesting.\n     *   vestStartDay = starting day of the grant (in days since the UNIX epoch).\n     *   cliffDuration = duration of the cliff.\n     *   vestDuration = grant duration in days.\n     *   vestIntervalDays = number of days between vesting periods.\n     *   isActive = true if the vesting schedule is currently active.\n     *   wasRevoked = true if the vesting schedule was revoked.\n     */\n    function vestingAsOf(address token, uint32 onDayOrToday)\n        public\n        view\n        returns (\n            uint256 amountVested,\n            uint256 amountNotVested,\n            uint256 vestAmount,\n            uint32 vestStartDay,\n            uint32 vestDuration,\n            uint32 cliffDuration,\n            uint32 vestIntervalDays\n        )\n    {\n        return vestingForAccountAsOf(msg.sender, token, onDayOrToday);\n    }\n\n    // =========================================================================\n    // === Grant revocation\n    // =========================================================================\n\n    /***\n     * @dev If the account has a revocable grant, this forces the grant to end based on computing\n     * the amount vested up to the given date. All tokens that would no longer vest are returned\n     * to the account of the original grantor.\n     *\n     * @param grantHolder = Address to which tokens will be granted.\n     * @param onDay = The date upon which the vesting schedule will be effectively terminated,\n     *   in days since the UNIX epoch (start of day).\n     */\n    function inactiveVesting(\n        address account,\n        address token,\n        uint32 onDay\n    ) internal returns (bool ok) {\n        VestingSchedule storage vesting = _vestingSchedules[token][account];\n        //uint256 notVestedAmount;\n\n        // Make sure a vesting schedule has previously been set.\n        require(vesting.allocator != address(0), \"no active vesting\");\n        // Fail on likely erroneous input.\n        require(onDay <= vesting.startDay + vesting.duration, \"no effect\");\n        // Don\"t let grantor revoke anf portion of vested amount.\n        require(onDay >= today(), \"cannot revoke vested holdings\");\n\n        // Kill the grant by updating the allocator to the 0x0 address.\n        vesting.allocator = address(0);\n        uint256 amountNotVested = getNotVestedAmount(account, token, onDay);\n        // Update allocation and return tokens to allocator\n        returnRemainingTokens(msg.sender, IERC20(token), amountNotVested);\n\n        return true;\n    }\n\n    function returnRemainingTokens(\n        address allocator,\n        IERC20 token,\n        uint256 amount\n    ) internal returns (bool ok) {\n        releaseAllocation(allocator, address(token), amount);\n        require(\n            _allocations[address(token)][allocator] >= amount,\n            \"not enough allocation to perform this task\"\n        );\n        require(\n            token.balanceOf(address(this)) >= amount,\n            \"the balance of the contract is not enough\"\n        );\n        token.transfer(allocator, amount);\n        updateAllocation(allocator, address(token), amount);\n        return true;\n    }\n\n     // Modifiers\n\n    modifier onlySelf(address account) {\n        // Distinguish insufficient overall balance from insufficient vested funds balance in failure msg.\n        require(\n            msg.sender == account,\n            \"only self can call this function\"\n        );\n        _;\n    }\n\n    modifier onlyAllocatorOrSelf(address _account, address _token) {\n        require(\n            _vestingSchedules[_token][_account].allocator == msg.sender ||\n                msg.sender == _account,\n            \"caller is not the Allocator or Self\"\n        );\n        _;\n    }\n}",
  "sourcePath": "/home/matifalcone/Blockchain/BSC/vesting/contracts/Vesting.sol",
  "compiler": {
    "name": "solc",
    "version": "0.8.12+commit.f00d7308.Emscripten.clang"
  },
  "schemaVersion": "3.4.4",
  "updatedAt": "2022-02-22T04:06:05.628Z",
  "devdoc": {
    "kind": "dev",
    "methods": {
      "today()": {
        "details": "returns the day number of the current day, in days since the UNIX epoch."
      }
    },
    "version": 1
  },
  "userdoc": {
    "kind": "user",
    "methods": {},
    "version": 1
  }
}