{
  "contractName": "Vesting",
  "abi": [
    {
      "inputs": [
        {
          "internalType": "contract IERC20",
          "name": "_token",
          "type": "address"
        },
        {
          "internalType": "uint32",
          "name": "_fee",
          "type": "uint32"
        },
        {
          "internalType": "address payable",
          "name": "_feeAccount",
          "type": "address"
        }
      ],
      "stateMutability": "nonpayable",
      "type": "constructor"
    },
    {
      "anonymous": false,
      "inputs": [
        {
          "indexed": true,
          "internalType": "address",
          "name": "grantHolder",
          "type": "address"
        },
        {
          "indexed": false,
          "internalType": "uint32",
          "name": "onDay",
          "type": "uint32"
        }
      ],
      "name": "GrantRevoked",
      "type": "event"
    },
    {
      "anonymous": false,
      "inputs": [
        {
          "indexed": true,
          "internalType": "address",
          "name": "beneficiary",
          "type": "address"
        },
        {
          "indexed": false,
          "internalType": "uint32",
          "name": "startDay",
          "type": "uint32"
        },
        {
          "indexed": false,
          "internalType": "uint32",
          "name": "cliffDuration",
          "type": "uint32"
        },
        {
          "indexed": false,
          "internalType": "uint32",
          "name": "duration",
          "type": "uint32"
        },
        {
          "indexed": false,
          "internalType": "uint32",
          "name": "interval",
          "type": "uint32"
        },
        {
          "indexed": false,
          "internalType": "uint256",
          "name": "amount",
          "type": "uint256"
        },
        {
          "indexed": false,
          "internalType": "bool",
          "name": "isActive",
          "type": "bool"
        }
      ],
      "name": "VestingScheduleCreated",
      "type": "event"
    },
    {
      "anonymous": false,
      "inputs": [
        {
          "indexed": true,
          "internalType": "address",
          "name": "beneficiary",
          "type": "address"
        },
        {
          "indexed": false,
          "internalType": "uint256",
          "name": "withdrawAmount",
          "type": "uint256"
        },
        {
          "indexed": false,
          "internalType": "uint256",
          "name": "pendingAmount",
          "type": "uint256"
        }
      ],
      "name": "VestingTokensGranted",
      "type": "event"
    },
    {
      "inputs": [
        {
          "internalType": "address",
          "name": "",
          "type": "address"
        }
      ],
      "name": "_vestingSchedules",
      "outputs": [
        {
          "internalType": "uint32",
          "name": "startDay",
          "type": "uint32"
        },
        {
          "internalType": "uint32",
          "name": "cliffDuration",
          "type": "uint32"
        },
        {
          "internalType": "uint32",
          "name": "duration",
          "type": "uint32"
        },
        {
          "internalType": "uint32",
          "name": "interval",
          "type": "uint32"
        },
        {
          "internalType": "uint256",
          "name": "amount",
          "type": "uint256"
        },
        {
          "internalType": "bool",
          "name": "isActive",
          "type": "bool"
        }
      ],
      "stateMutability": "view",
      "type": "function"
    },
    {
      "inputs": [],
      "name": "admin",
      "outputs": [
        {
          "internalType": "address",
          "name": "",
          "type": "address"
        }
      ],
      "stateMutability": "view",
      "type": "function"
    },
    {
      "inputs": [],
      "name": "fee",
      "outputs": [
        {
          "internalType": "uint32",
          "name": "",
          "type": "uint32"
        }
      ],
      "stateMutability": "view",
      "type": "function"
    },
    {
      "inputs": [],
      "name": "token",
      "outputs": [
        {
          "internalType": "contract IERC20",
          "name": "",
          "type": "address"
        }
      ],
      "stateMutability": "view",
      "type": "function"
    },
    {
      "inputs": [],
      "name": "vestingFee",
      "outputs": [
        {
          "internalType": "uint32",
          "name": "",
          "type": "uint32"
        }
      ],
      "stateMutability": "view",
      "type": "function"
    },
    {
      "inputs": [],
      "name": "vestingFeeAccount",
      "outputs": [
        {
          "internalType": "address",
          "name": "",
          "type": "address"
        }
      ],
      "stateMutability": "view",
      "type": "function"
    },
    {
      "inputs": [],
      "name": "vestingToken",
      "outputs": [
        {
          "internalType": "contract IERC20",
          "name": "",
          "type": "address"
        }
      ],
      "stateMutability": "view",
      "type": "function"
    },
    {
      "inputs": [
        {
          "internalType": "address",
          "name": "_beneficiary",
          "type": "address"
        },
        {
          "internalType": "uint32",
          "name": "_startDay",
          "type": "uint32"
        },
        {
          "internalType": "uint32",
          "name": "_cliffDuration",
          "type": "uint32"
        },
        {
          "internalType": "uint32",
          "name": "_duration",
          "type": "uint32"
        },
        {
          "internalType": "uint32",
          "name": "_interval",
          "type": "uint32"
        },
        {
          "internalType": "uint256",
          "name": "_amount",
          "type": "uint256"
        }
      ],
      "name": "addVestingSchedule",
      "outputs": [],
      "stateMutability": "payable",
      "type": "function"
    },
    {
      "inputs": [
        {
          "internalType": "address",
          "name": "_beneficiary",
          "type": "address"
        }
      ],
      "name": "getVestingSchedule",
      "outputs": [
        {
          "internalType": "uint32",
          "name": "startDay",
          "type": "uint32"
        },
        {
          "internalType": "uint32",
          "name": "cliffDuration",
          "type": "uint32"
        },
        {
          "internalType": "uint32",
          "name": "duration",
          "type": "uint32"
        },
        {
          "internalType": "uint32",
          "name": "interval",
          "type": "uint32"
        },
        {
          "internalType": "uint256",
          "name": "amount",
          "type": "uint256"
        },
        {
          "internalType": "bool",
          "name": "isActive",
          "type": "bool"
        }
      ],
      "stateMutability": "view",
      "type": "function"
    },
    {
      "inputs": [],
      "name": "withdraw",
      "outputs": [
        {
          "internalType": "bool",
          "name": "ok",
          "type": "bool"
        }
      ],
      "stateMutability": "payable",
      "type": "function"
    },
    {
      "inputs": [],
      "name": "today",
      "outputs": [
        {
          "internalType": "uint32",
          "name": "dayNumber",
          "type": "uint32"
        }
      ],
      "stateMutability": "view",
      "type": "function"
    },
    {
      "inputs": [
        {
          "internalType": "address",
          "name": "account",
          "type": "address"
        },
        {
          "internalType": "uint32",
          "name": "onDayOrToday",
          "type": "uint32"
        }
      ],
      "name": "vestingForAccountAsOf",
      "outputs": [
        {
          "internalType": "uint256",
          "name": "amountVested",
          "type": "uint256"
        },
        {
          "internalType": "uint256",
          "name": "amountNotVested",
          "type": "uint256"
        },
        {
          "internalType": "uint256",
          "name": "vestAmount",
          "type": "uint256"
        },
        {
          "internalType": "uint32",
          "name": "vestStartDay",
          "type": "uint32"
        },
        {
          "internalType": "uint32",
          "name": "vestDuration",
          "type": "uint32"
        },
        {
          "internalType": "uint32",
          "name": "cliffDuration",
          "type": "uint32"
        },
        {
          "internalType": "uint32",
          "name": "vestIntervalDays",
          "type": "uint32"
        },
        {
          "internalType": "bool",
          "name": "isActive",
          "type": "bool"
        }
      ],
      "stateMutability": "view",
      "type": "function"
    },
    {
      "inputs": [
        {
          "internalType": "uint32",
          "name": "onDayOrToday",
          "type": "uint32"
        }
      ],
      "name": "vestingAsOf",
      "outputs": [
        {
          "internalType": "uint256",
          "name": "amountVested",
          "type": "uint256"
        },
        {
          "internalType": "uint256",
          "name": "amountNotVested",
          "type": "uint256"
        },
        {
          "internalType": "uint256",
          "name": "vestAmount",
          "type": "uint256"
        },
        {
          "internalType": "uint32",
          "name": "vestStartDay",
          "type": "uint32"
        },
        {
          "internalType": "uint32",
          "name": "vestDuration",
          "type": "uint32"
        },
        {
          "internalType": "uint32",
          "name": "cliffDuration",
          "type": "uint32"
        },
        {
          "internalType": "uint32",
          "name": "vestIntervalDays",
          "type": "uint32"
        },
        {
          "internalType": "bool",
          "name": "isActive",
          "type": "bool"
        }
      ],
      "stateMutability": "view",
      "type": "function"
    },
    {
      "inputs": [
        {
          "internalType": "address",
          "name": "account",
          "type": "address"
        },
        {
          "internalType": "uint32",
          "name": "onDay",
          "type": "uint32"
        }
      ],
      "name": "revokeVesting",
      "outputs": [
        {
          "internalType": "bool",
          "name": "ok",
          "type": "bool"
        }
      ],
      "stateMutability": "nonpayable",
      "type": "function"
    }
  ],
  "bytecode": "0x60806040523480156200001157600080fd5b506040516200280838038062002808833981810160405281019062000037919062000263565b600073ffffffffffffffffffffffffffffffffffffffff168373ffffffffffffffffffffffffffffffffffffffff1614156200007257600080fd5b33600160006101000a81548173ffffffffffffffffffffffffffffffffffffffff021916908373ffffffffffffffffffffffffffffffffffffffff16021790555081600260146101000a81548163ffffffff021916908363ffffffff16021790555080600260006101000a81548173ffffffffffffffffffffffffffffffffffffffff021916908373ffffffffffffffffffffffffffffffffffffffff16021790555082600360006101000a81548173ffffffffffffffffffffffffffffffffffffffff021916908373ffffffffffffffffffffffffffffffffffffffff160217905550505050620002bf565b600080fd5b600073ffffffffffffffffffffffffffffffffffffffff82169050919050565b6000620001918262000164565b9050919050565b6000620001a58262000184565b9050919050565b620001b78162000198565b8114620001c357600080fd5b50565b600081519050620001d781620001ac565b92915050565b600063ffffffff82169050919050565b620001f881620001dd565b81146200020457600080fd5b50565b6000815190506200021881620001ed565b92915050565b60006200022b8262000164565b9050919050565b6200023d816200021e565b81146200024957600080fd5b50565b6000815190506200025d8162000232565b92915050565b6000806000606084860312156200027f576200027e6200015f565b5b60006200028f86828701620001c6565b9350506020620002a28682870162000207565b9250506040620002b5868287016200024c565b9150509250925092565b61253980620002cf6000396000f3fe6080604052600436106100dd5760003560e01c80639f8290631161007f578063ddca3f4311610059578063ddca3f43146102cf578063e6a3bd9e146102fa578063f851a4401461033c578063fc0c546a14610367576100dd565b80639f8290631461021e578063b74e452b14610260578063d56ad0ba1461028b576100dd565b80632455a035116100bb5780632455a035146101755780633ccfd60b146101b957806367fabe24146101d75780638334c1bf146101f3576100dd565b806301768db8146100e257806319d152fa1461011f5780631c8658b31461014a575b600080fd5b3480156100ee57600080fd5b50610109600480360381019061010491906117e5565b610392565b6040516101169190611840565b60405180910390f35b34801561012b57600080fd5b50610134610651565b60405161014191906118ba565b60405180910390f35b34801561015657600080fd5b5061015f61067b565b60405161016c91906118e4565b60405180910390f35b34801561018157600080fd5b5061019c600480360381019061019791906118ff565b6106a5565b6040516101b0989796959493929190611954565b60405180910390f35b6101c16106d6565b6040516101ce9190611840565b60405180910390f35b6101f160048036038101906101ec91906119fe565b610978565b005b3480156101ff57600080fd5b50610208610b46565b6040516102159190611a8b565b60405180910390f35b34801561022a57600080fd5b5061024560048036038101906102409190611aa6565b610b60565b60405161025796959493929190611ad3565b60405180910390f35b34801561026c57600080fd5b50610275610e1f565b6040516102829190611a8b565b60405180910390f35b34801561029757600080fd5b506102b260048036038101906102ad91906117e5565b610e35565b6040516102c6989796959493929190611954565b60405180910390f35b3480156102db57600080fd5b506102e4610ff6565b6040516102f19190611a8b565b60405180910390f35b34801561030657600080fd5b50610321600480360381019061031c9190611aa6565b61100c565b60405161033396959493929190611ad3565b60405180910390f35b34801561034857600080fd5b50610351611095565b60405161035e91906118e4565b60405180910390f35b34801561037357600080fd5b5061037c6110bb565b60405161038991906118ba565b60405180910390f35b6000600160009054906101000a900473ffffffffffffffffffffffffffffffffffffffff1673ffffffffffffffffffffffffffffffffffffffff163373ffffffffffffffffffffffffffffffffffffffff1614610424576040517f08c379a000000000000000000000000000000000000000000000000000000000815260040161041b90611bb7565b60405180910390fd5b60008060008573ffffffffffffffffffffffffffffffffffffffff1673ffffffffffffffffffffffffffffffffffffffff168152602001908152602001600020905060008160020160009054906101000a900460ff166104b9576040517f08c379a00000000000000000000000000000000000000000000000000000000081526004016104b090611c23565b60405180910390fd5b8160000160089054906101000a900463ffffffff168260000160009054906101000a900463ffffffff166104ed9190611c72565b63ffffffff168463ffffffff16111561053b576040517f08c379a000000000000000000000000000000000000000000000000000000000815260040161053290611cf8565b60405180910390fd5b610543610e1f565b63ffffffff168463ffffffff161015610591576040517f08c379a000000000000000000000000000000000000000000000000000000000815260040161058890611d64565b60405180910390fd5b61059b85856110e1565b905060008060008773ffffffffffffffffffffffffffffffffffffffff1673ffffffffffffffffffffffffffffffffffffffff16815260200190815260200160002060020160006101000a81548160ff0219169083151502179055508473ffffffffffffffffffffffffffffffffffffffff167f906c0c4c98565a396c542d9102cae7a794e84af6763123e068a1b277333bf4a48560405161063d9190611a8b565b60405180910390a260019250505092915050565b6000600360009054906101000a900473ffffffffffffffffffffffffffffffffffffffff16905090565b6000600260009054906101000a900473ffffffffffffffffffffffffffffffffffffffff16905090565b6000806000806000806000806106bb338a610e35565b97509750975097509750975097509750919395975091939597565b60006106e1336112b5565b610720576040517f08c379a000000000000000000000000000000000000000000000000000000000815260040161071790611dd0565b60405180910390fd5b60008060003373ffffffffffffffffffffffffffffffffffffffff1673ffffffffffffffffffffffffffffffffffffffff16815260200190815260200160002090508060000160049054906101000a900463ffffffff168160000160009054906101000a900463ffffffff166107969190611c72565b63ffffffff166107a4610e1f565b63ffffffff1610156107eb576040517f08c379a00000000000000000000000000000000000000000000000000000000081526004016107e290611e62565b60405180910390fd5b60008160010154116107fc57600080fd5b8060020160009054906101000a900460ff1661081757600080fd5b600061082a33610825610e1f565b61130d565b90506000811161086f576040517f08c379a000000000000000000000000000000000000000000000000000000000815260040161086690611ece565b60405180910390fd5b600360009054906101000a900473ffffffffffffffffffffffffffffffffffffffff1673ffffffffffffffffffffffffffffffffffffffff1663a9059cbb33836040518363ffffffff1660e01b81526004016108cc929190611eee565b6020604051808303816000875af11580156108eb573d6000803e3d6000fd5b505050506040513d601f19601f8201168201806040525081019061090f9190611f43565b503373ffffffffffffffffffffffffffffffffffffffff167fd4d6d82bf6e034534952089abb98bc3e058454f1219d797ae62275271a8eedc4828385600101546109599190611f70565b604051610967929190611fa4565b60405180910390a260019250505090565b600160009054906101000a900473ffffffffffffffffffffffffffffffffffffffff1673ffffffffffffffffffffffffffffffffffffffff163373ffffffffffffffffffffffffffffffffffffffff1614610a08576040517f08c379a00000000000000000000000000000000000000000000000000000000081526004016109ff90611bb7565b60405180910390fd5b610a11866112b5565b15610a51576040517f08c379a0000000000000000000000000000000000000000000000000000000008152600401610a489061203f565b60405180910390fd5b80600360009054906101000a900473ffffffffffffffffffffffffffffffffffffffff1673ffffffffffffffffffffffffffffffffffffffff166370a08231306040518263ffffffff1660e01b8152600401610aad91906118e4565b602060405180830381865afa158015610aca573d6000803e3d6000fd5b505050506040513d601f19601f82011682018060405250810190610aee9190612074565b1015610b2f576040517f08c379a0000000000000000000000000000000000000000000000000000000008152600401610b2690612113565b60405180910390fd5b610b3d868686868686611378565b50505050505050565b6000600260149054906101000a900463ffffffff16905090565b60008060008060008086600160009054906101000a900473ffffffffffffffffffffffffffffffffffffffff1673ffffffffffffffffffffffffffffffffffffffff163373ffffffffffffffffffffffffffffffffffffffff161480610bf157508073ffffffffffffffffffffffffffffffffffffffff163373ffffffffffffffffffffffffffffffffffffffff16145b610c30576040517f08c379a0000000000000000000000000000000000000000000000000000000008152600401610c279061217f565b60405180910390fd5b6000808973ffffffffffffffffffffffffffffffffffffffff1673ffffffffffffffffffffffffffffffffffffffff16815260200190815260200160002060000160009054906101000a900463ffffffff166000808a73ffffffffffffffffffffffffffffffffffffffff1673ffffffffffffffffffffffffffffffffffffffff16815260200190815260200160002060000160049054906101000a900463ffffffff166000808b73ffffffffffffffffffffffffffffffffffffffff1673ffffffffffffffffffffffffffffffffffffffff16815260200190815260200160002060000160089054906101000a900463ffffffff166000808c73ffffffffffffffffffffffffffffffffffffffff1673ffffffffffffffffffffffffffffffffffffffff168152602001908152602001600020600001600c9054906101000a900463ffffffff166000808d73ffffffffffffffffffffffffffffffffffffffff1673ffffffffffffffffffffffffffffffffffffffff168152602001908152602001600020600101546000808e73ffffffffffffffffffffffffffffffffffffffff1673ffffffffffffffffffffffffffffffffffffffff16815260200190815260200160002060020160009054906101000a900460ff169650965096509650965096505091939550919395565b60006201518042610e3091906121ce565b905090565b60008060008060008060008089600160009054906101000a900473ffffffffffffffffffffffffffffffffffffffff1673ffffffffffffffffffffffffffffffffffffffff163373ffffffffffffffffffffffffffffffffffffffff161480610ec957508073ffffffffffffffffffffffffffffffffffffffff163373ffffffffffffffffffffffffffffffffffffffff16145b610f08576040517f08c379a0000000000000000000000000000000000000000000000000000000008152600401610eff9061217f565b60405180910390fd5b60008060008d73ffffffffffffffffffffffffffffffffffffffff1673ffffffffffffffffffffffffffffffffffffffff16815260200190815260200160002090506000610f568d8d6110e1565b90506000826001015490508181610f6d9190611f70565b82828560000160009054906101000a900463ffffffff168660000160089054906101000a900463ffffffff168760000160049054906101000a900463ffffffff1688600001600c9054906101000a900463ffffffff168960020160009054906101000a900460ff169b509b509b509b509b509b509b509b50505050509295985092959890939650565b600260149054906101000a900463ffffffff1681565b60006020528060005260406000206000915090508060000160009054906101000a900463ffffffff16908060000160049054906101000a900463ffffffff16908060000160089054906101000a900463ffffffff169080600001600c9054906101000a900463ffffffff16908060010154908060020160009054906101000a900460ff16905086565b600160009054906101000a900473ffffffffffffffffffffffffffffffffffffffff1681565b600360009054906101000a900473ffffffffffffffffffffffffffffffffffffffff1681565b6000806000808573ffffffffffffffffffffffffffffffffffffffff1673ffffffffffffffffffffffffffffffffffffffff1681526020019081526020016000209050600061112f84611721565b90508160020160009054906101000a900460ff16158061118d57508160000160049054906101000a900463ffffffff168260000160009054906101000a900463ffffffff1661117e9190611c72565b63ffffffff168163ffffffff16105b156111a0578160010154925050506112af565b8160000160089054906101000a900463ffffffff168260000160009054906101000a900463ffffffff166111d49190611c72565b63ffffffff168163ffffffff16106111f1576000925050506112af565b60008260000160009054906101000a900463ffffffff168261121391906121ff565b9050600083600001600c9054906101000a900463ffffffff1684600001600c9054906101000a900463ffffffff168361124c9190612233565b6112569190612264565b905060008460000160089054906101000a900463ffffffff1663ffffffff168263ffffffff16866001015461128b91906122a2565b61129591906121ce565b90508085600101546112a79190611f70565b955050505050505b92915050565b60008060008373ffffffffffffffffffffffffffffffffffffffff1673ffffffffffffffffffffffffffffffffffffffff16815260200190815260200160002060020160009054906101000a900460ff169050919050565b6000806000803373ffffffffffffffffffffffffffffffffffffffff1673ffffffffffffffffffffffffffffffffffffffff168152602001908152602001600020600101549050600061136085856110e1565b8261136b9190611f70565b9050809250505092915050565b6000808463ffffffff161180156113975750610e448463ffffffff1611155b80156113ae57508363ffffffff168563ffffffff16105b80156113c1575060018363ffffffff1610155b611400576040517f08c379a00000000000000000000000000000000000000000000000000000000081526004016113f790612348565b60405180910390fd5b6000838561140e9190612368565b63ffffffff1614801561143257506000838661142a9190612368565b63ffffffff16145b611471576040517f08c379a00000000000000000000000000000000000000000000000000000000081526004016114689061240b565b60405180910390fd5b6000808873ffffffffffffffffffffffffffffffffffffffff1673ffffffffffffffffffffffffffffffffffffffff16815260200190815260200160002060020160009054906101000a900460ff1615611500576040517f08c379a00000000000000000000000000000000000000000000000000000000081526004016114f790612477565b60405180910390fd5b6000821180156115185750612acd8663ffffffff1610155b801561152c57506205bd888663ffffffff16105b61156b576040517f08c379a0000000000000000000000000000000000000000000000000000000008152600401611562906124e3565b60405180910390fd5b6040518060c001604052808763ffffffff1681526020018663ffffffff1681526020018563ffffffff1681526020018463ffffffff168152602001838152602001600115158152506000808973ffffffffffffffffffffffffffffffffffffffff1673ffffffffffffffffffffffffffffffffffffffff16815260200190815260200160002060008201518160000160006101000a81548163ffffffff021916908363ffffffff16021790555060208201518160000160046101000a81548163ffffffff021916908363ffffffff16021790555060408201518160000160086101000a81548163ffffffff021916908363ffffffff160217905550606082015181600001600c6101000a81548163ffffffff021916908363ffffffff1602179055506080820151816001015560a08201518160020160006101000a81548160ff0219169083151502179055509050508673ffffffffffffffffffffffffffffffffffffffff167f124f4bf1fedb09ae96e0f25b747f6497207cca1234e695f0f7089f25389c28bb8787878787600160405161170b96959493929190611ad3565b60405180910390a2600190509695505050505050565b6000808263ffffffff1614611736578161173f565b61173e610e1f565b5b9050919050565b600080fd5b600073ffffffffffffffffffffffffffffffffffffffff82169050919050565b60006117768261174b565b9050919050565b6117868161176b565b811461179157600080fd5b50565b6000813590506117a38161177d565b92915050565b600063ffffffff82169050919050565b6117c2816117a9565b81146117cd57600080fd5b50565b6000813590506117df816117b9565b92915050565b600080604083850312156117fc576117fb611746565b5b600061180a85828601611794565b925050602061181b858286016117d0565b9150509250929050565b60008115159050919050565b61183a81611825565b82525050565b60006020820190506118556000830184611831565b92915050565b6000819050919050565b600061188061187b6118768461174b565b61185b565b61174b565b9050919050565b600061189282611865565b9050919050565b60006118a482611887565b9050919050565b6118b481611899565b82525050565b60006020820190506118cf60008301846118ab565b92915050565b6118de8161176b565b82525050565b60006020820190506118f960008301846118d5565b92915050565b60006020828403121561191557611914611746565b5b6000611923848285016117d0565b91505092915050565b6000819050919050565b61193f8161192c565b82525050565b61194e816117a9565b82525050565b60006101008201905061196a600083018b611936565b611977602083018a611936565b6119846040830189611936565b6119916060830188611945565b61199e6080830187611945565b6119ab60a0830186611945565b6119b860c0830185611945565b6119c560e0830184611831565b9998505050505050505050565b6119db8161192c565b81146119e657600080fd5b50565b6000813590506119f8816119d2565b92915050565b60008060008060008060c08789031215611a1b57611a1a611746565b5b6000611a2989828a01611794565b9650506020611a3a89828a016117d0565b9550506040611a4b89828a016117d0565b9450506060611a5c89828a016117d0565b9350506080611a6d89828a016117d0565b92505060a0611a7e89828a016119e9565b9150509295509295509295565b6000602082019050611aa06000830184611945565b92915050565b600060208284031215611abc57611abb611746565b5b6000611aca84828501611794565b91505092915050565b600060c082019050611ae86000830189611945565b611af56020830188611945565b611b026040830187611945565b611b0f6060830186611945565b611b1c6080830185611936565b611b2960a0830184611831565b979650505050505050565b600082825260208201905092915050565b7f6f6e6c79206f776e65722063616e2063616c6c20746869732066756e6374696f60008201527f6e00000000000000000000000000000000000000000000000000000000000000602082015250565b6000611ba1602183611b34565b9150611bac82611b45565b604082019050919050565b60006020820190508181036000830152611bd081611b94565b9050919050565b7f6e6f206163746976652076657374696e67000000000000000000000000000000600082015250565b6000611c0d601183611b34565b9150611c1882611bd7565b602082019050919050565b60006020820190508181036000830152611c3c81611c00565b9050919050565b7f4e487b7100000000000000000000000000000000000000000000000000000000600052601160045260246000fd5b6000611c7d826117a9565b9150611c88836117a9565b92508263ffffffff03821115611ca157611ca0611c43565b5b828201905092915050565b7f6e6f206566666563740000000000000000000000000000000000000000000000600082015250565b6000611ce2600983611b34565b9150611ced82611cac565b602082019050919050565b60006020820190508181036000830152611d1181611cd5565b9050919050565b7f63616e6e6f74207265766f6b652076657374656420686f6c64696e6773000000600082015250565b6000611d4e601d83611b34565b9150611d5982611d18565b602082019050919050565b60006020820190508181036000830152611d7d81611d41565b9050919050565b7f6e6f2076657374696e67207363686564756c6520666f722063616c6c65720000600082015250565b6000611dba601e83611b34565b9150611dc582611d84565b602082019050919050565b60006020820190508181036000830152611de981611dad565b9050919050565b7f746f6f206561726c7920746f207769746864726177206f7220636c696666206e60008201527f6f742066696e6973686564000000000000000000000000000000000000000000602082015250565b6000611e4c602b83611b34565b9150611e5782611df0565b604082019050919050565b60006020820190508181036000830152611e7b81611e3f565b9050919050565b7f6e6f20746f6b656e7320617661696c61626c6520746f20776974686472617700600082015250565b6000611eb8601f83611b34565b9150611ec382611e82565b602082019050919050565b60006020820190508181036000830152611ee781611eab565b9050919050565b6000604082019050611f0360008301856118d5565b611f106020830184611936565b9392505050565b611f2081611825565b8114611f2b57600080fd5b50565b600081519050611f3d81611f17565b92915050565b600060208284031215611f5957611f58611746565b5b6000611f6784828501611f2e565b91505092915050565b6000611f7b8261192c565b9150611f868361192c565b925082821015611f9957611f98611c43565b5b828203905092915050565b6000604082019050611fb96000830185611936565b611fc66020830184611936565b9392505050565b7f76657374696e67207363686564756c6520616c7265616479206578697374732060008201527f666f7220676976656e2062656e65666963696172790000000000000000000000602082015250565b6000612029603583611b34565b915061203482611fcd565b604082019050919050565b600060208201905081810360008301526120588161201c565b9050919050565b60008151905061206e816119d2565b92915050565b60006020828403121561208a57612089611746565b5b60006120988482850161205f565b91505092915050565b7f706c6561736520616c6c6f636174652074686520746f6b656e7320746f20746860008201527f6520636f6e747261637400000000000000000000000000000000000000000000602082015250565b60006120fd602a83611b34565b9150612108826120a1565b604082019050919050565b6000602082019050818103600083015261212c816120f0565b9050919050565b7f63616c6c6572206973206e6f7420746865204f776e6572206f722053656c6600600082015250565b6000612169601f83611b34565b915061217482612133565b602082019050919050565b600060208201905081810360008301526121988161215c565b9050919050565b7f4e487b7100000000000000000000000000000000000000000000000000000000600052601260045260246000fd5b60006121d98261192c565b91506121e48361192c565b9250826121f4576121f361219f565b5b828204905092915050565b600061220a826117a9565b9150612215836117a9565b92508282101561222857612227611c43565b5b828203905092915050565b600061223e826117a9565b9150612249836117a9565b9250826122595761225861219f565b5b828204905092915050565b600061226f826117a9565b915061227a836117a9565b92508163ffffffff048311821515161561229757612296611c43565b5b828202905092915050565b60006122ad8261192c565b91506122b88361192c565b9250817fffffffffffffffffffffffffffffffffffffffffffffffffffffffffffffffff04831182151516156122f1576122f0611c43565b5b828202905092915050565b7f696e76616c69642076657374696e67207363686564756c650000000000000000600082015250565b6000612332601883611b34565b915061233d826122fc565b602082019050919050565b6000602082019050818103600083015261236181612325565b9050919050565b6000612373826117a9565b915061237e836117a9565b92508261238e5761238d61219f565b5b828206905092915050565b7f696e76616c696420636c6966662f6475726174696f6e20666f7220696e74657260008201527f76616c0000000000000000000000000000000000000000000000000000000000602082015250565b60006123f5602383611b34565b915061240082612399565b604082019050919050565b60006020820190508181036000830152612424816123e8565b9050919050565b7f6772616e7420616c726561647920657869737473000000000000000000000000600082015250565b6000612461601483611b34565b915061246c8261242b565b602082019050919050565b6000602082019050818103600083015261249081612454565b9050919050565b7f696e76616c69642076657374696e6720706172616d7300000000000000000000600082015250565b60006124cd601683611b34565b91506124d882612497565b602082019050919050565b600060208201905081810360008301526124fc816124c0565b905091905056fea2646970667358221220535f15fe33dc0b2455a58aab53f90162c67778a7bff4a669c69009bf03db794164736f6c634300080b0033",
  "immutableReferences": {},
  "source": "// SPDX-License-Identifier: MIT\npragma solidity ^0.8.0;\n\nimport \"@openzeppelin/contracts/token/ERC20/IERC20.sol\";\n\ncontract Vesting {\n\n    // Structs\n    struct VestingSchedule {\n        uint32 startDay; /* Start day of the grant, in days since the UNIX epoch (start of day). */\n        uint32 cliffDuration; /* Duration of the cliff, with respect to the grant start day, in days. */\n        uint32 duration; /* Duration of the vesting schedule, with respect to the grant start day, in days. */\n        uint32 interval; /* Duration in days of the vesting interval. */\n        uint256 amount; /* Total number of tokens that vest. */\n        bool isActive;\n    }\n\n    // Mappings\n    mapping(address => VestingSchedule) public _vestingSchedules;\n\n    // // Date-related constants for sanity-checking dates to reject obvious erroneous inputs\n    // // and conversions from seconds to days and years that are more or less leap year-aware.\n    // uint32 private constant THOUSAND_YEARS_DAYS = 365243; /* See https://www.timeanddate.com/date/durationresult.html?m1=1&d1=1&y1=2000&m2=1&d2=1&y2=3000 */\n    // uint32 private constant TEN_YEARS_DAYS = THOUSAND_YEARS_DAYS / 100; /* Includes leap years (though it doesn't really matter) */\n    // uint32 private constant JAN_1_2000_DAYS = 946684800 / (24 * 60 * 60);\n    // uint32 private constant JAN_1_3000_DAYS = JAN_1_2000_DAYS + 365243;\n\n    // Events\n    event VestingScheduleCreated(\n        address indexed beneficiary,\n        uint32 startDay,\n        uint32 cliffDuration,\n        uint32 duration,\n        uint32 interval,\n        uint256 amount,\n        bool isActive\n    );\n\n    event GrantRevoked(\n        address indexed grantHolder, \n        uint32 onDay\n    );\n\n    event VestingTokensGranted(\n        address indexed beneficiary,\n        uint256 withdrawAmount,\n        uint256 pendingAmount\n    );\n\n    // Global variables\n    address public admin;\n    address payable feeAccount;\n    uint32 public fee;\n    IERC20 public token;\n    \n    constructor(IERC20 _token, uint32 _fee, address payable _feeAccount) {\n        require(address(_token) != address(0));\n        admin = msg.sender;\n        fee = _fee;\n        feeAccount = _feeAccount;\n        token = _token;\n    }\n\n    // ============================================================================\n    // === Methods for administratively creating a vesting schedule for an account.\n    // ============================================================================\n    \n    function vestingFee() public view virtual returns (uint32) {\n        return fee;\n    }\n\n    function vestingFeeAccount() public view virtual returns (address) {\n        return feeAccount;\n    }\n\n    function vestingToken() public view virtual returns (IERC20) {\n        return token;\n    }\n\n    function addVestingSchedule(\n        address _beneficiary,\n        uint32 _startDay,\n        uint32 _cliffDuration,\n        uint32 _duration,\n        uint32 _interval,\n        uint256 _amount\n    ) external payable onlyOwner {\n        require(\n            !hasVestingSchedule(_beneficiary),\n            \"vesting schedule already exists for given beneficiary\"\n        );\n        // Check that the contract has the balance allocated before setting the vesting\n        // PENDING\n\n        require(token.balanceOf(address(this)) >= _amount, \"please allocate the tokens to the contract\");\n\n        setVestingSchedule(\n            _beneficiary,\n            _startDay,\n            _cliffDuration,\n            _duration,\n            _interval,\n            _amount\n        );\n\n    }\n\n    modifier onlyOwner() {\n        // Distinguish insufficient overall balance from insufficient vested funds balance in failure msg.\n        require(msg.sender == admin, \"only owner can call this function\");\n        _;\n    }\n\n    function hasVestingSchedule(address account)\n        internal\n        view\n        returns (bool ok)\n    {\n        return _vestingSchedules[account].isActive;\n    }\n\n    function setVestingSchedule(\n        address _beneficiary,\n        uint32 _startDay, /* Start day of the grant, in days since the UNIX epoch (start of day). */\n        uint32 _cliffDuration, /* Duration of the cliff, with respect to the grant start day, in days. */\n        uint32 _duration, /* Duration of the vesting schedule, with respect to the grant start day, in days. */\n        uint32 _interval, /* Duration in days of the vesting interval. */\n        uint256 _amount /* Total number of tokens that vest. */\n    ) internal returns (bool ok) {\n        // Check for a valid vesting schedule given (disallow absurd values to reject likely bad input).\n        require(\n            _duration > 0 &&\n                //_duration <= TEN_YEARS_DAYS &&\n                _duration <= 3652 &&\n                _cliffDuration < _duration &&\n                _interval >= 1,\n            \"invalid vesting schedule\"\n        );\n\n        // Make sure the duration values are in harmony with interval (both should be an exact multiple of interval).\n        require(\n            _duration % _interval == 0 && _cliffDuration % _interval == 0,\n            \"invalid cliff/duration for interval\"\n        );\n\n        // Make sure no prior vesting is in effect for this beneficiary\n        require(!_vestingSchedules[_beneficiary].isActive, \"grant already exists\");\n\n        // Check for valid vestingAmount\n        require(\n                _amount > 0 &&\n                //_startDay >= JAN_1_2000_DAYS &&\n                //_startDay < JAN_1_3000_DAYS,\n                _startDay >= 10957 &&\n                _startDay < 376200,\n            \"invalid vesting params\"\n        );\n\n        // Create and populate a vesting schedule.\n        _vestingSchedules[_beneficiary] = VestingSchedule(\n            _startDay,\n            _cliffDuration,\n            _duration,\n            _interval,\n            _amount,\n            true /*isActive*/\n        );\n\n        // Emit the event and return success.\n        emit VestingScheduleCreated(\n            _beneficiary,\n            _startDay,\n            _cliffDuration,\n            _duration,\n            _interval,\n            _amount,\n            true /*isActive*/\n        );\n\n        return true;\n    }\n\n    function getVestingSchedule(address _beneficiary)\n        public\n        view\n        onlyAdminOrSelf(_beneficiary)\n        returns (\n            uint32 startDay,\n            uint32 cliffDuration,\n            uint32 duration,\n            uint32 interval,\n            uint256 amount,\n            bool isActive\n        )\n    {\n        return (\n            _vestingSchedules[_beneficiary].startDay,\n            _vestingSchedules[_beneficiary].cliffDuration,\n            _vestingSchedules[_beneficiary].duration,\n            _vestingSchedules[_beneficiary].interval,\n            _vestingSchedules[_beneficiary].amount,\n            _vestingSchedules[_beneficiary].isActive\n        );\n    }\n\n    modifier onlyAdminOrSelf(address _account) {\n        require(\n            msg.sender == admin || msg.sender == _account,\n            \"caller is not the Owner or Self\"\n        );\n        _;\n    }\n\n    function withdraw() external payable returns (bool ok) {\n        require(hasVestingSchedule(msg.sender), \"no vesting schedule for caller\");\n        VestingSchedule storage vesting = _vestingSchedules[msg.sender];\n        require(\n            today() >= vesting.startDay + vesting.cliffDuration,\n            \"too early to withdraw or cliff not finished\"\n        );\n        require(vesting.amount > 0);\n        require(vesting.isActive);\n        uint256 vestedAmount = getVestedAmount(msg.sender, today());\n        require(vestedAmount > 0, \"no tokens available to withdraw\");\n        token.transfer(msg.sender, vestedAmount);\n        /* Emits the VestingTokensGranted event. */\n        emit VestingTokensGranted(msg.sender, vestedAmount, vesting.amount - vestedAmount);\n        return true;\n    }\n\n    function getVestedAmount(address account, uint32 onDay)\n        internal\n        view\n        returns (uint256 amountAvailable)\n    {\n        uint256 totalTokens = _vestingSchedules[msg.sender].amount;\n        uint256 vested = totalTokens - getNotVestedAmount(account, onDay);\n        return vested;\n    }\n\n    /**\n     * @dev Determines the amount of tokens that have not vested in the given account.\n     *\n     * The math is: not vested amount = vesting amount * (end date - on date)/(end date - start date)\n     *\n     * @param account = The account to check.\n     * @param onDayOrToday = The day to check for, in days since the UNIX epoch. Can pass\n     *   the special value 0 to indicate today.\n     */\n    function getNotVestedAmount(address account, uint32 onDayOrToday)\n        internal\n        view\n        returns (uint256 amountNotVested)\n    {\n        VestingSchedule storage vesting = _vestingSchedules[account];\n        uint32 onDay = _effectiveDay(onDayOrToday);\n\n        // If there's no schedule, or before the vesting cliff, then the full amount is not vested.\n        if (\n            !vesting.isActive || onDay < vesting.startDay + vesting.cliffDuration\n        ) {\n            // None are vested (all are not vested)\n            return vesting.amount;\n        }\n        // If after end of vesting, then the not vested amount is zero (all are vested).\n        else if (onDay >= vesting.startDay + vesting.duration) {\n            // All are vested (none are not vested)\n            return uint256(0);\n        }\n        // Otherwise a fractional amount is vested.\n        else {\n            // Compute the exact number of days vested.\n            uint32 daysVested = onDay - vesting.startDay;\n            // Adjust result rounding down to take into consideration the interval.\n            uint32 effectiveDaysVested = (daysVested / vesting.interval) *\n                vesting.interval;\n\n            // Compute the fraction vested from schedule using 224.32 fixed point math for date range ratio.\n            // Note: This is safe in 256-bit math because max value of X billion tokens = X*10^27 wei, and\n            // typical token amounts can fit into 90 bits. Scaling using a 32 bits value results in only 125\n            // bits before reducing back to 90 bits by dividing. There is plenty of room left, even for token\n            // amounts many orders of magnitude greater than mere billions.\n            //uint256 vested = grant.amount.mul(effectiveDaysVested).div(vesting.duration);\n            uint256 vested = (vesting.amount * effectiveDaysVested) /\n                vesting.duration;\n            //return grant.amount.sub(vested);\n            return vesting.amount - vested;\n        }\n    }\n\n    // =========================================================================\n    // === Check vesting.\n    // =========================================================================\n\n    /**\n     * @dev returns the day number of the current day, in days since the UNIX epoch.\n     */\n    function today() public view returns (uint32 dayNumber) {\n        return uint32(block.timestamp / (24 * 60 * 60)); // Seconds per day\n    }\n\n    function _effectiveDay(uint32 onDayOrToday)\n        internal\n        view\n        returns (uint32 dayNumber)\n    {\n        return onDayOrToday == 0 ? today() : onDayOrToday;\n    }\n\n    /***\n     * @dev returns all information about the grant's vesting as of the given day\n     * for the given account. Only callable by the account holder or a grantor, so\n     * this is mainly intended for administrative use.\n     *\n     * @param grantHolder = The address to do this for.\n     * @param onDayOrToday = The day to check for, in days since the UNIX epoch. Can pass\n     *   the special value 0 to indicate today.\n     * @return = A tuple with the following values:\n     *   amountVested = the amount out of vestingAmount that is vested\n     *   amountNotVested = the amount that is vested (equal to vestingAmount - vestedAmount)\n     *   amountOfGrant = the amount of tokens subject to vesting.\n     *   vestStartDay = starting day of the grant (in days since the UNIX epoch).\n     *   vestDuration = grant duration in days.\n     *   cliffDuration = duration of the cliff.\n     *   vestIntervalDays = number of days between vesting periods.\n     *   isActive = true if the vesting schedule is currently active.\n     */\n    function vestingForAccountAsOf(address account, uint32 onDayOrToday)\n        public\n        view\n        onlyAdminOrSelf(account)\n        returns (\n            uint256 amountVested,\n            uint256 amountNotVested,\n            uint256 vestAmount,\n            uint32 vestStartDay,\n            uint32 vestDuration,\n            uint32 cliffDuration,\n            uint32 vestIntervalDays,\n            bool isActive\n        )\n    {\n        VestingSchedule storage vesting = _vestingSchedules[account];\n        uint256 notVestedAmount = getNotVestedAmount(account, onDayOrToday);\n        uint256 vestingAmount = vesting.amount;\n\n        return (\n            vestingAmount - notVestedAmount,\n            notVestedAmount,\n            vestingAmount,\n            vesting.startDay,\n            vesting.duration,\n            vesting.cliffDuration,\n            vesting.interval,\n            vesting.isActive\n        );\n    }\n\n    /***\n     * @dev returns all information about the grant's vesting as of the given day\n     * for the current account, to be called by the account holder.\n     *\n     * @param onDayOrToday = The day to check for, in days since the UNIX epoch. Can pass\n     *   the special value 0 to indicate today.\n     * @return = A tuple with the following values:\n     *   amountVested = the amount out of vestingAmount that is vested\n     *   amountNotVested = the amount that is vested (equal to vestingAmount - vestedAmount)\n     *   amountOfGrant = the amount of tokens subject to vesting.\n     *   vestStartDay = starting day of the grant (in days since the UNIX epoch).\n     *   cliffDuration = duration of the cliff.\n     *   vestDuration = grant duration in days.\n     *   vestIntervalDays = number of days between vesting periods.\n     *   isActive = true if the vesting schedule is currently active.\n     *   wasRevoked = true if the vesting schedule was revoked.\n     */\n    function vestingAsOf(uint32 onDayOrToday)\n        public\n        view\n        returns (\n            uint256 amountVested,\n            uint256 amountNotVested,\n            uint256 vestAmount,\n            uint32 vestStartDay,\n            uint32 vestDuration,\n            uint32 cliffDuration,\n            uint32 vestIntervalDays,\n            bool isActive\n        )\n    {\n        return vestingForAccountAsOf(msg.sender, onDayOrToday);\n    }\n\n    /**\n     * @dev returns true if the account has sufficient funds available to cover the given amount,\n     *   including consideration for vesting tokens.\n     *\n     * @param account = The account to check.\n     * @param amount = The required amount of vested funds.\n     * @param onDay = The day to check for, in days since the UNIX epoch.\n     */\n    function _fundsAreAvailableOn(\n        address account,\n        uint256 amount,\n        uint32 onDay\n    ) internal view returns (bool ok) {\n        return (amount <= getVestedAmount(account, onDay));\n    }\n\n    /**\n     * @dev Modifier to make a function callable only when the amount is sufficiently vested right now.\n     *\n     * @param account = The account to check.\n     * @param amount = The required amount of vested funds.\n     */\n    modifier onlyIfFundsAvailableNow(address account, uint256 amount) {\n        // Distinguish insufficient overall balance from insufficient vested funds balance in failure msg.\n        require(\n            _fundsAreAvailableOn(account, amount, today()),\n            token.balanceOf(account) < amount\n                ? \"insufficient funds\"\n                : \"insufficient vested funds\"\n        );\n        _;\n    }\n\n    // =========================================================================\n    // === Grant revocation\n    // =========================================================================\n\n    /***\n     * @dev If the account has a revocable grant, this forces the grant to end based on computing\n     * the amount vested up to the given date. All tokens that would no longer vest are returned\n     * to the account of the original grantor.\n     *\n     * @param grantHolder = Address to which tokens will be granted.\n     * @param onDay = The date upon which the vesting schedule will be effectively terminated,\n     *   in days since the UNIX epoch (start of day).\n     */\n    function revokeVesting(address account, uint32 onDay)\n        public\n        onlyOwner\n        returns (bool ok)\n    {\n        VestingSchedule storage vesting = _vestingSchedules[account];\n        uint256 notVestedAmount;\n\n        // Make sure a vesting schedule has previously been set.\n        require(vesting.isActive, \"no active vesting\");\n        // Fail on likely erroneous input.\n        require(onDay <= vesting.startDay + vesting.duration, \"no effect\");\n        // Don\"t let grantor revoke anf portion of vested amount.\n        require(onDay >= today(), \"cannot revoke vested holdings\");\n\n        notVestedAmount = getNotVestedAmount(account, onDay);\n\n        // Kill the grant by updating isActive.\n        _vestingSchedules[account].isActive = false;\n\n        /* Emits the GrantRevoked event. */\n        emit GrantRevoked(account, onDay);\n        \n        return true;\n\n    }\n\n}\n",
  "sourcePath": "/home/matifalcone/Blockchain/BSC/vesting/contracts/Vesting.sol",
  "compiler": {
    "name": "solc",
    "version": "0.8.11+commit.d7f03943.Emscripten.clang"
  },
  "schemaVersion": "3.4.4",
  "updatedAt": "2022-02-11T03:22:10.066Z",
  "devdoc": {
    "kind": "dev",
    "methods": {
      "today()": {
        "details": "returns the day number of the current day, in days since the UNIX epoch."
      }
    },
    "version": 1
  },
  "userdoc": {
    "kind": "user",
    "methods": {},
    "version": 1
  }
}