{
  "contractName": "Vesting",
  "abi": [
    {
      "inputs": [
        {
          "internalType": "contract IERC20",
          "name": "_token",
          "type": "address"
        },
        {
          "internalType": "uint32",
          "name": "_fee",
          "type": "uint32"
        },
        {
          "internalType": "address payable",
          "name": "_feeAccount",
          "type": "address"
        }
      ],
      "stateMutability": "nonpayable",
      "type": "constructor"
    },
    {
      "anonymous": false,
      "inputs": [
        {
          "indexed": true,
          "internalType": "address",
          "name": "grantHolder",
          "type": "address"
        },
        {
          "indexed": false,
          "internalType": "uint32",
          "name": "onDay",
          "type": "uint32"
        }
      ],
      "name": "GrantRevoked",
      "type": "event"
    },
    {
      "anonymous": false,
      "inputs": [
        {
          "indexed": false,
          "internalType": "address",
          "name": "feeAccount",
          "type": "address"
        },
        {
          "indexed": false,
          "internalType": "uint256",
          "name": "originalValue",
          "type": "uint256"
        },
        {
          "indexed": false,
          "internalType": "uint256",
          "name": "amount",
          "type": "uint256"
        },
        {
          "indexed": false,
          "internalType": "uint256",
          "name": "fee",
          "type": "uint256"
        }
      ],
      "name": "VestingFeeCollected",
      "type": "event"
    },
    {
      "anonymous": false,
      "inputs": [
        {
          "indexed": true,
          "internalType": "address",
          "name": "beneficiary",
          "type": "address"
        },
        {
          "indexed": false,
          "internalType": "uint32",
          "name": "startDay",
          "type": "uint32"
        },
        {
          "indexed": false,
          "internalType": "uint32",
          "name": "cliffDuration",
          "type": "uint32"
        },
        {
          "indexed": false,
          "internalType": "uint32",
          "name": "duration",
          "type": "uint32"
        },
        {
          "indexed": false,
          "internalType": "uint32",
          "name": "interval",
          "type": "uint32"
        },
        {
          "indexed": false,
          "internalType": "uint256",
          "name": "amount",
          "type": "uint256"
        },
        {
          "indexed": false,
          "internalType": "bool",
          "name": "isActive",
          "type": "bool"
        }
      ],
      "name": "VestingScheduleCreated",
      "type": "event"
    },
    {
      "anonymous": false,
      "inputs": [
        {
          "indexed": true,
          "internalType": "address",
          "name": "beneficiary",
          "type": "address"
        },
        {
          "indexed": false,
          "internalType": "uint256",
          "name": "withdrawAmount",
          "type": "uint256"
        },
        {
          "indexed": false,
          "internalType": "uint256",
          "name": "pendingAmount",
          "type": "uint256"
        }
      ],
      "name": "VestingTokensGranted",
      "type": "event"
    },
    {
      "inputs": [
        {
          "internalType": "address",
          "name": "",
          "type": "address"
        }
      ],
      "name": "_vestingSchedules",
      "outputs": [
        {
          "internalType": "uint32",
          "name": "startDay",
          "type": "uint32"
        },
        {
          "internalType": "uint32",
          "name": "cliffDuration",
          "type": "uint32"
        },
        {
          "internalType": "uint32",
          "name": "duration",
          "type": "uint32"
        },
        {
          "internalType": "uint32",
          "name": "interval",
          "type": "uint32"
        },
        {
          "internalType": "uint256",
          "name": "amount",
          "type": "uint256"
        },
        {
          "internalType": "bool",
          "name": "isActive",
          "type": "bool"
        }
      ],
      "stateMutability": "view",
      "type": "function"
    },
    {
      "inputs": [],
      "name": "admin",
      "outputs": [
        {
          "internalType": "address",
          "name": "",
          "type": "address"
        }
      ],
      "stateMutability": "view",
      "type": "function"
    },
    {
      "inputs": [],
      "name": "fee",
      "outputs": [
        {
          "internalType": "uint32",
          "name": "",
          "type": "uint32"
        }
      ],
      "stateMutability": "view",
      "type": "function"
    },
    {
      "inputs": [],
      "name": "token",
      "outputs": [
        {
          "internalType": "contract IERC20",
          "name": "",
          "type": "address"
        }
      ],
      "stateMutability": "view",
      "type": "function"
    },
    {
      "inputs": [
        {
          "internalType": "uint256",
          "name": "amount",
          "type": "uint256"
        }
      ],
      "name": "deposit",
      "outputs": [
        {
          "internalType": "bool",
          "name": "ok",
          "type": "bool"
        }
      ],
      "stateMutability": "nonpayable",
      "type": "function"
    },
    {
      "inputs": [],
      "name": "vestingFee",
      "outputs": [
        {
          "internalType": "uint32",
          "name": "",
          "type": "uint32"
        }
      ],
      "stateMutability": "view",
      "type": "function"
    },
    {
      "inputs": [],
      "name": "vestingFeeAccount",
      "outputs": [
        {
          "internalType": "address",
          "name": "",
          "type": "address"
        }
      ],
      "stateMutability": "view",
      "type": "function"
    },
    {
      "inputs": [],
      "name": "vestingToken",
      "outputs": [
        {
          "internalType": "contract IERC20",
          "name": "",
          "type": "address"
        }
      ],
      "stateMutability": "view",
      "type": "function"
    },
    {
      "inputs": [
        {
          "internalType": "address",
          "name": "_beneficiary",
          "type": "address"
        },
        {
          "internalType": "uint32",
          "name": "_startDay",
          "type": "uint32"
        },
        {
          "internalType": "uint32",
          "name": "_cliffDuration",
          "type": "uint32"
        },
        {
          "internalType": "uint32",
          "name": "_duration",
          "type": "uint32"
        },
        {
          "internalType": "uint32",
          "name": "_interval",
          "type": "uint32"
        },
        {
          "internalType": "uint256",
          "name": "_amount",
          "type": "uint256"
        }
      ],
      "name": "addVestingSchedule",
      "outputs": [],
      "stateMutability": "nonpayable",
      "type": "function"
    },
    {
      "inputs": [
        {
          "internalType": "address",
          "name": "_beneficiary",
          "type": "address"
        }
      ],
      "name": "getVestingSchedule",
      "outputs": [
        {
          "internalType": "uint32",
          "name": "startDay",
          "type": "uint32"
        },
        {
          "internalType": "uint32",
          "name": "cliffDuration",
          "type": "uint32"
        },
        {
          "internalType": "uint32",
          "name": "duration",
          "type": "uint32"
        },
        {
          "internalType": "uint32",
          "name": "interval",
          "type": "uint32"
        },
        {
          "internalType": "uint256",
          "name": "amount",
          "type": "uint256"
        },
        {
          "internalType": "bool",
          "name": "isActive",
          "type": "bool"
        }
      ],
      "stateMutability": "view",
      "type": "function"
    },
    {
      "inputs": [
        {
          "internalType": "address",
          "name": "_from",
          "type": "address"
        },
        {
          "internalType": "address",
          "name": "_to",
          "type": "address"
        }
      ],
      "name": "transferVestingSchedule",
      "outputs": [
        {
          "internalType": "bool",
          "name": "ok",
          "type": "bool"
        }
      ],
      "stateMutability": "nonpayable",
      "type": "function"
    },
    {
      "inputs": [],
      "name": "withdraw",
      "outputs": [
        {
          "internalType": "bool",
          "name": "ok",
          "type": "bool"
        }
      ],
      "stateMutability": "nonpayable",
      "type": "function"
    },
    {
      "inputs": [],
      "name": "today",
      "outputs": [
        {
          "internalType": "uint32",
          "name": "dayNumber",
          "type": "uint32"
        }
      ],
      "stateMutability": "view",
      "type": "function"
    },
    {
      "inputs": [
        {
          "internalType": "address",
          "name": "account",
          "type": "address"
        },
        {
          "internalType": "uint32",
          "name": "onDayOrToday",
          "type": "uint32"
        }
      ],
      "name": "vestingForAccountAsOf",
      "outputs": [
        {
          "internalType": "uint256",
          "name": "amountVested",
          "type": "uint256"
        },
        {
          "internalType": "uint256",
          "name": "amountNotVested",
          "type": "uint256"
        },
        {
          "internalType": "uint256",
          "name": "vestAmount",
          "type": "uint256"
        },
        {
          "internalType": "uint32",
          "name": "vestStartDay",
          "type": "uint32"
        },
        {
          "internalType": "uint32",
          "name": "vestDuration",
          "type": "uint32"
        },
        {
          "internalType": "uint32",
          "name": "cliffDuration",
          "type": "uint32"
        },
        {
          "internalType": "uint32",
          "name": "vestIntervalDays",
          "type": "uint32"
        },
        {
          "internalType": "bool",
          "name": "isActive",
          "type": "bool"
        }
      ],
      "stateMutability": "view",
      "type": "function"
    },
    {
      "inputs": [
        {
          "internalType": "uint32",
          "name": "onDayOrToday",
          "type": "uint32"
        }
      ],
      "name": "vestingAsOf",
      "outputs": [
        {
          "internalType": "uint256",
          "name": "amountVested",
          "type": "uint256"
        },
        {
          "internalType": "uint256",
          "name": "amountNotVested",
          "type": "uint256"
        },
        {
          "internalType": "uint256",
          "name": "vestAmount",
          "type": "uint256"
        },
        {
          "internalType": "uint32",
          "name": "vestStartDay",
          "type": "uint32"
        },
        {
          "internalType": "uint32",
          "name": "vestDuration",
          "type": "uint32"
        },
        {
          "internalType": "uint32",
          "name": "cliffDuration",
          "type": "uint32"
        },
        {
          "internalType": "uint32",
          "name": "vestIntervalDays",
          "type": "uint32"
        },
        {
          "internalType": "bool",
          "name": "isActive",
          "type": "bool"
        }
      ],
      "stateMutability": "view",
      "type": "function"
    },
    {
      "inputs": [
        {
          "internalType": "address",
          "name": "account",
          "type": "address"
        },
        {
          "internalType": "uint32",
          "name": "onDay",
          "type": "uint32"
        }
      ],
      "name": "revokeVesting",
      "outputs": [
        {
          "internalType": "bool",
          "name": "ok",
          "type": "bool"
        }
      ],
      "stateMutability": "nonpayable",
      "type": "function"
    }
  ],
  "bytecode": "0x60806040523480156200001157600080fd5b5060405162002fb638038062002fb6833981810160405281019062000037919062000263565b600073ffffffffffffffffffffffffffffffffffffffff168373ffffffffffffffffffffffffffffffffffffffff1614156200007257600080fd5b33600160006101000a81548173ffffffffffffffffffffffffffffffffffffffff021916908373ffffffffffffffffffffffffffffffffffffffff16021790555081600260146101000a81548163ffffffff021916908363ffffffff16021790555080600260006101000a81548173ffffffffffffffffffffffffffffffffffffffff021916908373ffffffffffffffffffffffffffffffffffffffff16021790555082600360006101000a81548173ffffffffffffffffffffffffffffffffffffffff021916908373ffffffffffffffffffffffffffffffffffffffff160217905550505050620002bf565b600080fd5b600073ffffffffffffffffffffffffffffffffffffffff82169050919050565b6000620001918262000164565b9050919050565b6000620001a58262000184565b9050919050565b620001b78162000198565b8114620001c357600080fd5b50565b600081519050620001d781620001ac565b92915050565b600063ffffffff82169050919050565b620001f881620001dd565b81146200020457600080fd5b50565b6000815190506200021881620001ed565b92915050565b60006200022b8262000164565b9050919050565b6200023d816200021e565b81146200024957600080fd5b50565b6000815190506200025d8162000232565b92915050565b6000806000606084860312156200027f576200027e6200015f565b5b60006200028f86828701620001c6565b9350506020620002a28682870162000207565b9250506040620002b5868287016200024c565b9150509250925092565b612ce780620002cf6000396000f3fe608060405234801561001057600080fd5b50600436106101005760003560e01c80639f82906311610097578063ddca3f4311610066578063ddca3f43146102ea578063e6a3bd9e14610308578063f851a4401461033d578063fc0c546a1461035b57610100565b80639f82906314610230578063b6b55f2514610265578063b74e452b14610295578063d56ad0ba146102b357610100565b80632455a035116100d35780632455a035146101a15780633ccfd60b146101d857806367fabe24146101f65780638334c1bf1461021257610100565b806301768db8146101055780631348ea701461013557806319d152fa146101655780631c8658b314610183575b600080fd5b61011f600480360381019061011a9190611cfd565b610379565b60405161012c9190611d58565b60405180910390f35b61014f600480360381019061014a9190611d73565b610629565b60405161015c9190611d58565b60405180910390f35b61016d610895565b60405161017a9190611e12565b60405180910390f35b61018b6108bf565b6040516101989190611e3c565b60405180910390f35b6101bb60048036038101906101b69190611e57565b6108e9565b6040516101cf989796959493929190611eac565b60405180910390f35b6101e061091a565b6040516101ed9190611d58565b60405180910390f35b610210600480360381019061020b9190611f56565b610bbc565b005b61021a610d8a565b6040516102279190611fe3565b60405180910390f35b61024a60048036038101906102459190611ffe565b610da4565b60405161025c9695949392919061202b565b60405180910390f35b61027f600480360381019061027a919061208c565b611063565b60405161028c9190611d58565b60405180910390f35b61029d6112fd565b6040516102aa9190611fe3565b60405180910390f35b6102cd60048036038101906102c89190611cfd565b611313565b6040516102e1989796959493929190611eac565b60405180910390f35b6102f26114d4565b6040516102ff9190611fe3565b60405180910390f35b610322600480360381019061031d9190611ffe565b6114ea565b6040516103349695949392919061202b565b60405180910390f35b610345611573565b6040516103529190611e3c565b60405180910390f35b610363611599565b6040516103709190611e12565b60405180910390f35b6000600160009054906101000a900473ffffffffffffffffffffffffffffffffffffffff1673ffffffffffffffffffffffffffffffffffffffff163373ffffffffffffffffffffffffffffffffffffffff161461040b576040517f08c379a00000000000000000000000000000000000000000000000000000000081526004016104029061213c565b60405180910390fd5b60008060008573ffffffffffffffffffffffffffffffffffffffff1673ffffffffffffffffffffffffffffffffffffffff16815260200190815260200160002090508060020160009054906101000a900460ff1661049e576040517f08c379a0000000000000000000000000000000000000000000000000000000008152600401610495906121a8565b60405180910390fd5b8060000160089054906101000a900463ffffffff168160000160009054906101000a900463ffffffff166104d291906121f7565b63ffffffff168363ffffffff161115610520576040517f08c379a00000000000000000000000000000000000000000000000000000000081526004016105179061227d565b60405180910390fd5b6105286112fd565b63ffffffff168363ffffffff161015610576576040517f08c379a000000000000000000000000000000000000000000000000000000000815260040161056d906122e9565b60405180910390fd5b60008060008673ffffffffffffffffffffffffffffffffffffffff1673ffffffffffffffffffffffffffffffffffffffff16815260200190815260200160002060020160006101000a81548160ff0219169083151502179055508373ffffffffffffffffffffffffffffffffffffffff167f906c0c4c98565a396c542d9102cae7a794e84af6763123e068a1b277333bf4a4846040516106169190611fe3565b60405180910390a2600191505092915050565b600082600160009054906101000a900473ffffffffffffffffffffffffffffffffffffffff1673ffffffffffffffffffffffffffffffffffffffff163373ffffffffffffffffffffffffffffffffffffffff1614806106b357508073ffffffffffffffffffffffffffffffffffffffff163373ffffffffffffffffffffffffffffffffffffffff16145b6106f2576040517f08c379a00000000000000000000000000000000000000000000000000000000081526004016106e990612355565b60405180910390fd5b6106fb336115bf565b61073a576040517f08c379a0000000000000000000000000000000000000000000000000000000008152600401610731906123c1565b60405180910390fd5b610743836115bf565b610782576040517f08c379a000000000000000000000000000000000000000000000000000000000815260040161077990612453565b60405180910390fd5b60008060003373ffffffffffffffffffffffffffffffffffffffff1673ffffffffffffffffffffffffffffffffffffffff16815260200190815260200160002090508060020160009054906101000a900460ff16610815576040517f08c379a000000000000000000000000000000000000000000000000000000000815260040161080c906124e5565b60405180910390fd5b610877848260000160009054906101000a900463ffffffff168360000160049054906101000a900463ffffffff168460000160089054906101000a900463ffffffff1685600001600c9054906101000a900463ffffffff168660010154610bbc565b610888856108836112fd565b610379565b5060019250505092915050565b6000600360009054906101000a900473ffffffffffffffffffffffffffffffffffffffff16905090565b6000600260009054906101000a900473ffffffffffffffffffffffffffffffffffffffff16905090565b6000806000806000806000806108ff338a611313565b97509750975097509750975097509750919395975091939597565b6000610925336115bf565b610964576040517f08c379a000000000000000000000000000000000000000000000000000000000815260040161095b906123c1565b60405180910390fd5b60008060003373ffffffffffffffffffffffffffffffffffffffff1673ffffffffffffffffffffffffffffffffffffffff16815260200190815260200160002090508060000160049054906101000a900463ffffffff168160000160009054906101000a900463ffffffff166109da91906121f7565b63ffffffff166109e86112fd565b63ffffffff161015610a2f576040517f08c379a0000000000000000000000000000000000000000000000000000000008152600401610a2690612577565b60405180910390fd5b6000816001015411610a4057600080fd5b8060020160009054906101000a900460ff16610a5b57600080fd5b6000610a6e33610a696112fd565b611617565b905060008111610ab3576040517f08c379a0000000000000000000000000000000000000000000000000000000008152600401610aaa906125e3565b60405180910390fd5b600360009054906101000a900473ffffffffffffffffffffffffffffffffffffffff1673ffffffffffffffffffffffffffffffffffffffff1663a9059cbb33836040518363ffffffff1660e01b8152600401610b10929190612603565b6020604051808303816000875af1158015610b2f573d6000803e3d6000fd5b505050506040513d601f19601f82011682018060405250810190610b539190612658565b503373ffffffffffffffffffffffffffffffffffffffff167fd4d6d82bf6e034534952089abb98bc3e058454f1219d797ae62275271a8eedc482838560010154610b9d9190612685565b604051610bab9291906126b9565b60405180910390a260019250505090565b600160009054906101000a900473ffffffffffffffffffffffffffffffffffffffff1673ffffffffffffffffffffffffffffffffffffffff163373ffffffffffffffffffffffffffffffffffffffff1614610c4c576040517f08c379a0000000000000000000000000000000000000000000000000000000008152600401610c439061213c565b60405180910390fd5b610c55866115bf565b15610c95576040517f08c379a0000000000000000000000000000000000000000000000000000000008152600401610c8c90612754565b60405180910390fd5b80600360009054906101000a900473ffffffffffffffffffffffffffffffffffffffff1673ffffffffffffffffffffffffffffffffffffffff166370a08231306040518263ffffffff1660e01b8152600401610cf19190611e3c565b602060405180830381865afa158015610d0e573d6000803e3d6000fd5b505050506040513d601f19601f82011682018060405250810190610d329190612789565b1015610d73576040517f08c379a0000000000000000000000000000000000000000000000000000000008152600401610d6a90612828565b60405180910390fd5b610d81868686868686611682565b50505050505050565b6000600260149054906101000a900463ffffffff16905090565b60008060008060008086600160009054906101000a900473ffffffffffffffffffffffffffffffffffffffff1673ffffffffffffffffffffffffffffffffffffffff163373ffffffffffffffffffffffffffffffffffffffff161480610e3557508073ffffffffffffffffffffffffffffffffffffffff163373ffffffffffffffffffffffffffffffffffffffff16145b610e74576040517f08c379a0000000000000000000000000000000000000000000000000000000008152600401610e6b90612355565b60405180910390fd5b6000808973ffffffffffffffffffffffffffffffffffffffff1673ffffffffffffffffffffffffffffffffffffffff16815260200190815260200160002060000160009054906101000a900463ffffffff166000808a73ffffffffffffffffffffffffffffffffffffffff1673ffffffffffffffffffffffffffffffffffffffff16815260200190815260200160002060000160049054906101000a900463ffffffff166000808b73ffffffffffffffffffffffffffffffffffffffff1673ffffffffffffffffffffffffffffffffffffffff16815260200190815260200160002060000160089054906101000a900463ffffffff166000808c73ffffffffffffffffffffffffffffffffffffffff1673ffffffffffffffffffffffffffffffffffffffff168152602001908152602001600020600001600c9054906101000a900463ffffffff166000808d73ffffffffffffffffffffffffffffffffffffffff1673ffffffffffffffffffffffffffffffffffffffff168152602001908152602001600020600101546000808e73ffffffffffffffffffffffffffffffffffffffff1673ffffffffffffffffffffffffffffffffffffffff16815260200190815260200160002060020160009054906101000a900460ff169650965096509650965096505091939550919395565b6000600160009054906101000a900473ffffffffffffffffffffffffffffffffffffffff1673ffffffffffffffffffffffffffffffffffffffff163373ffffffffffffffffffffffffffffffffffffffff16146110f5576040517f08c379a00000000000000000000000000000000000000000000000000000000081526004016110ec9061213c565b60405180910390fd5b6000821161110257600080fd5b600061110d83611a2b565b9050600360009054906101000a900473ffffffffffffffffffffffffffffffffffffffff1673ffffffffffffffffffffffffffffffffffffffff166323b872dd3330848761115b9190612685565b6040518463ffffffff1660e01b815260040161117993929190612848565b6020604051808303816000875af1158015611198573d6000803e3d6000fd5b505050506040513d601f19601f820116820180604052508101906111bc9190612658565b50600360009054906101000a900473ffffffffffffffffffffffffffffffffffffffff1673ffffffffffffffffffffffffffffffffffffffff166323b872dd33600260009054906101000a900473ffffffffffffffffffffffffffffffffffffffff16846040518463ffffffff1660e01b815260040161123e939291906128a0565b6020604051808303816000875af115801561125d573d6000803e3d6000fd5b505050506040513d601f19601f820116820180604052508101906112819190612658565b507f0c9dc974502aff5bc597122cf29d6636025536a9d5961a5e1cec988ce1207089600260009054906101000a900473ffffffffffffffffffffffffffffffffffffffff168483600260149054906101000a900463ffffffff166040516112eb9493929190612908565b60405180910390a16001915050919050565b6000620151804261130e919061297c565b905090565b60008060008060008060008089600160009054906101000a900473ffffffffffffffffffffffffffffffffffffffff1673ffffffffffffffffffffffffffffffffffffffff163373ffffffffffffffffffffffffffffffffffffffff1614806113a757508073ffffffffffffffffffffffffffffffffffffffff163373ffffffffffffffffffffffffffffffffffffffff16145b6113e6576040517f08c379a00000000000000000000000000000000000000000000000000000000081526004016113dd90612355565b60405180910390fd5b60008060008d73ffffffffffffffffffffffffffffffffffffffff1673ffffffffffffffffffffffffffffffffffffffff168152602001908152602001600020905060006114348d8d611a65565b9050600082600101549050818161144b9190612685565b82828560000160009054906101000a900463ffffffff168660000160089054906101000a900463ffffffff168760000160049054906101000a900463ffffffff1688600001600c9054906101000a900463ffffffff168960020160009054906101000a900460ff169b509b509b509b509b509b509b509b50505050509295985092959890939650565b600260149054906101000a900463ffffffff1681565b60006020528060005260406000206000915090508060000160009054906101000a900463ffffffff16908060000160049054906101000a900463ffffffff16908060000160089054906101000a900463ffffffff169080600001600c9054906101000a900463ffffffff16908060010154908060020160009054906101000a900460ff16905086565b600160009054906101000a900473ffffffffffffffffffffffffffffffffffffffff1681565b600360009054906101000a900473ffffffffffffffffffffffffffffffffffffffff1681565b60008060008373ffffffffffffffffffffffffffffffffffffffff1673ffffffffffffffffffffffffffffffffffffffff16815260200190815260200160002060020160009054906101000a900460ff169050919050565b6000806000803373ffffffffffffffffffffffffffffffffffffffff1673ffffffffffffffffffffffffffffffffffffffff168152602001908152602001600020600101549050600061166a8585611a65565b826116759190612685565b9050809250505092915050565b6000808463ffffffff161180156116a15750610e448463ffffffff1611155b80156116b857508363ffffffff168563ffffffff16105b80156116cb575060018363ffffffff1610155b61170a576040517f08c379a0000000000000000000000000000000000000000000000000000000008152600401611701906129f9565b60405180910390fd5b600083856117189190612a19565b63ffffffff1614801561173c5750600083866117349190612a19565b63ffffffff16145b61177b576040517f08c379a000000000000000000000000000000000000000000000000000000000815260040161177290612abc565b60405180910390fd5b6000808873ffffffffffffffffffffffffffffffffffffffff1673ffffffffffffffffffffffffffffffffffffffff16815260200190815260200160002060020160009054906101000a900460ff161561180a576040517f08c379a000000000000000000000000000000000000000000000000000000000815260040161180190612b28565b60405180910390fd5b6000821180156118225750612acd8663ffffffff1610155b801561183657506205bd888663ffffffff16105b611875576040517f08c379a000000000000000000000000000000000000000000000000000000000815260040161186c90612b94565b60405180910390fd5b6040518060c001604052808763ffffffff1681526020018663ffffffff1681526020018563ffffffff1681526020018463ffffffff168152602001838152602001600115158152506000808973ffffffffffffffffffffffffffffffffffffffff1673ffffffffffffffffffffffffffffffffffffffff16815260200190815260200160002060008201518160000160006101000a81548163ffffffff021916908363ffffffff16021790555060208201518160000160046101000a81548163ffffffff021916908363ffffffff16021790555060408201518160000160086101000a81548163ffffffff021916908363ffffffff160217905550606082015181600001600c6101000a81548163ffffffff021916908363ffffffff1602179055506080820151816001015560a08201518160020160006101000a81548160ff0219169083151502179055509050508673ffffffffffffffffffffffffffffffffffffffff167f124f4bf1fedb09ae96e0f25b747f6497207cca1234e695f0f7089f25389c28bb87878787876001604051611a159695949392919061202b565b60405180910390a2600190509695505050505050565b60006103e8600260149054906101000a900463ffffffff1663ffffffff1683611a549190612bb4565b611a5e919061297c565b9050919050565b6000806000808573ffffffffffffffffffffffffffffffffffffffff1673ffffffffffffffffffffffffffffffffffffffff16815260200190815260200160002090506000611ab384611c39565b90508160020160009054906101000a900460ff161580611b1157508160000160049054906101000a900463ffffffff168260000160009054906101000a900463ffffffff16611b0291906121f7565b63ffffffff168163ffffffff16105b15611b2457816001015492505050611c33565b8160000160089054906101000a900463ffffffff168260000160009054906101000a900463ffffffff16611b5891906121f7565b63ffffffff168163ffffffff1610611b7557600092505050611c33565b60008260000160009054906101000a900463ffffffff1682611b979190612c0e565b9050600083600001600c9054906101000a900463ffffffff1684600001600c9054906101000a900463ffffffff1683611bd09190612c42565b611bda9190612c73565b905060008460000160089054906101000a900463ffffffff1663ffffffff168263ffffffff168660010154611c0f9190612bb4565b611c19919061297c565b9050808560010154611c2b9190612685565b955050505050505b92915050565b6000808263ffffffff1614611c4e5781611c57565b611c566112fd565b5b9050919050565b600080fd5b600073ffffffffffffffffffffffffffffffffffffffff82169050919050565b6000611c8e82611c63565b9050919050565b611c9e81611c83565b8114611ca957600080fd5b50565b600081359050611cbb81611c95565b92915050565b600063ffffffff82169050919050565b611cda81611cc1565b8114611ce557600080fd5b50565b600081359050611cf781611cd1565b92915050565b60008060408385031215611d1457611d13611c5e565b5b6000611d2285828601611cac565b9250506020611d3385828601611ce8565b9150509250929050565b60008115159050919050565b611d5281611d3d565b82525050565b6000602082019050611d6d6000830184611d49565b92915050565b60008060408385031215611d8a57611d89611c5e565b5b6000611d9885828601611cac565b9250506020611da985828601611cac565b9150509250929050565b6000819050919050565b6000611dd8611dd3611dce84611c63565b611db3565b611c63565b9050919050565b6000611dea82611dbd565b9050919050565b6000611dfc82611ddf565b9050919050565b611e0c81611df1565b82525050565b6000602082019050611e276000830184611e03565b92915050565b611e3681611c83565b82525050565b6000602082019050611e516000830184611e2d565b92915050565b600060208284031215611e6d57611e6c611c5e565b5b6000611e7b84828501611ce8565b91505092915050565b6000819050919050565b611e9781611e84565b82525050565b611ea681611cc1565b82525050565b600061010082019050611ec2600083018b611e8e565b611ecf602083018a611e8e565b611edc6040830189611e8e565b611ee96060830188611e9d565b611ef66080830187611e9d565b611f0360a0830186611e9d565b611f1060c0830185611e9d565b611f1d60e0830184611d49565b9998505050505050505050565b611f3381611e84565b8114611f3e57600080fd5b50565b600081359050611f5081611f2a565b92915050565b60008060008060008060c08789031215611f7357611f72611c5e565b5b6000611f8189828a01611cac565b9650506020611f9289828a01611ce8565b9550506040611fa389828a01611ce8565b9450506060611fb489828a01611ce8565b9350506080611fc589828a01611ce8565b92505060a0611fd689828a01611f41565b9150509295509295509295565b6000602082019050611ff86000830184611e9d565b92915050565b60006020828403121561201457612013611c5e565b5b600061202284828501611cac565b91505092915050565b600060c0820190506120406000830189611e9d565b61204d6020830188611e9d565b61205a6040830187611e9d565b6120676060830186611e9d565b6120746080830185611e8e565b61208160a0830184611d49565b979650505050505050565b6000602082840312156120a2576120a1611c5e565b5b60006120b084828501611f41565b91505092915050565b600082825260208201905092915050565b7f6f6e6c792061646d696e2063616e2063616c6c20746869732066756e6374696f60008201527f6e00000000000000000000000000000000000000000000000000000000000000602082015250565b60006121266021836120b9565b9150612131826120ca565b604082019050919050565b6000602082019050818103600083015261215581612119565b9050919050565b7f6e6f206163746976652076657374696e67000000000000000000000000000000600082015250565b60006121926011836120b9565b915061219d8261215c565b602082019050919050565b600060208201905081810360008301526121c181612185565b9050919050565b7f4e487b7100000000000000000000000000000000000000000000000000000000600052601160045260246000fd5b600061220282611cc1565b915061220d83611cc1565b92508263ffffffff03821115612226576122256121c8565b5b828201905092915050565b7f6e6f206566666563740000000000000000000000000000000000000000000000600082015250565b60006122676009836120b9565b915061227282612231565b602082019050919050565b600060208201905081810360008301526122968161225a565b9050919050565b7f63616e6e6f74207265766f6b652076657374656420686f6c64696e6773000000600082015250565b60006122d3601d836120b9565b91506122de8261229d565b602082019050919050565b60006020820190508181036000830152612302816122c6565b9050919050565b7f63616c6c6572206973206e6f74207468652041646d696e206f722053656c6600600082015250565b600061233f601f836120b9565b915061234a82612309565b602082019050919050565b6000602082019050818103600083015261236e81612332565b9050919050565b7f6e6f2076657374696e67207363686564756c6520666f722063616c6c65720000600082015250565b60006123ab601e836120b9565b91506123b682612375565b602082019050919050565b600060208201905081810360008301526123da8161239e565b9050919050565b7f746865206e65772062656e656669636961727920616c7265616479206861732060008201527f612076657374696e67207363686564756c650000000000000000000000000000602082015250565b600061243d6032836120b9565b9150612448826123e1565b604082019050919050565b6000602082019050818103600083015261246c81612430565b9050919050565b7f7468652076657374696e67207363686564756c6520796f752077616e7420746f60008201527f207472616e73666572206973206e6f7420616374697665000000000000000000602082015250565b60006124cf6037836120b9565b91506124da82612473565b604082019050919050565b600060208201905081810360008301526124fe816124c2565b9050919050565b7f746f6f206561726c7920746f207769746864726177206f7220636c696666206e60008201527f6f742066696e6973686564000000000000000000000000000000000000000000602082015250565b6000612561602b836120b9565b915061256c82612505565b604082019050919050565b6000602082019050818103600083015261259081612554565b9050919050565b7f6e6f20746f6b656e7320617661696c61626c6520746f20776974686472617700600082015250565b60006125cd601f836120b9565b91506125d882612597565b602082019050919050565b600060208201905081810360008301526125fc816125c0565b9050919050565b60006040820190506126186000830185611e2d565b6126256020830184611e8e565b9392505050565b61263581611d3d565b811461264057600080fd5b50565b6000815190506126528161262c565b92915050565b60006020828403121561266e5761266d611c5e565b5b600061267c84828501612643565b91505092915050565b600061269082611e84565b915061269b83611e84565b9250828210156126ae576126ad6121c8565b5b828203905092915050565b60006040820190506126ce6000830185611e8e565b6126db6020830184611e8e565b9392505050565b7f76657374696e67207363686564756c6520616c7265616479206578697374732060008201527f666f7220676976656e2062656e65666963696172790000000000000000000000602082015250565b600061273e6035836120b9565b9150612749826126e2565b604082019050919050565b6000602082019050818103600083015261276d81612731565b9050919050565b60008151905061278381611f2a565b92915050565b60006020828403121561279f5761279e611c5e565b5b60006127ad84828501612774565b91505092915050565b7f706c6561736520616c6c6f636174652074686520746f6b656e7320746f20746860008201527f6520636f6e747261637400000000000000000000000000000000000000000000602082015250565b6000612812602a836120b9565b915061281d826127b6565b604082019050919050565b6000602082019050818103600083015261284181612805565b9050919050565b600060608201905061285d6000830186611e2d565b61286a6020830185611e2d565b6128776040830184611e8e565b949350505050565b600061288a82611ddf565b9050919050565b61289a8161287f565b82525050565b60006060820190506128b56000830186611e2d565b6128c26020830185612891565b6128cf6040830184611e8e565b949350505050565b60006128f26128ed6128e884611cc1565b611db3565b611e84565b9050919050565b612902816128d7565b82525050565b600060808201905061291d6000830187612891565b61292a6020830186611e8e565b6129376040830185611e8e565b61294460608301846128f9565b95945050505050565b7f4e487b7100000000000000000000000000000000000000000000000000000000600052601260045260246000fd5b600061298782611e84565b915061299283611e84565b9250826129a2576129a161294d565b5b828204905092915050565b7f696e76616c69642076657374696e67207363686564756c650000000000000000600082015250565b60006129e36018836120b9565b91506129ee826129ad565b602082019050919050565b60006020820190508181036000830152612a12816129d6565b9050919050565b6000612a2482611cc1565b9150612a2f83611cc1565b925082612a3f57612a3e61294d565b5b828206905092915050565b7f696e76616c696420636c6966662f6475726174696f6e20666f7220696e74657260008201527f76616c0000000000000000000000000000000000000000000000000000000000602082015250565b6000612aa66023836120b9565b9150612ab182612a4a565b604082019050919050565b60006020820190508181036000830152612ad581612a99565b9050919050565b7f6772616e7420616c726561647920657869737473000000000000000000000000600082015250565b6000612b126014836120b9565b9150612b1d82612adc565b602082019050919050565b60006020820190508181036000830152612b4181612b05565b9050919050565b7f696e76616c69642076657374696e6720706172616d7300000000000000000000600082015250565b6000612b7e6016836120b9565b9150612b8982612b48565b602082019050919050565b60006020820190508181036000830152612bad81612b71565b9050919050565b6000612bbf82611e84565b9150612bca83611e84565b9250817fffffffffffffffffffffffffffffffffffffffffffffffffffffffffffffffff0483118215151615612c0357612c026121c8565b5b828202905092915050565b6000612c1982611cc1565b9150612c2483611cc1565b925082821015612c3757612c366121c8565b5b828203905092915050565b6000612c4d82611cc1565b9150612c5883611cc1565b925082612c6857612c6761294d565b5b828204905092915050565b6000612c7e82611cc1565b9150612c8983611cc1565b92508163ffffffff0483118215151615612ca657612ca56121c8565b5b82820290509291505056fea2646970667358221220bc1396ea84728513b15a7f3bd77a6a801e10e25f83c7a4ab7e16d5e23992f6e664736f6c634300080b0033",
  "immutableReferences": {},
  "source": "// SPDX-License-Identifier: MIT\npragma solidity ^0.8.0;\n\nimport \"@openzeppelin/contracts/token/ERC20/IERC20.sol\";\n\ncontract Vesting {\n\n    // Structs\n    struct VestingSchedule {\n        uint32 startDay; /* Start day of the grant, in days since the UNIX epoch (start of day). */\n        uint32 cliffDuration; /* Duration of the cliff, with respect to the grant start day, in days. */\n        uint32 duration; /* Duration of the vesting schedule, with respect to the grant start day, in days. */\n        uint32 interval; /* Duration in days of the vesting interval. */\n        uint256 amount; /* Total number of tokens that vest. */\n        bool isActive;\n    }\n\n    // Mappings\n    mapping(address => VestingSchedule) public _vestingSchedules;\n\n    // // Date-related constants for sanity-checking dates to reject obvious erroneous inputs\n    // // and conversions from seconds to days and years that are more or less leap year-aware.\n    // uint32 private constant THOUSAND_YEARS_DAYS = 365243; /* See https://www.timeanddate.com/date/durationresult.html?m1=1&d1=1&y1=2000&m2=1&d2=1&y2=3000 */\n    // uint32 private constant TEN_YEARS_DAYS = THOUSAND_YEARS_DAYS / 100; /* Includes leap years (though it doesn't really matter) */\n    // uint32 private constant JAN_1_2000_DAYS = 946684800 / (24 * 60 * 60);\n    // uint32 private constant JAN_1_3000_DAYS = JAN_1_2000_DAYS + 365243;\n\n    // Events\n    event VestingScheduleCreated(\n        address indexed beneficiary,\n        uint32 startDay,\n        uint32 cliffDuration,\n        uint32 duration,\n        uint32 interval,\n        uint256 amount,\n        bool isActive\n    );\n\n    event GrantRevoked(\n        address indexed grantHolder, \n        uint32 onDay\n    );\n\n    event VestingTokensGranted(\n        address indexed beneficiary,\n        uint256 withdrawAmount,\n        uint256 pendingAmount\n    );\n\n    event VestingFeeCollected(\n        address feeAccount,\n        uint256 originalValue,\n        uint256 amount,\n        uint256 fee\n    );\n\n    // Global variables\n    address public admin;\n    address payable feeAccount;\n    uint32 public fee;\n    IERC20 public token;\n    \n    constructor(IERC20 _token, uint32 _fee, address payable _feeAccount) {\n        require(address(_token) != address(0));\n        admin = msg.sender;\n        fee = _fee;\n        feeAccount = _feeAccount;\n        token = _token;\n    }\n\n    // ============================================================================\n    // === Methods for administratively creating a vesting schedule for an account.\n    // ============================================================================\n    \n    function deposit(uint256 amount) onlyAdmin external returns (bool ok) {\n        require(amount > 0);\n        uint256 contractFee = calculateFee(amount);\n        token.transferFrom(msg.sender, address(this), amount - contractFee);\n        token.transferFrom(msg.sender, feeAccount, contractFee);\n        emit VestingFeeCollected(feeAccount, amount, contractFee, fee);\n        return true;\n    }\n\n    function calculateFee(uint256 amount) internal view returns (uint256 __fee) {\n        __fee = amount * fee / 1000;\n        return __fee;\n    }\n\n    function vestingFee() public view virtual returns (uint32) {\n        return fee;\n    }\n\n    function vestingFeeAccount() public view virtual returns (address) {\n        return feeAccount;\n    }\n\n    function vestingToken() public view virtual returns (IERC20) {\n        return token;\n    }\n\n    function addVestingSchedule(\n        address _beneficiary,\n        uint32 _startDay,\n        uint32 _cliffDuration,\n        uint32 _duration,\n        uint32 _interval,\n        uint256 _amount\n    ) public onlyAdmin {\n        require(\n            !hasVestingSchedule(_beneficiary),\n            \"vesting schedule already exists for given beneficiary\"\n        );\n\n        require(token.balanceOf(address(this)) >= _amount, \"please allocate the tokens to the contract\");\n\n        setVestingSchedule(\n            _beneficiary,\n            _startDay,\n            _cliffDuration,\n            _duration,\n            _interval,\n            _amount\n        );\n\n    }\n\n    function hasVestingSchedule(address account)\n        internal\n        view\n        returns (bool ok)\n    {\n        return _vestingSchedules[account].isActive;\n    }\n\n    function setVestingSchedule(\n        address _beneficiary,\n        uint32 _startDay, /* Start day of the grant, in days since the UNIX epoch (start of day). */\n        uint32 _cliffDuration, /* Duration of the cliff, with respect to the grant start day, in days. */\n        uint32 _duration, /* Duration of the vesting schedule, with respect to the grant start day, in days. */\n        uint32 _interval, /* Duration in days of the vesting interval. */\n        uint256 _amount /* Total number of tokens that vest. */\n    ) internal returns (bool ok) {\n        // Check for a valid vesting schedule given (disallow absurd values to reject likely bad input).\n        require(\n            _duration > 0 &&\n                //_duration <= TEN_YEARS_DAYS &&\n                _duration <= 3652 &&\n                _cliffDuration < _duration &&\n                _interval >= 1,\n            \"invalid vesting schedule\"\n        );\n\n        // Make sure the duration values are in harmony with interval (both should be an exact multiple of interval).\n        require(\n            _duration % _interval == 0 && _cliffDuration % _interval == 0,\n            \"invalid cliff/duration for interval\"\n        );\n\n        // Make sure no prior vesting is in effect for this beneficiary\n        require(!_vestingSchedules[_beneficiary].isActive, \"grant already exists\");\n\n        // Check for valid vestingAmount\n        require(\n                _amount > 0 &&\n                //_startDay >= JAN_1_2000_DAYS &&\n                //_startDay < JAN_1_3000_DAYS,\n                _startDay >= 10957 &&\n                _startDay < 376200,\n            \"invalid vesting params\"\n        );\n\n        // Create and populate a vesting schedule.\n        _vestingSchedules[_beneficiary] = VestingSchedule(\n            _startDay,\n            _cliffDuration,\n            _duration,\n            _interval,\n            _amount,\n            true /*isActive*/\n        );\n\n        // Emit the event and return success.\n        emit VestingScheduleCreated(\n            _beneficiary,\n            _startDay,\n            _cliffDuration,\n            _duration,\n            _interval,\n            _amount,\n            true /*isActive*/\n        );\n\n        return true;\n    }\n\n    function getVestingSchedule(address _beneficiary)\n        public\n        view\n        onlyAdminOrSelf(_beneficiary)\n        returns (\n            uint32 startDay,\n            uint32 cliffDuration,\n            uint32 duration,\n            uint32 interval,\n            uint256 amount,\n            bool isActive\n        )\n    {\n        return (\n            _vestingSchedules[_beneficiary].startDay,\n            _vestingSchedules[_beneficiary].cliffDuration,\n            _vestingSchedules[_beneficiary].duration,\n            _vestingSchedules[_beneficiary].interval,\n            _vestingSchedules[_beneficiary].amount,\n            _vestingSchedules[_beneficiary].isActive\n        );\n    }\n\n    function transferVestingSchedule(address _from, address _to) onlyAdminOrSelf(_from) external returns (bool ok) {\n        require(hasVestingSchedule(msg.sender), \"no vesting schedule for caller\");\n        require(hasVestingSchedule(_to), \"the new beneficiary already has a vesting schedule\");\n        VestingSchedule storage vesting = _vestingSchedules[msg.sender];\n        require(vesting.isActive, \"the vesting schedule you want to transfer is not active\");\n        // Create a new vesting schedule for the new beneficiary with the same information as the original vesting schedule\n        addVestingSchedule(_to, vesting.startDay, vesting.cliffDuration, vesting.duration, vesting.interval, vesting.amount);\n        // Mark the original vesting schedule as inactive\n        revokeVesting(_from, today());\n        return true;\n    }\n\n    function withdraw() external returns (bool ok) {\n        require(hasVestingSchedule(msg.sender), \"no vesting schedule for caller\");\n        VestingSchedule storage vesting = _vestingSchedules[msg.sender];\n        require(\n            today() >= vesting.startDay + vesting.cliffDuration,\n            \"too early to withdraw or cliff not finished\"\n        );\n        require(vesting.amount > 0);\n        require(vesting.isActive);\n        uint256 vestedAmount = getVestedAmount(msg.sender, today());\n        require(vestedAmount > 0, \"no tokens available to withdraw\");\n        token.transfer(msg.sender, vestedAmount);\n        /* Emits the VestingTokensGranted event. */\n        emit VestingTokensGranted(msg.sender, vestedAmount, vesting.amount - vestedAmount);\n        return true;\n    }\n\n    function getVestedAmount(address account, uint32 onDay)\n        internal\n        view\n        returns (uint256 amountAvailable)\n    {\n        uint256 totalTokens = _vestingSchedules[msg.sender].amount;\n        uint256 vested = totalTokens - getNotVestedAmount(account, onDay);\n        return vested;\n    }\n\n    /**\n     * @dev Determines the amount of tokens that have not vested in the given account.\n     *\n     * The math is: not vested amount = vesting amount * (end date - on date)/(end date - start date)\n     *\n     * @param account = The account to check.\n     * @param onDayOrToday = The day to check for, in days since the UNIX epoch. Can pass\n     *   the special value 0 to indicate today.\n     */\n    function getNotVestedAmount(address account, uint32 onDayOrToday)\n        internal\n        view\n        returns (uint256 amountNotVested)\n    {\n        VestingSchedule storage vesting = _vestingSchedules[account];\n        uint32 onDay = _effectiveDay(onDayOrToday);\n\n        // If there's no schedule, or before the vesting cliff, then the full amount is not vested.\n        if (\n            !vesting.isActive || onDay < vesting.startDay + vesting.cliffDuration\n        ) {\n            // None are vested (all are not vested)\n            return vesting.amount;\n        }\n        // If after end of vesting, then the not vested amount is zero (all are vested).\n        else if (onDay >= vesting.startDay + vesting.duration) {\n            // All are vested (none are not vested)\n            return uint256(0);\n        }\n        // Otherwise a fractional amount is vested.\n        else {\n            // Compute the exact number of days vested.\n            uint32 daysVested = onDay - vesting.startDay;\n            // Adjust result rounding down to take into consideration the interval.\n            uint32 effectiveDaysVested = (daysVested / vesting.interval) *\n                vesting.interval;\n\n            // Compute the fraction vested from schedule using 224.32 fixed point math for date range ratio.\n            // Note: This is safe in 256-bit math because max value of X billion tokens = X*10^27 wei, and\n            // typical token amounts can fit into 90 bits. Scaling using a 32 bits value results in only 125\n            // bits before reducing back to 90 bits by dividing. There is plenty of room left, even for token\n            // amounts many orders of magnitude greater than mere billions.\n            //uint256 vested = grant.amount.mul(effectiveDaysVested).div(vesting.duration);\n            uint256 vested = (vesting.amount * effectiveDaysVested) /\n                vesting.duration;\n            //return grant.amount.sub(vested);\n            return vesting.amount - vested;\n        }\n    }\n\n    // =========================================================================\n    // === Check vesting.\n    // =========================================================================\n\n    /**\n     * @dev returns the day number of the current day, in days since the UNIX epoch.\n     */\n    function today() public view returns (uint32 dayNumber) {\n        return uint32(block.timestamp / (24 * 60 * 60)); // Seconds per day\n    }\n\n    function _effectiveDay(uint32 onDayOrToday)\n        internal\n        view\n        returns (uint32 dayNumber)\n    {\n        return onDayOrToday == 0 ? today() : onDayOrToday;\n    }\n\n    /***\n     * @dev returns all information about the grant's vesting as of the given day\n     * for the given account. Only callable by the account holder or a grantor, so\n     * this is mainly intended for administrative use.\n     *\n     * @param grantHolder = The address to do this for.\n     * @param onDayOrToday = The day to check for, in days since the UNIX epoch. Can pass\n     *   the special value 0 to indicate today.\n     * @return = A tuple with the following values:\n     *   amountVested = the amount out of vestingAmount that is vested\n     *   amountNotVested = the amount that is vested (equal to vestingAmount - vestedAmount)\n     *   amountOfGrant = the amount of tokens subject to vesting.\n     *   vestStartDay = starting day of the grant (in days since the UNIX epoch).\n     *   vestDuration = grant duration in days.\n     *   cliffDuration = duration of the cliff.\n     *   vestIntervalDays = number of days between vesting periods.\n     *   isActive = true if the vesting schedule is currently active.\n     */\n    function vestingForAccountAsOf(address account, uint32 onDayOrToday)\n        public\n        view\n        onlyAdminOrSelf(account)\n        returns (\n            uint256 amountVested,\n            uint256 amountNotVested,\n            uint256 vestAmount,\n            uint32 vestStartDay,\n            uint32 vestDuration,\n            uint32 cliffDuration,\n            uint32 vestIntervalDays,\n            bool isActive\n        )\n    {\n        VestingSchedule storage vesting = _vestingSchedules[account];\n        uint256 notVestedAmount = getNotVestedAmount(account, onDayOrToday);\n        uint256 vestingAmount = vesting.amount;\n\n        return (\n            vestingAmount - notVestedAmount,\n            notVestedAmount,\n            vestingAmount,\n            vesting.startDay,\n            vesting.duration,\n            vesting.cliffDuration,\n            vesting.interval,\n            vesting.isActive\n        );\n    }\n\n    /***\n     * @dev returns all information about the grant's vesting as of the given day\n     * for the current account, to be called by the account holder.\n     *\n     * @param onDayOrToday = The day to check for, in days since the UNIX epoch. Can pass\n     *   the special value 0 to indicate today.\n     * @return = A tuple with the following values:\n     *   amountVested = the amount out of vestingAmount that is vested\n     *   amountNotVested = the amount that is vested (equal to vestingAmount - vestedAmount)\n     *   amountOfGrant = the amount of tokens subject to vesting.\n     *   vestStartDay = starting day of the grant (in days since the UNIX epoch).\n     *   cliffDuration = duration of the cliff.\n     *   vestDuration = grant duration in days.\n     *   vestIntervalDays = number of days between vesting periods.\n     *   isActive = true if the vesting schedule is currently active.\n     *   wasRevoked = true if the vesting schedule was revoked.\n     */\n    function vestingAsOf(uint32 onDayOrToday)\n        public\n        view\n        returns (\n            uint256 amountVested,\n            uint256 amountNotVested,\n            uint256 vestAmount,\n            uint32 vestStartDay,\n            uint32 vestDuration,\n            uint32 cliffDuration,\n            uint32 vestIntervalDays,\n            bool isActive\n        )\n    {\n        return vestingForAccountAsOf(msg.sender, onDayOrToday);\n    }\n\n    /**\n     * @dev returns true if the account has sufficient funds available to cover the given amount,\n     *   including consideration for vesting tokens.\n     *\n     * @param account = The account to check.\n     * @param amount = The required amount of vested funds.\n     * @param onDay = The day to check for, in days since the UNIX epoch.\n     */\n    function _fundsAreAvailableOn(\n        address account,\n        uint256 amount,\n        uint32 onDay\n    ) internal view returns (bool ok) {\n        return (amount <= getVestedAmount(account, onDay));\n    }\n\n    // =========================================================================\n    // === Grant revocation\n    // =========================================================================\n\n    /***\n     * @dev If the account has a revocable grant, this forces the grant to end based on computing\n     * the amount vested up to the given date. All tokens that would no longer vest are returned\n     * to the account of the original grantor.\n     *\n     * @param grantHolder = Address to which tokens will be granted.\n     * @param onDay = The date upon which the vesting schedule will be effectively terminated,\n     *   in days since the UNIX epoch (start of day).\n     */\n    function revokeVesting(address account, uint32 onDay) public onlyAdmin\n        returns (bool ok)\n    {\n        VestingSchedule storage vesting = _vestingSchedules[account];\n        //uint256 notVestedAmount;\n\n        // Make sure a vesting schedule has previously been set.\n        require(vesting.isActive, \"no active vesting\");\n        // Fail on likely erroneous input.\n        require(onDay <= vesting.startDay + vesting.duration, \"no effect\");\n        // Don\"t let grantor revoke anf portion of vested amount.\n        require(onDay >= today(), \"cannot revoke vested holdings\");\n\n        //notVestedAmount = getNotVestedAmount(account, onDay);\n\n        // Kill the grant by updating isActive.\n        _vestingSchedules[account].isActive = false;\n\n        /* Emits the GrantRevoked event. */\n        emit GrantRevoked(account, onDay);\n        \n        return true;\n\n    }\n\n    // Modifiers\n    \n    modifier onlyAdmin() {\n        // Distinguish insufficient overall balance from insufficient vested funds balance in failure msg.\n        require(msg.sender == admin, \"only admin can call this function\");\n        _;\n    }\n\n    modifier onlyAdminOrSelf(address _account) {\n        require(\n            msg.sender == admin || msg.sender == _account,\n            \"caller is not the Admin or Self\"\n        );\n        _;\n    }\n\n}\n",
  "sourcePath": "/home/matifalcone/Blockchain/BSC/vesting/contracts/Vesting.sol",
  "compiler": {
    "name": "solc",
    "version": "0.8.11+commit.d7f03943.Emscripten.clang"
  },
  "schemaVersion": "3.4.4",
  "updatedAt": "2022-02-13T12:41:47.342Z",
  "devdoc": {
    "kind": "dev",
    "methods": {
      "today()": {
        "details": "returns the day number of the current day, in days since the UNIX epoch."
      }
    },
    "version": 1
  },
  "userdoc": {
    "kind": "user",
    "methods": {},
    "version": 1
  }
}