{
  "contractName": "Vesting",
  "abi": [
    {
      "inputs": [
        {
          "internalType": "contract IERC20",
          "name": "_token",
          "type": "address"
        }
      ],
      "stateMutability": "nonpayable",
      "type": "constructor"
    },
    {
      "anonymous": false,
      "inputs": [
        {
          "indexed": true,
          "internalType": "address",
          "name": "grantHolder",
          "type": "address"
        },
        {
          "indexed": false,
          "internalType": "uint32",
          "name": "onDay",
          "type": "uint32"
        }
      ],
      "name": "GrantRevoked",
      "type": "event"
    },
    {
      "anonymous": false,
      "inputs": [
        {
          "indexed": true,
          "internalType": "address",
          "name": "beneficiary",
          "type": "address"
        },
        {
          "indexed": false,
          "internalType": "uint32",
          "name": "startDay",
          "type": "uint32"
        },
        {
          "indexed": false,
          "internalType": "uint32",
          "name": "cliffDuration",
          "type": "uint32"
        },
        {
          "indexed": false,
          "internalType": "uint32",
          "name": "duration",
          "type": "uint32"
        },
        {
          "indexed": false,
          "internalType": "uint32",
          "name": "interval",
          "type": "uint32"
        },
        {
          "indexed": false,
          "internalType": "uint256",
          "name": "amount",
          "type": "uint256"
        },
        {
          "indexed": false,
          "internalType": "bool",
          "name": "isActive",
          "type": "bool"
        }
      ],
      "name": "VestingScheduleCreated",
      "type": "event"
    },
    {
      "anonymous": false,
      "inputs": [
        {
          "indexed": true,
          "internalType": "address",
          "name": "beneficiary",
          "type": "address"
        },
        {
          "indexed": false,
          "internalType": "uint256",
          "name": "withdrawAmount",
          "type": "uint256"
        },
        {
          "indexed": false,
          "internalType": "uint256",
          "name": "pendingAmount",
          "type": "uint256"
        }
      ],
      "name": "VestingTokensGranted",
      "type": "event"
    },
    {
      "inputs": [
        {
          "internalType": "address",
          "name": "",
          "type": "address"
        }
      ],
      "name": "_vestingSchedules",
      "outputs": [
        {
          "internalType": "uint32",
          "name": "startDay",
          "type": "uint32"
        },
        {
          "internalType": "uint32",
          "name": "cliffDuration",
          "type": "uint32"
        },
        {
          "internalType": "uint32",
          "name": "duration",
          "type": "uint32"
        },
        {
          "internalType": "uint32",
          "name": "interval",
          "type": "uint32"
        },
        {
          "internalType": "uint256",
          "name": "amount",
          "type": "uint256"
        },
        {
          "internalType": "bool",
          "name": "isActive",
          "type": "bool"
        }
      ],
      "stateMutability": "view",
      "type": "function"
    },
    {
      "inputs": [],
      "name": "admin",
      "outputs": [
        {
          "internalType": "address",
          "name": "",
          "type": "address"
        }
      ],
      "stateMutability": "view",
      "type": "function"
    },
    {
      "inputs": [],
      "name": "token",
      "outputs": [
        {
          "internalType": "contract IERC20",
          "name": "",
          "type": "address"
        }
      ],
      "stateMutability": "view",
      "type": "function"
    },
    {
      "inputs": [
        {
          "internalType": "address",
          "name": "_beneficiary",
          "type": "address"
        },
        {
          "internalType": "uint32",
          "name": "_startDay",
          "type": "uint32"
        },
        {
          "internalType": "uint32",
          "name": "_cliffDuration",
          "type": "uint32"
        },
        {
          "internalType": "uint32",
          "name": "_duration",
          "type": "uint32"
        },
        {
          "internalType": "uint32",
          "name": "_interval",
          "type": "uint32"
        },
        {
          "internalType": "uint256",
          "name": "_amount",
          "type": "uint256"
        }
      ],
      "name": "addVestingSchedule",
      "outputs": [],
      "stateMutability": "payable",
      "type": "function"
    },
    {
      "inputs": [
        {
          "internalType": "address",
          "name": "_beneficiary",
          "type": "address"
        }
      ],
      "name": "getVestingSchedule",
      "outputs": [
        {
          "internalType": "uint32",
          "name": "startDay",
          "type": "uint32"
        },
        {
          "internalType": "uint32",
          "name": "cliffDuration",
          "type": "uint32"
        },
        {
          "internalType": "uint32",
          "name": "duration",
          "type": "uint32"
        },
        {
          "internalType": "uint32",
          "name": "interval",
          "type": "uint32"
        },
        {
          "internalType": "uint256",
          "name": "amount",
          "type": "uint256"
        },
        {
          "internalType": "bool",
          "name": "isActive",
          "type": "bool"
        }
      ],
      "stateMutability": "view",
      "type": "function"
    },
    {
      "inputs": [],
      "name": "withdraw",
      "outputs": [
        {
          "internalType": "bool",
          "name": "ok",
          "type": "bool"
        }
      ],
      "stateMutability": "payable",
      "type": "function"
    },
    {
      "inputs": [],
      "name": "today",
      "outputs": [
        {
          "internalType": "uint32",
          "name": "dayNumber",
          "type": "uint32"
        }
      ],
      "stateMutability": "view",
      "type": "function"
    },
    {
      "inputs": [
        {
          "internalType": "address",
          "name": "account",
          "type": "address"
        },
        {
          "internalType": "uint32",
          "name": "onDayOrToday",
          "type": "uint32"
        }
      ],
      "name": "vestingForAccountAsOf",
      "outputs": [
        {
          "internalType": "uint256",
          "name": "amountVested",
          "type": "uint256"
        },
        {
          "internalType": "uint256",
          "name": "amountNotVested",
          "type": "uint256"
        },
        {
          "internalType": "uint256",
          "name": "vestAmount",
          "type": "uint256"
        },
        {
          "internalType": "uint32",
          "name": "vestStartDay",
          "type": "uint32"
        },
        {
          "internalType": "uint32",
          "name": "vestDuration",
          "type": "uint32"
        },
        {
          "internalType": "uint32",
          "name": "cliffDuration",
          "type": "uint32"
        },
        {
          "internalType": "uint32",
          "name": "vestIntervalDays",
          "type": "uint32"
        },
        {
          "internalType": "bool",
          "name": "isActive",
          "type": "bool"
        }
      ],
      "stateMutability": "view",
      "type": "function"
    },
    {
      "inputs": [
        {
          "internalType": "uint32",
          "name": "onDayOrToday",
          "type": "uint32"
        }
      ],
      "name": "vestingAsOf",
      "outputs": [
        {
          "internalType": "uint256",
          "name": "amountVested",
          "type": "uint256"
        },
        {
          "internalType": "uint256",
          "name": "amountNotVested",
          "type": "uint256"
        },
        {
          "internalType": "uint256",
          "name": "vestAmount",
          "type": "uint256"
        },
        {
          "internalType": "uint32",
          "name": "vestStartDay",
          "type": "uint32"
        },
        {
          "internalType": "uint32",
          "name": "vestDuration",
          "type": "uint32"
        },
        {
          "internalType": "uint32",
          "name": "cliffDuration",
          "type": "uint32"
        },
        {
          "internalType": "uint32",
          "name": "vestIntervalDays",
          "type": "uint32"
        },
        {
          "internalType": "bool",
          "name": "isActive",
          "type": "bool"
        }
      ],
      "stateMutability": "view",
      "type": "function"
    },
    {
      "inputs": [
        {
          "internalType": "address",
          "name": "account",
          "type": "address"
        },
        {
          "internalType": "uint32",
          "name": "onDay",
          "type": "uint32"
        }
      ],
      "name": "revokeVesting",
      "outputs": [
        {
          "internalType": "bool",
          "name": "ok",
          "type": "bool"
        }
      ],
      "stateMutability": "nonpayable",
      "type": "function"
    }
  ],
  "bytecode": "0x60806040523480156200001157600080fd5b506040516200231738038062002317833981810160405281019062000037919062000179565b600073ffffffffffffffffffffffffffffffffffffffff168173ffffffffffffffffffffffffffffffffffffffff1614156200007257600080fd5b33600160006101000a81548173ffffffffffffffffffffffffffffffffffffffff021916908373ffffffffffffffffffffffffffffffffffffffff16021790555080600260006101000a81548173ffffffffffffffffffffffffffffffffffffffff021916908373ffffffffffffffffffffffffffffffffffffffff16021790555050620001ab565b600080fd5b600073ffffffffffffffffffffffffffffffffffffffff82169050919050565b60006200012d8262000100565b9050919050565b6000620001418262000120565b9050919050565b620001538162000134565b81146200015f57600080fd5b50565b600081519050620001738162000148565b92915050565b600060208284031215620001925762000191620000fb565b5b6000620001a28482850162000162565b91505092915050565b61215c80620001bb6000396000f3fe6080604052600436106100915760003560e01c8063b74e452b11610059578063b74e452b14610193578063d56ad0ba146101be578063e6a3bd9e14610202578063f851a44014610244578063fc0c546a1461026f57610091565b806301768db8146100965780632455a035146100d35780633ccfd60b1461011757806367fabe24146101355780639f82906314610151575b600080fd5b3480156100a257600080fd5b506100bd60048036038101906100b89190611548565b61029a565b6040516100ca91906115a3565b60405180910390f35b3480156100df57600080fd5b506100fa60048036038101906100f591906115be565b610559565b60405161010e989796959493929190611613565b60405180910390f35b61011f61058a565b60405161012c91906115a3565b60405180910390f35b61014f600480360381019061014a91906116bd565b6107e9565b005b34801561015d57600080fd5b506101786004803603810190610173919061174a565b6108d9565b60405161018a96959493929190611777565b60405180910390f35b34801561019f57600080fd5b506101a8610b98565b6040516101b591906117d8565b60405180910390f35b3480156101ca57600080fd5b506101e560048036038101906101e09190611548565b610bae565b6040516101f9989796959493929190611613565b60405180910390f35b34801561020e57600080fd5b506102296004803603810190610224919061174a565b610d6f565b60405161023b96959493929190611777565b60405180910390f35b34801561025057600080fd5b50610259610df8565b6040516102669190611802565b60405180910390f35b34801561027b57600080fd5b50610284610e1e565b604051610291919061187c565b60405180910390f35b6000600160009054906101000a900473ffffffffffffffffffffffffffffffffffffffff1673ffffffffffffffffffffffffffffffffffffffff163373ffffffffffffffffffffffffffffffffffffffff161461032c576040517f08c379a00000000000000000000000000000000000000000000000000000000081526004016103239061191a565b60405180910390fd5b60008060008573ffffffffffffffffffffffffffffffffffffffff1673ffffffffffffffffffffffffffffffffffffffff168152602001908152602001600020905060008160020160009054906101000a900460ff166103c1576040517f08c379a00000000000000000000000000000000000000000000000000000000081526004016103b890611986565b60405180910390fd5b8160000160089054906101000a900463ffffffff168260000160009054906101000a900463ffffffff166103f591906119d5565b63ffffffff168463ffffffff161115610443576040517f08c379a000000000000000000000000000000000000000000000000000000000815260040161043a90611a5b565b60405180910390fd5b61044b610b98565b63ffffffff168463ffffffff161015610499576040517f08c379a000000000000000000000000000000000000000000000000000000000815260040161049090611ac7565b60405180910390fd5b6104a38585610e44565b905060008060008773ffffffffffffffffffffffffffffffffffffffff1673ffffffffffffffffffffffffffffffffffffffff16815260200190815260200160002060020160006101000a81548160ff0219169083151502179055508473ffffffffffffffffffffffffffffffffffffffff167f906c0c4c98565a396c542d9102cae7a794e84af6763123e068a1b277333bf4a48560405161054591906117d8565b60405180910390a260019250505092915050565b60008060008060008060008061056f338a610bae565b97509750975097509750975097509750919395975091939597565b600061059533611018565b6105d4576040517f08c379a00000000000000000000000000000000000000000000000000000000081526004016105cb90611b33565b60405180910390fd5b60008060003373ffffffffffffffffffffffffffffffffffffffff1673ffffffffffffffffffffffffffffffffffffffff16815260200190815260200160002090508060000160049054906101000a900463ffffffff168160000160009054906101000a900463ffffffff1661064a91906119d5565b63ffffffff16610658610b98565b63ffffffff16101561069f576040517f08c379a000000000000000000000000000000000000000000000000000000000815260040161069690611bc5565b60405180910390fd5b60008160010154116106b057600080fd5b8060020160009054906101000a900460ff166106cb57600080fd5b60006106de336106d9610b98565b611070565b9050600260009054906101000a900473ffffffffffffffffffffffffffffffffffffffff1673ffffffffffffffffffffffffffffffffffffffff1663a9059cbb33836040518363ffffffff1660e01b815260040161073d929190611be5565b6020604051808303816000875af115801561075c573d6000803e3d6000fd5b505050506040513d601f19601f820116820180604052508101906107809190611c3a565b503373ffffffffffffffffffffffffffffffffffffffff167fd4d6d82bf6e034534952089abb98bc3e058454f1219d797ae62275271a8eedc4828385600101546107ca9190611c67565b6040516107d8929190611c9b565b60405180910390a260019250505090565b600160009054906101000a900473ffffffffffffffffffffffffffffffffffffffff1673ffffffffffffffffffffffffffffffffffffffff163373ffffffffffffffffffffffffffffffffffffffff1614610879576040517f08c379a00000000000000000000000000000000000000000000000000000000081526004016108709061191a565b60405180910390fd5b61088286611018565b156108c2576040517f08c379a00000000000000000000000000000000000000000000000000000000081526004016108b990611d36565b60405180910390fd5b6108d08686868686866110db565b50505050505050565b60008060008060008086600160009054906101000a900473ffffffffffffffffffffffffffffffffffffffff1673ffffffffffffffffffffffffffffffffffffffff163373ffffffffffffffffffffffffffffffffffffffff16148061096a57508073ffffffffffffffffffffffffffffffffffffffff163373ffffffffffffffffffffffffffffffffffffffff16145b6109a9576040517f08c379a00000000000000000000000000000000000000000000000000000000081526004016109a090611da2565b60405180910390fd5b6000808973ffffffffffffffffffffffffffffffffffffffff1673ffffffffffffffffffffffffffffffffffffffff16815260200190815260200160002060000160009054906101000a900463ffffffff166000808a73ffffffffffffffffffffffffffffffffffffffff1673ffffffffffffffffffffffffffffffffffffffff16815260200190815260200160002060000160049054906101000a900463ffffffff166000808b73ffffffffffffffffffffffffffffffffffffffff1673ffffffffffffffffffffffffffffffffffffffff16815260200190815260200160002060000160089054906101000a900463ffffffff166000808c73ffffffffffffffffffffffffffffffffffffffff1673ffffffffffffffffffffffffffffffffffffffff168152602001908152602001600020600001600c9054906101000a900463ffffffff166000808d73ffffffffffffffffffffffffffffffffffffffff1673ffffffffffffffffffffffffffffffffffffffff168152602001908152602001600020600101546000808e73ffffffffffffffffffffffffffffffffffffffff1673ffffffffffffffffffffffffffffffffffffffff16815260200190815260200160002060020160009054906101000a900460ff169650965096509650965096505091939550919395565b60006201518042610ba99190611df1565b905090565b60008060008060008060008089600160009054906101000a900473ffffffffffffffffffffffffffffffffffffffff1673ffffffffffffffffffffffffffffffffffffffff163373ffffffffffffffffffffffffffffffffffffffff161480610c4257508073ffffffffffffffffffffffffffffffffffffffff163373ffffffffffffffffffffffffffffffffffffffff16145b610c81576040517f08c379a0000000000000000000000000000000000000000000000000000000008152600401610c7890611da2565b60405180910390fd5b60008060008d73ffffffffffffffffffffffffffffffffffffffff1673ffffffffffffffffffffffffffffffffffffffff16815260200190815260200160002090506000610ccf8d8d610e44565b90506000826001015490508181610ce69190611c67565b82828560000160009054906101000a900463ffffffff168660000160089054906101000a900463ffffffff168760000160049054906101000a900463ffffffff1688600001600c9054906101000a900463ffffffff168960020160009054906101000a900460ff169b509b509b509b509b509b509b509b50505050509295985092959890939650565b60006020528060005260406000206000915090508060000160009054906101000a900463ffffffff16908060000160049054906101000a900463ffffffff16908060000160089054906101000a900463ffffffff169080600001600c9054906101000a900463ffffffff16908060010154908060020160009054906101000a900460ff16905086565b600160009054906101000a900473ffffffffffffffffffffffffffffffffffffffff1681565b600260009054906101000a900473ffffffffffffffffffffffffffffffffffffffff1681565b6000806000808573ffffffffffffffffffffffffffffffffffffffff1673ffffffffffffffffffffffffffffffffffffffff16815260200190815260200160002090506000610e9284611484565b90508160020160009054906101000a900460ff161580610ef057508160000160049054906101000a900463ffffffff168260000160009054906101000a900463ffffffff16610ee191906119d5565b63ffffffff168163ffffffff16105b15610f0357816001015492505050611012565b8160000160089054906101000a900463ffffffff168260000160009054906101000a900463ffffffff16610f3791906119d5565b63ffffffff168163ffffffff1610610f5457600092505050611012565b60008260000160009054906101000a900463ffffffff1682610f769190611e22565b9050600083600001600c9054906101000a900463ffffffff1684600001600c9054906101000a900463ffffffff1683610faf9190611e56565b610fb99190611e87565b905060008460000160089054906101000a900463ffffffff1663ffffffff168263ffffffff168660010154610fee9190611ec5565b610ff89190611df1565b905080856001015461100a9190611c67565b955050505050505b92915050565b60008060008373ffffffffffffffffffffffffffffffffffffffff1673ffffffffffffffffffffffffffffffffffffffff16815260200190815260200160002060020160009054906101000a900460ff169050919050565b6000806000803373ffffffffffffffffffffffffffffffffffffffff1673ffffffffffffffffffffffffffffffffffffffff16815260200190815260200160002060010154905060006110c38585610e44565b826110ce9190611c67565b9050809250505092915050565b6000808463ffffffff161180156110fa5750610e448463ffffffff1611155b801561111157508363ffffffff168563ffffffff16105b8015611124575060018363ffffffff1610155b611163576040517f08c379a000000000000000000000000000000000000000000000000000000000815260040161115a90611f6b565b60405180910390fd5b600083856111719190611f8b565b63ffffffff1614801561119557506000838661118d9190611f8b565b63ffffffff16145b6111d4576040517f08c379a00000000000000000000000000000000000000000000000000000000081526004016111cb9061202e565b60405180910390fd5b6000808873ffffffffffffffffffffffffffffffffffffffff1673ffffffffffffffffffffffffffffffffffffffff16815260200190815260200160002060020160009054906101000a900460ff1615611263576040517f08c379a000000000000000000000000000000000000000000000000000000000815260040161125a9061209a565b60405180910390fd5b60008211801561127b5750612acd8663ffffffff1610155b801561128f57506205bd888663ffffffff16105b6112ce576040517f08c379a00000000000000000000000000000000000000000000000000000000081526004016112c590612106565b60405180910390fd5b6040518060c001604052808763ffffffff1681526020018663ffffffff1681526020018563ffffffff1681526020018463ffffffff168152602001838152602001600115158152506000808973ffffffffffffffffffffffffffffffffffffffff1673ffffffffffffffffffffffffffffffffffffffff16815260200190815260200160002060008201518160000160006101000a81548163ffffffff021916908363ffffffff16021790555060208201518160000160046101000a81548163ffffffff021916908363ffffffff16021790555060408201518160000160086101000a81548163ffffffff021916908363ffffffff160217905550606082015181600001600c6101000a81548163ffffffff021916908363ffffffff1602179055506080820151816001015560a08201518160020160006101000a81548160ff0219169083151502179055509050508673ffffffffffffffffffffffffffffffffffffffff167f124f4bf1fedb09ae96e0f25b747f6497207cca1234e695f0f7089f25389c28bb8787878787600160405161146e96959493929190611777565b60405180910390a2600190509695505050505050565b6000808263ffffffff161461149957816114a2565b6114a1610b98565b5b9050919050565b600080fd5b600073ffffffffffffffffffffffffffffffffffffffff82169050919050565b60006114d9826114ae565b9050919050565b6114e9816114ce565b81146114f457600080fd5b50565b600081359050611506816114e0565b92915050565b600063ffffffff82169050919050565b6115258161150c565b811461153057600080fd5b50565b6000813590506115428161151c565b92915050565b6000806040838503121561155f5761155e6114a9565b5b600061156d858286016114f7565b925050602061157e85828601611533565b9150509250929050565b60008115159050919050565b61159d81611588565b82525050565b60006020820190506115b86000830184611594565b92915050565b6000602082840312156115d4576115d36114a9565b5b60006115e284828501611533565b91505092915050565b6000819050919050565b6115fe816115eb565b82525050565b61160d8161150c565b82525050565b600061010082019050611629600083018b6115f5565b611636602083018a6115f5565b61164360408301896115f5565b6116506060830188611604565b61165d6080830187611604565b61166a60a0830186611604565b61167760c0830185611604565b61168460e0830184611594565b9998505050505050505050565b61169a816115eb565b81146116a557600080fd5b50565b6000813590506116b781611691565b92915050565b60008060008060008060c087890312156116da576116d96114a9565b5b60006116e889828a016114f7565b96505060206116f989828a01611533565b955050604061170a89828a01611533565b945050606061171b89828a01611533565b935050608061172c89828a01611533565b92505060a061173d89828a016116a8565b9150509295509295509295565b6000602082840312156117605761175f6114a9565b5b600061176e848285016114f7565b91505092915050565b600060c08201905061178c6000830189611604565b6117996020830188611604565b6117a66040830187611604565b6117b36060830186611604565b6117c060808301856115f5565b6117cd60a0830184611594565b979650505050505050565b60006020820190506117ed6000830184611604565b92915050565b6117fc816114ce565b82525050565b600060208201905061181760008301846117f3565b92915050565b6000819050919050565b600061184261183d611838846114ae565b61181d565b6114ae565b9050919050565b600061185482611827565b9050919050565b600061186682611849565b9050919050565b6118768161185b565b82525050565b6000602082019050611891600083018461186d565b92915050565b600082825260208201905092915050565b7f6f6e6c79206f776e65722063616e2063616c6c20746869732066756e6374696f60008201527f6e00000000000000000000000000000000000000000000000000000000000000602082015250565b6000611904602183611897565b915061190f826118a8565b604082019050919050565b60006020820190508181036000830152611933816118f7565b9050919050565b7f6e6f206163746976652076657374696e67000000000000000000000000000000600082015250565b6000611970601183611897565b915061197b8261193a565b602082019050919050565b6000602082019050818103600083015261199f81611963565b9050919050565b7f4e487b7100000000000000000000000000000000000000000000000000000000600052601160045260246000fd5b60006119e08261150c565b91506119eb8361150c565b92508263ffffffff03821115611a0457611a036119a6565b5b828201905092915050565b7f6e6f206566666563740000000000000000000000000000000000000000000000600082015250565b6000611a45600983611897565b9150611a5082611a0f565b602082019050919050565b60006020820190508181036000830152611a7481611a38565b9050919050565b7f63616e6e6f74207265766f6b652076657374656420686f6c64696e6773000000600082015250565b6000611ab1601d83611897565b9150611abc82611a7b565b602082019050919050565b60006020820190508181036000830152611ae081611aa4565b9050919050565b7f6e6f2076657374696e67207363686564756c6520666f722063616c6c65720000600082015250565b6000611b1d601e83611897565b9150611b2882611ae7565b602082019050919050565b60006020820190508181036000830152611b4c81611b10565b9050919050565b7f746f6f206561726c7920746f207769746864726177206f7220636c696666206e60008201527f6f742066696e6973686564000000000000000000000000000000000000000000602082015250565b6000611baf602b83611897565b9150611bba82611b53565b604082019050919050565b60006020820190508181036000830152611bde81611ba2565b9050919050565b6000604082019050611bfa60008301856117f3565b611c0760208301846115f5565b9392505050565b611c1781611588565b8114611c2257600080fd5b50565b600081519050611c3481611c0e565b92915050565b600060208284031215611c5057611c4f6114a9565b5b6000611c5e84828501611c25565b91505092915050565b6000611c72826115eb565b9150611c7d836115eb565b925082821015611c9057611c8f6119a6565b5b828203905092915050565b6000604082019050611cb060008301856115f5565b611cbd60208301846115f5565b9392505050565b7f76657374696e67207363686564756c6520616c7265616479206578697374732060008201527f666f7220676976656e2062656e65666963696172790000000000000000000000602082015250565b6000611d20603583611897565b9150611d2b82611cc4565b604082019050919050565b60006020820190508181036000830152611d4f81611d13565b9050919050565b7f63616c6c6572206973206e6f7420746865204f776e6572206f722053656c6600600082015250565b6000611d8c601f83611897565b9150611d9782611d56565b602082019050919050565b60006020820190508181036000830152611dbb81611d7f565b9050919050565b7f4e487b7100000000000000000000000000000000000000000000000000000000600052601260045260246000fd5b6000611dfc826115eb565b9150611e07836115eb565b925082611e1757611e16611dc2565b5b828204905092915050565b6000611e2d8261150c565b9150611e388361150c565b925082821015611e4b57611e4a6119a6565b5b828203905092915050565b6000611e618261150c565b9150611e6c8361150c565b925082611e7c57611e7b611dc2565b5b828204905092915050565b6000611e928261150c565b9150611e9d8361150c565b92508163ffffffff0483118215151615611eba57611eb96119a6565b5b828202905092915050565b6000611ed0826115eb565b9150611edb836115eb565b9250817fffffffffffffffffffffffffffffffffffffffffffffffffffffffffffffffff0483118215151615611f1457611f136119a6565b5b828202905092915050565b7f696e76616c69642076657374696e67207363686564756c650000000000000000600082015250565b6000611f55601883611897565b9150611f6082611f1f565b602082019050919050565b60006020820190508181036000830152611f8481611f48565b9050919050565b6000611f968261150c565b9150611fa18361150c565b925082611fb157611fb0611dc2565b5b828206905092915050565b7f696e76616c696420636c6966662f6475726174696f6e20666f7220696e74657260008201527f76616c0000000000000000000000000000000000000000000000000000000000602082015250565b6000612018602383611897565b915061202382611fbc565b604082019050919050565b600060208201905081810360008301526120478161200b565b9050919050565b7f6772616e7420616c726561647920657869737473000000000000000000000000600082015250565b6000612084601483611897565b915061208f8261204e565b602082019050919050565b600060208201905081810360008301526120b381612077565b9050919050565b7f696e76616c69642076657374696e6720706172616d7300000000000000000000600082015250565b60006120f0601683611897565b91506120fb826120ba565b602082019050919050565b6000602082019050818103600083015261211f816120e3565b905091905056fea26469706673582212205ad5726a4a05b317c881e1f76238c0b4d8b053a2fd92108b6b54d489c185d64864736f6c634300080b0033",
  "immutableReferences": {},
  "source": "// SPDX-License-Identifier: MIT\npragma solidity ^0.8.0;\n\nimport \"@openzeppelin/contracts/token/ERC20/IERC20.sol\";\n\ncontract Vesting {\n\n    // Structs\n    struct VestingSchedule {\n        uint32 startDay; /* Start day of the grant, in days since the UNIX epoch (start of day). */\n        uint32 cliffDuration; /* Duration of the cliff, with respect to the grant start day, in days. */\n        uint32 duration; /* Duration of the vesting schedule, with respect to the grant start day, in days. */\n        uint32 interval; /* Duration in days of the vesting interval. */\n        uint256 amount; /* Total number of tokens that vest. */\n        bool isActive;\n    }\n\n    // Mappings\n    mapping(address => VestingSchedule) public _vestingSchedules;\n\n    // // Date-related constants for sanity-checking dates to reject obvious erroneous inputs\n    // // and conversions from seconds to days and years that are more or less leap year-aware.\n    // uint32 private constant THOUSAND_YEARS_DAYS = 365243; /* See https://www.timeanddate.com/date/durationresult.html?m1=1&d1=1&y1=2000&m2=1&d2=1&y2=3000 */\n    // uint32 private constant TEN_YEARS_DAYS = THOUSAND_YEARS_DAYS / 100; /* Includes leap years (though it doesn't really matter) */\n    // uint32 private constant JAN_1_2000_DAYS = 946684800 / (24 * 60 * 60);\n    // uint32 private constant JAN_1_3000_DAYS = JAN_1_2000_DAYS + 365243;\n\n    // Events\n    event VestingScheduleCreated(\n        address indexed beneficiary,\n        uint32 startDay,\n        uint32 cliffDuration,\n        uint32 duration,\n        uint32 interval,\n        uint256 amount,\n        bool isActive\n    );\n\n    event GrantRevoked(\n        address indexed grantHolder, \n        uint32 onDay\n    );\n\n    event VestingTokensGranted(\n        address indexed beneficiary,\n        uint256 withdrawAmount,\n        uint256 pendingAmount\n    );\n\n    // Global variables\n    address public admin;\n    IERC20 public token;\n\n    constructor(IERC20 _token) {\n        require(address(_token) != address(0));\n        admin = msg.sender;\n        token = _token;\n    }\n\n    // ============================================================================\n    // === Methods for administratively creating a vesting schedule for an account.\n    // ============================================================================\n\n    function addVestingSchedule(\n        address _beneficiary,\n        uint32 _startDay,\n        uint32 _cliffDuration,\n        uint32 _duration,\n        uint32 _interval,\n        uint256 _amount\n    ) external payable onlyOwner {\n        require(\n            !hasVestingSchedule(_beneficiary),\n            \"vesting schedule already exists for given beneficiary\"\n        );\n        setVestingSchedule(\n            _beneficiary,\n            _startDay,\n            _cliffDuration,\n            _duration,\n            _interval,\n            _amount\n        );\n    }\n\n    modifier onlyOwner() {\n        // Distinguish insufficient overall balance from insufficient vested funds balance in failure msg.\n        require(msg.sender == admin, \"only owner can call this function\");\n        _;\n    }\n\n    function hasVestingSchedule(address account)\n        internal\n        view\n        returns (bool ok)\n    {\n        return _vestingSchedules[account].isActive;\n    }\n\n    function setVestingSchedule(\n        address _beneficiary,\n        uint32 _startDay, /* Start day of the grant, in days since the UNIX epoch (start of day). */\n        uint32 _cliffDuration, /* Duration of the cliff, with respect to the grant start day, in days. */\n        uint32 _duration, /* Duration of the vesting schedule, with respect to the grant start day, in days. */\n        uint32 _interval, /* Duration in days of the vesting interval. */\n        uint256 _amount /* Total number of tokens that vest. */\n    ) internal returns (bool ok) {\n        // Check for a valid vesting schedule given (disallow absurd values to reject likely bad input).\n        require(\n            _duration > 0 &&\n                //_duration <= TEN_YEARS_DAYS &&\n                _duration <= 3652 &&\n                _cliffDuration < _duration &&\n                _interval >= 1,\n            \"invalid vesting schedule\"\n        );\n\n        // Make sure the duration values are in harmony with interval (both should be an exact multiple of interval).\n        require(\n            _duration % _interval == 0 && _cliffDuration % _interval == 0,\n            \"invalid cliff/duration for interval\"\n        );\n\n        // Make sure no prior vesting is in effect for this beneficiary\n        require(!_vestingSchedules[_beneficiary].isActive, \"grant already exists\");\n\n        // Check for valid vestingAmount\n        require(\n                _amount > 0 &&\n                //_startDay >= JAN_1_2000_DAYS &&\n                //_startDay < JAN_1_3000_DAYS,\n                _startDay >= 10957 &&\n                _startDay < 376200,\n            \"invalid vesting params\"\n        );\n\n        // Create and populate a vesting schedule.\n        _vestingSchedules[_beneficiary] = VestingSchedule(\n            _startDay,\n            _cliffDuration,\n            _duration,\n            _interval,\n            _amount,\n            true /*isActive*/\n        );\n\n        // Emit the event and return success.\n        emit VestingScheduleCreated(\n            _beneficiary,\n            _startDay,\n            _cliffDuration,\n            _duration,\n            _interval,\n            _amount,\n            true /*isActive*/\n        );\n\n        return true;\n    }\n\n    function getVestingSchedule(address _beneficiary)\n        public\n        view\n        onlyAdminOrSelf(_beneficiary)\n        returns (\n            uint32 startDay,\n            uint32 cliffDuration,\n            uint32 duration,\n            uint32 interval,\n            uint256 amount,\n            bool isActive\n        )\n    {\n        return (\n            _vestingSchedules[_beneficiary].startDay,\n            _vestingSchedules[_beneficiary].cliffDuration,\n            _vestingSchedules[_beneficiary].duration,\n            _vestingSchedules[_beneficiary].interval,\n            _vestingSchedules[_beneficiary].amount,\n            _vestingSchedules[_beneficiary].isActive\n        );\n    }\n\n    modifier onlyAdminOrSelf(address _account) {\n        require(\n            msg.sender == admin || msg.sender == _account,\n            \"caller is not the Owner or Self\"\n        );\n        _;\n    }\n\n    function withdraw() external payable returns (bool ok) {\n        require(hasVestingSchedule(msg.sender), \"no vesting schedule for caller\");\n        VestingSchedule storage vesting = _vestingSchedules[msg.sender];\n        require(\n            today() >= vesting.startDay + vesting.cliffDuration,\n            \"too early to withdraw or cliff not finished\"\n        );\n        require(vesting.amount > 0);\n        require(vesting.isActive);\n        uint256 vestedAmount = getVestedAmount(msg.sender, today());\n        token.transfer(msg.sender, vestedAmount);\n        /* Emits the VestingTokensGranted event. */\n        emit VestingTokensGranted(msg.sender, vestedAmount, vesting.amount - vestedAmount);\n        return true;\n    }\n\n    function getVestedAmount(address account, uint32 onDay)\n        internal\n        view\n        returns (uint256 amountAvailable)\n    {\n        uint256 totalTokens = _vestingSchedules[msg.sender].amount;\n        uint256 vested = totalTokens - getNotVestedAmount(account, onDay);\n        return vested;\n    }\n\n    /**\n     * @dev Determines the amount of tokens that have not vested in the given account.\n     *\n     * The math is: not vested amount = vesting amount * (end date - on date)/(end date - start date)\n     *\n     * @param account = The account to check.\n     * @param onDayOrToday = The day to check for, in days since the UNIX epoch. Can pass\n     *   the special value 0 to indicate today.\n     */\n    function getNotVestedAmount(address account, uint32 onDayOrToday)\n        internal\n        view\n        returns (uint256 amountNotVested)\n    {\n        VestingSchedule storage vesting = _vestingSchedules[account];\n        uint32 onDay = _effectiveDay(onDayOrToday);\n\n        // If there's no schedule, or before the vesting cliff, then the full amount is not vested.\n        if (\n            !vesting.isActive || onDay < vesting.startDay + vesting.cliffDuration\n        ) {\n            // None are vested (all are not vested)\n            return vesting.amount;\n        }\n        // If after end of vesting, then the not vested amount is zero (all are vested).\n        else if (onDay >= vesting.startDay + vesting.duration) {\n            // All are vested (none are not vested)\n            return uint256(0);\n        }\n        // Otherwise a fractional amount is vested.\n        else {\n            // Compute the exact number of days vested.\n            uint32 daysVested = onDay - vesting.startDay;\n            // Adjust result rounding down to take into consideration the interval.\n            uint32 effectiveDaysVested = (daysVested / vesting.interval) *\n                vesting.interval;\n\n            // Compute the fraction vested from schedule using 224.32 fixed point math for date range ratio.\n            // Note: This is safe in 256-bit math because max value of X billion tokens = X*10^27 wei, and\n            // typical token amounts can fit into 90 bits. Scaling using a 32 bits value results in only 125\n            // bits before reducing back to 90 bits by dividing. There is plenty of room left, even for token\n            // amounts many orders of magnitude greater than mere billions.\n            //uint256 vested = grant.amount.mul(effectiveDaysVested).div(vesting.duration);\n            uint256 vested = (vesting.amount * effectiveDaysVested) /\n                vesting.duration;\n            //return grant.amount.sub(vested);\n            return vesting.amount - vested;\n        }\n    }\n\n    // =========================================================================\n    // === Check vesting.\n    // =========================================================================\n\n    /**\n     * @dev returns the day number of the current day, in days since the UNIX epoch.\n     */\n    function today() public view returns (uint32 dayNumber) {\n        return uint32(block.timestamp / (24 * 60 * 60)); // Seconds per day\n    }\n\n    function _effectiveDay(uint32 onDayOrToday)\n        internal\n        view\n        returns (uint32 dayNumber)\n    {\n        return onDayOrToday == 0 ? today() : onDayOrToday;\n    }\n\n    /***\n     * @dev returns all information about the grant's vesting as of the given day\n     * for the given account. Only callable by the account holder or a grantor, so\n     * this is mainly intended for administrative use.\n     *\n     * @param grantHolder = The address to do this for.\n     * @param onDayOrToday = The day to check for, in days since the UNIX epoch. Can pass\n     *   the special value 0 to indicate today.\n     * @return = A tuple with the following values:\n     *   amountVested = the amount out of vestingAmount that is vested\n     *   amountNotVested = the amount that is vested (equal to vestingAmount - vestedAmount)\n     *   amountOfGrant = the amount of tokens subject to vesting.\n     *   vestStartDay = starting day of the grant (in days since the UNIX epoch).\n     *   vestDuration = grant duration in days.\n     *   cliffDuration = duration of the cliff.\n     *   vestIntervalDays = number of days between vesting periods.\n     *   isActive = true if the vesting schedule is currently active.\n     */\n    function vestingForAccountAsOf(address account, uint32 onDayOrToday)\n        public\n        view\n        onlyAdminOrSelf(account)\n        returns (\n            uint256 amountVested,\n            uint256 amountNotVested,\n            uint256 vestAmount,\n            uint32 vestStartDay,\n            uint32 vestDuration,\n            uint32 cliffDuration,\n            uint32 vestIntervalDays,\n            bool isActive\n        )\n    {\n        VestingSchedule storage vesting = _vestingSchedules[account];\n        uint256 notVestedAmount = getNotVestedAmount(account, onDayOrToday);\n        uint256 vestingAmount = vesting.amount;\n\n        return (\n            vestingAmount - notVestedAmount,\n            notVestedAmount,\n            vestingAmount,\n            vesting.startDay,\n            vesting.duration,\n            vesting.cliffDuration,\n            vesting.interval,\n            vesting.isActive\n        );\n    }\n\n    /***\n     * @dev returns all information about the grant's vesting as of the given day\n     * for the current account, to be called by the account holder.\n     *\n     * @param onDayOrToday = The day to check for, in days since the UNIX epoch. Can pass\n     *   the special value 0 to indicate today.\n     * @return = A tuple with the following values:\n     *   amountVested = the amount out of vestingAmount that is vested\n     *   amountNotVested = the amount that is vested (equal to vestingAmount - vestedAmount)\n     *   amountOfGrant = the amount of tokens subject to vesting.\n     *   vestStartDay = starting day of the grant (in days since the UNIX epoch).\n     *   cliffDuration = duration of the cliff.\n     *   vestDuration = grant duration in days.\n     *   vestIntervalDays = number of days between vesting periods.\n     *   isActive = true if the vesting schedule is currently active.\n     *   wasRevoked = true if the vesting schedule was revoked.\n     */\n    function vestingAsOf(uint32 onDayOrToday)\n        public\n        view\n        returns (\n            uint256 amountVested,\n            uint256 amountNotVested,\n            uint256 vestAmount,\n            uint32 vestStartDay,\n            uint32 vestDuration,\n            uint32 cliffDuration,\n            uint32 vestIntervalDays,\n            bool isActive\n        )\n    {\n        return vestingForAccountAsOf(msg.sender, onDayOrToday);\n    }\n\n    /**\n     * @dev returns true if the account has sufficient funds available to cover the given amount,\n     *   including consideration for vesting tokens.\n     *\n     * @param account = The account to check.\n     * @param amount = The required amount of vested funds.\n     * @param onDay = The day to check for, in days since the UNIX epoch.\n     */\n    function _fundsAreAvailableOn(\n        address account,\n        uint256 amount,\n        uint32 onDay\n    ) internal view returns (bool ok) {\n        return (amount <= getVestedAmount(account, onDay));\n    }\n\n    /**\n     * @dev Modifier to make a function callable only when the amount is sufficiently vested right now.\n     *\n     * @param account = The account to check.\n     * @param amount = The required amount of vested funds.\n     */\n    modifier onlyIfFundsAvailableNow(address account, uint256 amount) {\n        // Distinguish insufficient overall balance from insufficient vested funds balance in failure msg.\n        require(\n            _fundsAreAvailableOn(account, amount, today()),\n            token.balanceOf(account) < amount\n                ? \"insufficient funds\"\n                : \"insufficient vested funds\"\n        );\n        _;\n    }\n\n    // =========================================================================\n    // === Grant revocation\n    // =========================================================================\n\n    /***\n     * @dev If the account has a revocable grant, this forces the grant to end based on computing\n     * the amount vested up to the given date. All tokens that would no longer vest are returned\n     * to the account of the original grantor.\n     *\n     * @param grantHolder = Address to which tokens will be granted.\n     * @param onDay = The date upon which the vesting schedule will be effectively terminated,\n     *   in days since the UNIX epoch (start of day).\n     */\n    function revokeVesting(address account, uint32 onDay)\n        public\n        onlyOwner\n        returns (bool ok)\n    {\n        VestingSchedule storage vesting = _vestingSchedules[account];\n        uint256 notVestedAmount;\n\n        // Make sure a vesting schedule has previously been set.\n        require(vesting.isActive, \"no active vesting\");\n        // Fail on likely erroneous input.\n        require(onDay <= vesting.startDay + vesting.duration, \"no effect\");\n        // Don\"t let grantor revoke anf portion of vested amount.\n        require(onDay >= today(), \"cannot revoke vested holdings\");\n\n        notVestedAmount = getNotVestedAmount(account, onDay);\n\n        // Kill the grant by updating isActive.\n        _vestingSchedules[account].isActive = false;\n\n        /* Emits the GrantRevoked event. */\n        emit GrantRevoked(account, onDay);\n        \n        return true;\n\n    }\n\n}\n",
  "sourcePath": "/home/matifalcone/Blockchain/BSC/vesting2/contracts/Vesting.sol",
  "compiler": {
    "name": "solc",
    "version": "0.8.11+commit.d7f03943.Emscripten.clang"
  },
  "schemaVersion": "3.4.4",
  "updatedAt": "2022-02-09T05:07:19.764Z",
  "devdoc": {
    "kind": "dev",
    "methods": {
      "today()": {
        "details": "returns the day number of the current day, in days since the UNIX epoch."
      }
    },
    "version": 1
  },
  "userdoc": {
    "kind": "user",
    "methods": {},
    "version": 1
  }
}